{
  "_format": "hh-sol-artifact-1",
  "contractName": "Cliente",
  "sourceName": "contracts/Cliente.sol",
  "abi": [
    {
      "inputs": [
        {
          "internalType": "address",
          "name": "_empresaContract",
          "type": "address"
        }
      ],
      "stateMutability": "nonpayable",
      "type": "constructor"
    },
    {
      "inputs": [
        {
          "internalType": "address",
          "name": "owner",
          "type": "address"
        }
      ],
      "name": "OwnableInvalidOwner",
      "type": "error"
    },
    {
      "inputs": [
        {
          "internalType": "address",
          "name": "account",
          "type": "address"
        }
      ],
      "name": "OwnableUnauthorizedAccount",
      "type": "error"
    },
    {
      "anonymous": false,
      "inputs": [
        {
          "indexed": true,
          "internalType": "address",
          "name": "empresaAddress",
          "type": "address"
        },
        {
          "indexed": true,
          "internalType": "address",
          "name": "clienteAddress",
          "type": "address"
        }
      ],
      "name": "ClienteDesactivado",
      "type": "event"
    },
    {
      "anonymous": false,
      "inputs": [
        {
          "indexed": true,
          "internalType": "address",
          "name": "empresaAddress",
          "type": "address"
        },
        {
          "indexed": true,
          "internalType": "address",
          "name": "clienteAddress",
          "type": "address"
        }
      ],
      "name": "ClienteRegistrado",
      "type": "event"
    },
    {
      "anonymous": false,
      "inputs": [
        {
          "indexed": true,
          "internalType": "address",
          "name": "empresaAddress",
          "type": "address"
        },
        {
          "indexed": true,
          "internalType": "address",
          "name": "clienteAddress",
          "type": "address"
        },
        {
          "indexed": false,
          "internalType": "uint256",
          "name": "monto",
          "type": "uint256"
        },
        {
          "indexed": false,
          "internalType": "uint256",
          "name": "nuevoTotal",
          "type": "uint256"
        }
      ],
      "name": "CompraRealizada",
      "type": "event"
    },
    {
      "anonymous": false,
      "inputs": [
        {
          "indexed": true,
          "internalType": "address",
          "name": "previousOwner",
          "type": "address"
        },
        {
          "indexed": true,
          "internalType": "address",
          "name": "newOwner",
          "type": "address"
        }
      ],
      "name": "OwnershipTransferred",
      "type": "event"
    },
    {
      "inputs": [
        {
          "internalType": "address",
          "name": "",
          "type": "address"
        },
        {
          "internalType": "address",
          "name": "",
          "type": "address"
        }
      ],
      "name": "clientes",
      "outputs": [
        {
          "internalType": "address",
          "name": "empresaAddress",
          "type": "address"
        },
        {
          "internalType": "address",
          "name": "clienteAddress",
          "type": "address"
        },
        {
          "internalType": "uint256",
          "name": "comprasTotales",
          "type": "uint256"
        },
        {
          "internalType": "uint256",
          "name": "fechaRegistro",
          "type": "uint256"
        },
        {
          "internalType": "bool",
          "name": "activo",
          "type": "bool"
        }
      ],
      "stateMutability": "view",
      "type": "function"
    },
    {
      "inputs": [
        {
          "internalType": "address",
          "name": "",
          "type": "address"
        },
        {
          "internalType": "uint256",
          "name": "",
          "type": "uint256"
        }
      ],
      "name": "clientesPorEmpresa",
      "outputs": [
        {
          "internalType": "address",
          "name": "",
          "type": "address"
        }
      ],
      "stateMutability": "view",
      "type": "function"
    },
    {
      "inputs": [
        {
          "internalType": "address",
          "name": "_empresaAddress",
          "type": "address"
        },
        {
          "internalType": "address",
          "name": "_clienteAddress",
          "type": "address"
        }
      ],
      "name": "desactivarCliente",
      "outputs": [],
      "stateMutability": "nonpayable",
      "type": "function"
    },
    {
      "inputs": [],
      "name": "empresaContract",
      "outputs": [
        {
          "internalType": "contract Empresa",
          "name": "",
          "type": "address"
        }
      ],
      "stateMutability": "view",
      "type": "function"
    },
    {
      "inputs": [
        {
          "internalType": "address",
          "name": "_empresaAddress",
          "type": "address"
        },
        {
          "internalType": "address",
          "name": "_clienteAddress",
          "type": "address"
        }
      ],
      "name": "esClienteActivo",
      "outputs": [
        {
          "internalType": "bool",
          "name": "",
          "type": "bool"
        }
      ],
      "stateMutability": "view",
      "type": "function"
    },
    {
      "inputs": [
        {
          "internalType": "address",
          "name": "_empresaAddress",
          "type": "address"
        },
        {
          "internalType": "address",
          "name": "_clienteAddress",
          "type": "address"
        }
      ],
      "name": "obtenerCliente",
      "outputs": [
        {
          "components": [
            {
              "internalType": "address",
              "name": "empresaAddress",
              "type": "address"
            },
            {
              "internalType": "address",
              "name": "clienteAddress",
              "type": "address"
            },
            {
              "internalType": "uint256",
              "name": "comprasTotales",
              "type": "uint256"
            },
            {
              "internalType": "uint256",
              "name": "fechaRegistro",
              "type": "uint256"
            },
            {
              "internalType": "bool",
              "name": "activo",
              "type": "bool"
            }
          ],
          "internalType": "struct Cliente.ClienteData",
          "name": "",
          "type": "tuple"
        }
      ],
      "stateMutability": "view",
      "type": "function"
    },
    {
      "inputs": [
        {
          "internalType": "address",
          "name": "_empresaAddress",
          "type": "address"
        }
      ],
      "name": "obtenerClientesPorEmpresa",
      "outputs": [
        {
          "components": [
            {
              "internalType": "address",
              "name": "empresaAddress",
              "type": "address"
            },
            {
              "internalType": "address",
              "name": "clienteAddress",
              "type": "address"
            },
            {
              "internalType": "uint256",
              "name": "comprasTotales",
              "type": "uint256"
            },
            {
              "internalType": "uint256",
              "name": "fechaRegistro",
              "type": "uint256"
            },
            {
              "internalType": "bool",
              "name": "activo",
              "type": "bool"
            }
          ],
          "internalType": "struct Cliente.ClienteData[]",
          "name": "",
          "type": "tuple[]"
        }
      ],
      "stateMutability": "view",
      "type": "function"
    },
    {
      "inputs": [
        {
          "internalType": "address",
          "name": "_empresaAddress",
          "type": "address"
        },
        {
          "internalType": "address",
          "name": "_clienteAddress",
          "type": "address"
        }
      ],
      "name": "obtenerComprasTotales",
      "outputs": [
        {
          "internalType": "uint256",
          "name": "",
          "type": "uint256"
        }
      ],
      "stateMutability": "view",
      "type": "function"
    },
    {
      "inputs": [
        {
          "internalType": "address",
          "name": "_empresaAddress",
          "type": "address"
        }
      ],
      "name": "obtenerTotalClientesPorEmpresa",
      "outputs": [
        {
          "internalType": "uint256",
          "name": "",
          "type": "uint256"
        }
      ],
      "stateMutability": "view",
      "type": "function"
    },
    {
      "inputs": [],
      "name": "owner",
      "outputs": [
        {
          "internalType": "address",
          "name": "",
          "type": "address"
        }
      ],
      "stateMutability": "view",
      "type": "function"
    },
    {
      "inputs": [
        {
          "internalType": "address",
          "name": "_empresaAddress",
          "type": "address"
        },
        {
          "internalType": "address",
          "name": "_clienteAddress",
          "type": "address"
        }
      ],
      "name": "registrarCliente",
      "outputs": [],
      "stateMutability": "nonpayable",
      "type": "function"
    },
    {
      "inputs": [
        {
          "internalType": "address",
          "name": "_empresaAddress",
          "type": "address"
        },
        {
          "internalType": "address",
          "name": "_clienteAddress",
          "type": "address"
        },
        {
          "internalType": "uint256",
          "name": "_monto",
          "type": "uint256"
        }
      ],
      "name": "registrarCompra",
      "outputs": [],
      "stateMutability": "nonpayable",
      "type": "function"
    },
    {
      "inputs": [],
      "name": "renounceOwnership",
      "outputs": [],
      "stateMutability": "nonpayable",
      "type": "function"
    },
    {
      "inputs": [
        {
          "internalType": "address",
          "name": "newOwner",
          "type": "address"
        }
      ],
      "name": "transferOwnership",
      "outputs": [],
      "stateMutability": "nonpayable",
      "type": "function"
    }
  ],
  "bytecode": "0x608060405234801561001057600080fd5b506040516111ef3803806111ef83398101604081905261002f916100d4565b338061005557604051631e4fbdf760e01b81526000600482015260240160405180910390fd5b61005e81610084565b50600380546001600160a01b0319166001600160a01b0392909216919091179055610104565b600080546001600160a01b038381166001600160a01b0319831681178455604051919092169283917f8be0079c531659141344cd1fd0a4f28419497f9722a3daafe3b4186f6b6457e09190a35050565b6000602082840312156100e657600080fd5b81516001600160a01b03811681146100fd57600080fd5b9392505050565b6110dc806101136000396000f3fe608060405234801561001057600080fd5b50600436106100ea5760003560e01c80638da5cb5b1161008c578063d0d0c25f11610066578063d0d0c25f146101fd578063edfbd61f14610210578063f2759f5d1461029a578063f2fde38b146102e957600080fd5b80638da5cb5b146101b2578063a2113c05146101d7578063bcc44d7f146101ea57600080fd5b80633f7cabfd116100c85780633f7cabfd1461014e57806350cc70b11461016e578063715018a614610181578063721a0fe31461018957600080fd5b8063042936a0146100ef57806307f90dfc146101045780632c1b7e6c1461012d575b600080fd5b6101026100fd366004610e38565b6102fc565b005b610117610112366004610e74565b6105a9565b6040516101249190610ed3565b60405180910390f35b61014061013b366004610f21565b6108ab565b604051908152602001610124565b61016161015c366004610f21565b610916565b6040516101249190610f54565b61010261017c366004610f21565b6109f0565b610102610c68565b610140610197366004610e74565b6001600160a01b031660009081526002602052604090205490565b6000546001600160a01b03165b6040516001600160a01b039091168152602001610124565b6101026101e5366004610f21565b610c7c565b6003546101bf906001600160a01b031681565b6101bf61020b366004610f62565b610d29565b61026561021e366004610f21565b60016020818152600093845260408085209091529183529120805491810154600282015460038301546004909301546001600160a01b039485169490921692909160ff1685565b604080516001600160a01b0396871681529590941660208601529284019190915260608301521515608082015260a001610124565b6102d96102a8366004610f21565b6001600160a01b03918216600090815260016020908152604080832093909416825291909152206004015460ff1690565b6040519015158152602001610124565b6101026102f7366004610e74565b610d61565b610304610d9f565b600354604051632de295fd60e11b81526001600160a01b03808616600483015285921690635bc52bfa90602401602060405180830381865afa15801561034e573d6000803e3d6000fd5b505050506040513d601f19601f820116820180604052508101906103729190610f8c565b6103975760405162461bcd60e51b815260040161038e90610fae565b60405180910390fd5b600082116103e75760405162461bcd60e51b815260206004820152601e60248201527f456c206d6f6e746f206465626520736572206d61796f722061206365726f0000604482015260640161038e565b6001600160a01b0380851660009081526001602090815260408083209387168352929052206004015460ff16610503576040805160a0810182526001600160a01b03808716808352868216602080850182815260008688018181524260608901908152600160808a018181528885528187528b852088865287528b85209a518b54908b166001600160a01b0319918216178c5595518b8301805491909b169087161790995591516002808b0191909155905160038a015596516004909801805498151560ff19909916989098179097558481529482528685208054968701815585529084209094018054909416811790935592519192917f20030c1977d07c2080cdfc2a7f7772016f5bd2d0e0506858f6ac61d8aa617f3d9190a35b6001600160a01b0380851660009081526001602090815260408083209387168352929052908120600201805484929061053d908490611009565b90915550506001600160a01b03848116600081815260016020908152604080832094881680845294825291829020600201548251878152918201527f7c19ea7db8201015b323358dcc10ac97731deed38770f05e790d0eca3bfd031a910160405180910390a350505050565b6001600160a01b038116600090815260026020908152604080832080548251818502810185019093528083526060949383018282801561061257602002820191906000526020600020905b81546001600160a01b031681526001909101906020018083116105f4575b505050505090506000815167ffffffffffffffff8111156106355761063561101c565b60405190808252806020026020018201604052801561068e57816020015b6040805160a0810182526000808252602080830182905292820181905260608201819052608082015282526000199092019101816106535790505b5090506000805b83518110156107d4576001600160a01b038616600090815260016020526040812085519091908690849081106106cd576106cd611032565b6020908102919091018101516001600160a01b031682528101919091526040016000206004015460ff16156107c2576001600160a01b0386166000908152600160205260408120855190919086908490811061072b5761072b611032565b6020908102919091018101516001600160a01b039081168352828201939093526040918201600020825160a081018452815485168152600182015490941691840191909152600281015491830191909152600381015460608301526004015460ff161515608082015283518490849081106107a8576107a8611032565b602002602001018190525081806107be90611048565b9250505b806107cc81611048565b915050610695565b5060008167ffffffffffffffff8111156107f0576107f061101c565b60405190808252806020026020018201604052801561084957816020015b6040805160a08101825260008082526020808301829052928201819052606082018190526080820152825260001990920191018161080e5790505b50905060005b828110156108a15783818151811061086957610869611032565b602002602001015182828151811061088357610883611032565b6020026020010181905250808061089990611048565b91505061084f565b5095945050505050565b6001600160a01b03808316600090815260016020908152604080832093851683529290529081206004015460ff166108e557506000610910565b506001600160a01b038083166000908152600160209081526040808320938516835292905220600201545b92915050565b6040805160a0810182526000808252602080830182905282840182905260608301829052608083018290526001600160a01b0386811683526001825284832090861683529052919091206004015460ff166109835760405162461bcd60e51b815260040161038e90611061565b506001600160a01b0380831660009081526001602081815260408084208686168552825292839020835160a08101855281548616815292810154909416908201526002830154918101919091526003820154606082015260049091015460ff161515608082015292915050565b6109f8610d9f565b600354604051632de295fd60e11b81526001600160a01b03808516600483015284921690635bc52bfa90602401602060405180830381865afa158015610a42573d6000803e3d6000fd5b505050506040513d601f19601f82011682018060405250810190610a669190610f8c565b610a825760405162461bcd60e51b815260040161038e90610fae565b6001600160a01b038216610ae75760405162461bcd60e51b815260206004820152602660248201527f446972656363696f6e20646520636c69656e7465206e6f20707565646520736560448201526572206365726f60d01b606482015260840161038e565b6001600160a01b0380841660009081526001602090815260408083209386168352929052206004015460ff1615610b785760405162461bcd60e51b815260206004820152602f60248201527f456c20636c69656e74652079612065737461207265676973747261646f20706160448201526e7261206573746120656d707265736160881b606482015260840161038e565b6040805160a0810182526001600160a01b03808616808352858216602080850182815260008688018181524260608901908152600160808a018181528885528187528b852088865287528b85209a518b54908b166001600160a01b0319918216178c5595518b8301805491909b169087161790995591516002808b0191909155905160038a015596516004909801805498151560ff19909916989098179097558481529482528685208054968701815585529084209094018054909416811790935592519192917f20030c1977d07c2080cdfc2a7f7772016f5bd2d0e0506858f6ac61d8aa617f3d9190a3505050565b610c70610d9f565b610c7a6000610dcc565b565b610c84610d9f565b6001600160a01b0380831660009081526001602090815260408083209385168352929052206004015460ff16610ccc5760405162461bcd60e51b815260040161038e90611061565b6001600160a01b03808316600081815260016020908152604080832094861680845294909152808220600401805460ff19169055517f8ac9a88e9abe2f31634fa3a618086a5720b1edc7519f86606b83bea64198e6f99190a35050565b60026020528160005260406000208181548110610d4557600080fd5b6000918252602090912001546001600160a01b03169150829050565b610d69610d9f565b6001600160a01b038116610d9357604051631e4fbdf760e01b81526000600482015260240161038e565b610d9c81610dcc565b50565b6000546001600160a01b03163314610c7a5760405163118cdaa760e01b815233600482015260240161038e565b600080546001600160a01b038381166001600160a01b0319831681178455604051919092169283917f8be0079c531659141344cd1fd0a4f28419497f9722a3daafe3b4186f6b6457e09190a35050565b80356001600160a01b0381168114610e3357600080fd5b919050565b600080600060608486031215610e4d57600080fd5b610e5684610e1c565b9250610e6460208501610e1c565b9150604084013590509250925092565b600060208284031215610e8657600080fd5b610e8f82610e1c565b9392505050565b80516001600160a01b0390811683526020808301519091169083015260408082015190830152606080820151908301526080908101511515910152565b6020808252825182820181905260009190848201906040850190845b81811015610f1557610f02838551610e96565b9284019260a09290920191600101610eef565b50909695505050505050565b60008060408385031215610f3457600080fd5b610f3d83610e1c565b9150610f4b60208401610e1c565b90509250929050565b60a081016109108284610e96565b60008060408385031215610f7557600080fd5b610f7e83610e1c565b946020939093013593505050565b600060208284031215610f9e57600080fd5b81518015158114610e8f57600080fd5b60208082526025908201527f4c6120656d7072657361206e6f20657869737465206f206e6f20657374612061604082015264637469766160d81b606082015260800190565b634e487b7160e01b600052601160045260246000fd5b8082018082111561091057610910610ff3565b634e487b7160e01b600052604160045260246000fd5b634e487b7160e01b600052603260045260246000fd5b60006001820161105a5761105a610ff3565b5060010190565b60208082526025908201527f456c20636c69656e7465206e6f20657869737465206f206e6f20657374612061604082015264637469766f60d81b60608201526080019056fea26469706673582212200f781aac71f3a36929f15de0a8ac07e5cf088b3a0781526597379115c84f265764736f6c63430008140033",
  "linkReferences": {},
  "deployedLinkReferences": {}
}