{
  "_format": "hh-sol-artifact-1",
  "contractName": "Producto",
  "sourceName": "contracts/Producto.sol",
  "abi": [
    {
      "inputs": [
        {
          "internalType": "address",
          "name": "_empresaContract",
          "type": "address"
        }
      ],
      "stateMutability": "nonpayable",
      "type": "constructor"
    },
    {
      "inputs": [
        {
          "internalType": "address",
          "name": "owner",
          "type": "address"
        }
      ],
      "name": "OwnableInvalidOwner",
      "type": "error"
    },
    {
      "inputs": [
        {
          "internalType": "address",
          "name": "account",
          "type": "address"
        }
      ],
      "name": "OwnableUnauthorizedAccount",
      "type": "error"
    },
    {
      "anonymous": false,
      "inputs": [
        {
          "indexed": true,
          "internalType": "address",
          "name": "previousOwner",
          "type": "address"
        },
        {
          "indexed": true,
          "internalType": "address",
          "name": "newOwner",
          "type": "address"
        }
      ],
      "name": "OwnershipTransferred",
      "type": "event"
    },
    {
      "anonymous": false,
      "inputs": [
        {
          "indexed": true,
          "internalType": "address",
          "name": "empresaAddress",
          "type": "address"
        },
        {
          "indexed": true,
          "internalType": "uint256",
          "name": "id",
          "type": "uint256"
        },
        {
          "indexed": false,
          "internalType": "string",
          "name": "nombre",
          "type": "string"
        },
        {
          "indexed": false,
          "internalType": "uint256",
          "name": "precio",
          "type": "uint256"
        },
        {
          "indexed": false,
          "internalType": "string",
          "name": "imagenIPFS",
          "type": "string"
        }
      ],
      "name": "ProductoActualizado",
      "type": "event"
    },
    {
      "anonymous": false,
      "inputs": [
        {
          "indexed": true,
          "internalType": "address",
          "name": "empresaAddress",
          "type": "address"
        },
        {
          "indexed": true,
          "internalType": "uint256",
          "name": "id",
          "type": "uint256"
        },
        {
          "indexed": false,
          "internalType": "string",
          "name": "nombre",
          "type": "string"
        },
        {
          "indexed": false,
          "internalType": "uint256",
          "name": "precio",
          "type": "uint256"
        },
        {
          "indexed": false,
          "internalType": "string",
          "name": "imagenIPFS",
          "type": "string"
        }
      ],
      "name": "ProductoCreado",
      "type": "event"
    },
    {
      "anonymous": false,
      "inputs": [
        {
          "indexed": true,
          "internalType": "address",
          "name": "empresaAddress",
          "type": "address"
        },
        {
          "indexed": true,
          "internalType": "uint256",
          "name": "id",
          "type": "uint256"
        }
      ],
      "name": "ProductoDesactivado",
      "type": "event"
    },
    {
      "inputs": [
        {
          "internalType": "address",
          "name": "_empresaAddress",
          "type": "address"
        },
        {
          "internalType": "uint256",
          "name": "_id",
          "type": "uint256"
        },
        {
          "internalType": "string",
          "name": "_nombre",
          "type": "string"
        },
        {
          "internalType": "uint256",
          "name": "_precio",
          "type": "uint256"
        },
        {
          "internalType": "string",
          "name": "_imagenIPFS",
          "type": "string"
        }
      ],
      "name": "actualizarProducto",
      "outputs": [],
      "stateMutability": "nonpayable",
      "type": "function"
    },
    {
      "inputs": [
        {
          "internalType": "address",
          "name": "",
          "type": "address"
        }
      ],
      "name": "contadorProductos",
      "outputs": [
        {
          "internalType": "uint256",
          "name": "",
          "type": "uint256"
        }
      ],
      "stateMutability": "view",
      "type": "function"
    },
    {
      "inputs": [
        {
          "internalType": "address",
          "name": "_empresaAddress",
          "type": "address"
        },
        {
          "internalType": "string",
          "name": "_nombre",
          "type": "string"
        },
        {
          "internalType": "uint256",
          "name": "_precio",
          "type": "uint256"
        },
        {
          "internalType": "string",
          "name": "_imagenIPFS",
          "type": "string"
        }
      ],
      "name": "crearProducto",
      "outputs": [],
      "stateMutability": "nonpayable",
      "type": "function"
    },
    {
      "inputs": [
        {
          "internalType": "address",
          "name": "_empresaAddress",
          "type": "address"
        },
        {
          "internalType": "uint256",
          "name": "_id",
          "type": "uint256"
        }
      ],
      "name": "desactivarProducto",
      "outputs": [],
      "stateMutability": "nonpayable",
      "type": "function"
    },
    {
      "inputs": [],
      "name": "empresaContract",
      "outputs": [
        {
          "internalType": "contract Empresa",
          "name": "",
          "type": "address"
        }
      ],
      "stateMutability": "view",
      "type": "function"
    },
    {
      "inputs": [
        {
          "internalType": "address",
          "name": "_empresaAddress",
          "type": "address"
        },
        {
          "internalType": "uint256",
          "name": "_id",
          "type": "uint256"
        }
      ],
      "name": "esProductoActivo",
      "outputs": [
        {
          "internalType": "bool",
          "name": "",
          "type": "bool"
        }
      ],
      "stateMutability": "view",
      "type": "function"
    },
    {
      "inputs": [
        {
          "internalType": "address",
          "name": "_empresaAddress",
          "type": "address"
        },
        {
          "internalType": "uint256",
          "name": "_id",
          "type": "uint256"
        }
      ],
      "name": "obtenerProducto",
      "outputs": [
        {
          "components": [
            {
              "internalType": "address",
              "name": "empresaAddress",
              "type": "address"
            },
            {
              "internalType": "uint256",
              "name": "id",
              "type": "uint256"
            },
            {
              "internalType": "string",
              "name": "nombre",
              "type": "string"
            },
            {
              "internalType": "uint256",
              "name": "precio",
              "type": "uint256"
            },
            {
              "internalType": "string",
              "name": "imagenIPFS",
              "type": "string"
            },
            {
              "internalType": "bool",
              "name": "activo",
              "type": "bool"
            },
            {
              "internalType": "uint256",
              "name": "fechaCreacion",
              "type": "uint256"
            }
          ],
          "internalType": "struct Producto.ProductoData",
          "name": "",
          "type": "tuple"
        }
      ],
      "stateMutability": "view",
      "type": "function"
    },
    {
      "inputs": [
        {
          "internalType": "address",
          "name": "_empresaAddress",
          "type": "address"
        }
      ],
      "name": "obtenerProductosPorEmpresa",
      "outputs": [
        {
          "components": [
            {
              "internalType": "address",
              "name": "empresaAddress",
              "type": "address"
            },
            {
              "internalType": "uint256",
              "name": "id",
              "type": "uint256"
            },
            {
              "internalType": "string",
              "name": "nombre",
              "type": "string"
            },
            {
              "internalType": "uint256",
              "name": "precio",
              "type": "uint256"
            },
            {
              "internalType": "string",
              "name": "imagenIPFS",
              "type": "string"
            },
            {
              "internalType": "bool",
              "name": "activo",
              "type": "bool"
            },
            {
              "internalType": "uint256",
              "name": "fechaCreacion",
              "type": "uint256"
            }
          ],
          "internalType": "struct Producto.ProductoData[]",
          "name": "",
          "type": "tuple[]"
        }
      ],
      "stateMutability": "view",
      "type": "function"
    },
    {
      "inputs": [
        {
          "internalType": "address",
          "name": "_empresaAddress",
          "type": "address"
        }
      ],
      "name": "obtenerTotalProductosPorEmpresa",
      "outputs": [
        {
          "internalType": "uint256",
          "name": "",
          "type": "uint256"
        }
      ],
      "stateMutability": "view",
      "type": "function"
    },
    {
      "inputs": [],
      "name": "owner",
      "outputs": [
        {
          "internalType": "address",
          "name": "",
          "type": "address"
        }
      ],
      "stateMutability": "view",
      "type": "function"
    },
    {
      "inputs": [
        {
          "internalType": "address",
          "name": "",
          "type": "address"
        },
        {
          "internalType": "uint256",
          "name": "",
          "type": "uint256"
        }
      ],
      "name": "productos",
      "outputs": [
        {
          "internalType": "address",
          "name": "empresaAddress",
          "type": "address"
        },
        {
          "internalType": "uint256",
          "name": "id",
          "type": "uint256"
        },
        {
          "internalType": "string",
          "name": "nombre",
          "type": "string"
        },
        {
          "internalType": "uint256",
          "name": "precio",
          "type": "uint256"
        },
        {
          "internalType": "string",
          "name": "imagenIPFS",
          "type": "string"
        },
        {
          "internalType": "bool",
          "name": "activo",
          "type": "bool"
        },
        {
          "internalType": "uint256",
          "name": "fechaCreacion",
          "type": "uint256"
        }
      ],
      "stateMutability": "view",
      "type": "function"
    },
    {
      "inputs": [
        {
          "internalType": "address",
          "name": "",
          "type": "address"
        },
        {
          "internalType": "uint256",
          "name": "",
          "type": "uint256"
        }
      ],
      "name": "productosPorEmpresa",
      "outputs": [
        {
          "internalType": "uint256",
          "name": "",
          "type": "uint256"
        }
      ],
      "stateMutability": "view",
      "type": "function"
    },
    {
      "inputs": [],
      "name": "renounceOwnership",
      "outputs": [],
      "stateMutability": "nonpayable",
      "type": "function"
    },
    {
      "inputs": [
        {
          "internalType": "address",
          "name": "newOwner",
          "type": "address"
        }
      ],
      "name": "transferOwnership",
      "outputs": [],
      "stateMutability": "nonpayable",
      "type": "function"
    }
  ],
  "bytecode": "0x608060405234801561001057600080fd5b50604051620018a3380380620018a3833981016040819052610031916100d6565b338061005757604051631e4fbdf760e01b81526000600482015260240160405180910390fd5b61006081610086565b50600480546001600160a01b0319166001600160a01b0392909216919091179055610106565b600080546001600160a01b038381166001600160a01b0319831681178455604051919092169283917f8be0079c531659141344cd1fd0a4f28419497f9722a3daafe3b4186f6b6457e09190a35050565b6000602082840312156100e857600080fd5b81516001600160a01b03811681146100ff57600080fd5b9392505050565b61178d80620001166000396000f3fe608060405234801561001057600080fd5b50600436106100ea5760003560e01c8063876a404f1161008c578063bb763c5e11610066578063bb763c5e1461020f578063bcc44d7f1461022f578063d5890dda14610242578063f2fde38b1461026257600080fd5b8063876a404f146101b45780638da5cb5b146101c757806398c6e36e146101ec57600080fd5b80632a8c3fd7116100c85780632a8c3fd71461015d5780636b3f7f61146101865780636cc8f09614610199578063715018a6146101ac57600080fd5b80631bf26e9b146100ef57806327e46553146101045780632a58214214610137575b600080fd5b6101026100fd3660046111fa565b610275565b005b610124610112366004611278565b60036020526000908152604090205481565b6040519081526020015b60405180910390f35b61014a61014536600461129a565b61057b565b60405161012e979695949392919061130a565b61012461016b366004611278565b6001600160a01b031660009081526003602052604090205490565b61010261019436600461129a565b6106df565b6101246101a736600461129a565b610787565b6101026107b8565b6101026101c2366004611360565b6107cc565b6000546001600160a01b03165b6040516001600160a01b03909116815260200161012e565b6101ff6101fa36600461129a565b610a42565b604051901515815260200161012e565b61022261021d36600461129a565b610a73565b60405161012e919061145f565b6004546101d4906001600160a01b031681565b610255610250366004611278565b610c50565b60405161012e9190611472565b610102610270366004611278565b611038565b61027d611076565b60048054604051632de295fd60e11b81526001600160a01b0380881693820193909352869290911690635bc52bfa90602401602060405180830381865afa1580156102cc573d6000803e3d6000fd5b505050506040513d601f19601f820116820180604052508101906102f091906114d4565b6103155760405162461bcd60e51b815260040161030c906114f6565b60405180910390fd5b60008451116103665760405162461bcd60e51b815260206004820152601e60248201527f456c206e6f6d627265206e6f20707565646520657374617220766163696f0000604482015260640161030c565b600083116103b65760405162461bcd60e51b815260206004820152601f60248201527f456c2070726563696f206465626520736572206d61796f722061206365726f00604482015260640161030c565b60008251116104075760405162461bcd60e51b815260206004820152601b60248201527f4c6120696d6167656e2049504653206573207265717565726964610000000000604482015260640161030c565b6001600160a01b03851660009081526003602052604081205461042b906001611551565b6001600160a01b038781166000818152600360209081526040808320869055805160e0810182528481528083018781528183018d8152606083018d9052608083018c9052600160a084018190524260c085015296865286855283862089875290945291909320835181546001600160a01b0319169616959095178555519284019290925590519293509160028201906104c490826115ed565b5060608201516003820155608082015160048201906104e390826115ed565b5060a082015160058201805460ff191691151591909117905560c0909101516006909101556001600160a01b038616600081815260026020908152604080832080546001810182559084529190922001839055518291907fed2d552b1de5fafb7f52db6f7373b43913b9cb4d5c3609ec3859c21002d546419061056b908990899089906116ad565b60405180910390a3505050505050565b600160208181526000938452604080852090915291835291208054918101546002820180546001600160a01b03909416939192916105b890611564565b80601f01602080910402602001604051908101604052809291908181526020018280546105e490611564565b80156106315780601f1061060657610100808354040283529160200191610631565b820191906000526020600020905b81548152906001019060200180831161061457829003601f168201915b50505050509080600301549080600401805461064c90611564565b80601f016020809104026020016040519081016040528092919081815260200182805461067890611564565b80156106c55780601f1061069a576101008083540402835291602001916106c5565b820191906000526020600020905b8154815290600101906020018083116106a857829003601f168201915b505050506005830154600690930154919260ff1691905087565b6106e7611076565b6001600160a01b038216600090815260016020908152604080832084845290915290206005015460ff1661072d5760405162461bcd60e51b815260040161030c906116e2565b6001600160a01b0382166000818152600160209081526040808320858452909152808220600501805460ff19169055518392917fdbe21f6169965970ab3071748a27cc699a04bd7c8b58abcd82a763102c76f53f91a35050565b600260205281600052604060002081815481106107a357600080fd5b90600052602060002001600091509150505481565b6107c0611076565b6107ca60006110a3565b565b6107d4611076565b60048054604051632de295fd60e11b81526001600160a01b0380891693820193909352879290911690635bc52bfa90602401602060405180830381865afa158015610823573d6000803e3d6000fd5b505050506040513d601f19601f8201168201806040525081019061084791906114d4565b6108635760405162461bcd60e51b815260040161030c906114f6565b6001600160a01b038616600090815260016020908152604080832088845290915290206005015460ff166108a95760405162461bcd60e51b815260040161030c906116e2565b60008451116108fa5760405162461bcd60e51b815260206004820152601e60248201527f456c206e6f6d627265206e6f20707565646520657374617220766163696f0000604482015260640161030c565b6000831161094a5760405162461bcd60e51b815260206004820152601f60248201527f456c2070726563696f206465626520736572206d61796f722061206365726f00604482015260640161030c565b600082511161099b5760405162461bcd60e51b815260206004820152601b60248201527f4c6120696d6167656e2049504653206573207265717565726964610000000000604482015260640161030c565b6001600160a01b038616600090815260016020908152604080832088845290915290206002016109cb85826115ed565b506001600160a01b0386166000908152600160209081526040808320888452909152902060038101849055600401610a0383826115ed565b5084866001600160a01b03167f759d2b0b669e15d3bcb1bf22ccf31397296eac0ca5759c492617d11641d55c7886868660405161056b939291906116ad565b6001600160a01b038216600090815260016020908152604080832084845290915290206005015460ff165b92915050565b610a7b6110f3565b6001600160a01b038316600090815260016020908152604080832085845290915290206005015460ff16610ac15760405162461bcd60e51b815260040161030c906116e2565b6001600160a01b038084166000908152600160208181526040808420878552825292839020835160e0810185528154909516855291820154908401526002810180549192840191610b1190611564565b80601f0160208091040260200160405190810160405280929190818152602001828054610b3d90611564565b8015610b8a5780601f10610b5f57610100808354040283529160200191610b8a565b820191906000526020600020905b815481529060010190602001808311610b6d57829003601f168201915b5050505050815260200160038201548152602001600482018054610bad90611564565b80601f0160208091040260200160405190810160405280929190818152602001828054610bd990611564565b8015610c265780601f10610bfb57610100808354040283529160200191610c26565b820191906000526020600020905b815481529060010190602001808311610c0957829003601f168201915b5050509183525050600582015460ff16151560208201526006909101546040909101529392505050565b6001600160a01b0381166000908152600260209081526040808320805482518185028101850190935280835260609493830182828015610caf57602002820191906000526020600020905b815481526020019060010190808311610c9b575b505050505090506000815167ffffffffffffffff811115610cd257610cd2611157565b604051908082528060200260200182016040528015610d0b57816020015b610cf86110f3565b815260200190600190039081610cf05790505b5090506000805b8351811015610f81576001600160a01b03861660009081526001602052604081208551909190869084908110610d4a57610d4a611728565b60209081029190910181015182528101919091526040016000206005015460ff1615610f6f576001600160a01b03861660009081526001602052604081208551909190869084908110610d9f57610d9f611728565b602002602001015181526020019081526020016000206040518060e00160405290816000820160009054906101000a90046001600160a01b03166001600160a01b03166001600160a01b0316815260200160018201548152602001600282018054610e0990611564565b80601f0160208091040260200160405190810160405280929190818152602001828054610e3590611564565b8015610e825780601f10610e5757610100808354040283529160200191610e82565b820191906000526020600020905b815481529060010190602001808311610e6557829003601f168201915b5050505050815260200160038201548152602001600482018054610ea590611564565b80601f0160208091040260200160405190810160405280929190818152602001828054610ed190611564565b8015610f1e5780601f10610ef357610100808354040283529160200191610f1e565b820191906000526020600020905b815481529060010190602001808311610f0157829003601f168201915b5050509183525050600582015460ff16151560208201526006909101546040909101528351849084908110610f5557610f55611728565b60200260200101819052508180610f6b9061173e565b9250505b80610f798161173e565b915050610d12565b5060008167ffffffffffffffff811115610f9d57610f9d611157565b604051908082528060200260200182016040528015610fd657816020015b610fc36110f3565b815260200190600190039081610fbb5790505b50905060005b8281101561102e57838181518110610ff657610ff6611728565b602002602001015182828151811061101057611010611728565b602002602001018190525080806110269061173e565b915050610fdc565b5095945050505050565b611040611076565b6001600160a01b03811661106a57604051631e4fbdf760e01b81526000600482015260240161030c565b611073816110a3565b50565b6000546001600160a01b031633146107ca5760405163118cdaa760e01b815233600482015260240161030c565b600080546001600160a01b038381166001600160a01b0319831681178455604051919092169283917f8be0079c531659141344cd1fd0a4f28419497f9722a3daafe3b4186f6b6457e09190a35050565b6040518060e0016040528060006001600160a01b0316815260200160008152602001606081526020016000815260200160608152602001600015158152602001600081525090565b80356001600160a01b038116811461115257600080fd5b919050565b634e487b7160e01b600052604160045260246000fd5b600082601f83011261117e57600080fd5b813567ffffffffffffffff8082111561119957611199611157565b604051601f8301601f19908116603f011681019082821181831017156111c1576111c1611157565b816040528381528660208588010111156111da57600080fd5b836020870160208301376000602085830101528094505050505092915050565b6000806000806080858703121561121057600080fd5b6112198561113b565b9350602085013567ffffffffffffffff8082111561123657600080fd5b6112428883890161116d565b945060408701359350606087013591508082111561125f57600080fd5b5061126c8782880161116d565b91505092959194509250565b60006020828403121561128a57600080fd5b6112938261113b565b9392505050565b600080604083850312156112ad57600080fd5b6112b68361113b565b946020939093013593505050565b6000815180845260005b818110156112ea576020818501810151868301820152016112ce565b506000602082860101526020601f19601f83011685010191505092915050565b60018060a01b038816815286602082015260e06040820152600061133160e08301886112c4565b866060840152828103608084015261134981876112c4565b94151560a0840152505060c0015295945050505050565b600080600080600060a0868803121561137857600080fd5b6113818661113b565b945060208601359350604086013567ffffffffffffffff808211156113a557600080fd5b6113b189838a0161116d565b94506060880135935060808801359150808211156113ce57600080fd5b506113db8882890161116d565b9150509295509295909350565b60018060a01b038151168252602081015160208301526000604082015160e0604085015261141960e08501826112c4565b9050606083015160608501526080830151848203608086015261143c82826112c4565b91505060a0830151151560a085015260c083015160c08501528091505092915050565b60208152600061129360208301846113e8565b6000602080830181845280855180835260408601915060408160051b870101925083870160005b828110156114c757603f198886030184526114b58583516113e8565b94509285019290850190600101611499565b5092979650505050505050565b6000602082840312156114e657600080fd5b8151801515811461129357600080fd5b60208082526025908201527f4c6120656d7072657361206e6f20657869737465206f206e6f20657374612061604082015264637469766160d81b606082015260800190565b634e487b7160e01b600052601160045260246000fd5b80820180821115610a6d57610a6d61153b565b600181811c9082168061157857607f821691505b60208210810361159857634e487b7160e01b600052602260045260246000fd5b50919050565b601f8211156115e857600081815260208120601f850160051c810160208610156115c55750805b601f850160051c820191505b818110156115e4578281556001016115d1565b5050505b505050565b815167ffffffffffffffff81111561160757611607611157565b61161b816116158454611564565b8461159e565b602080601f83116001811461165057600084156116385750858301515b600019600386901b1c1916600185901b1785556115e4565b600085815260208120601f198616915b8281101561167f57888601518255948401946001909101908401611660565b508582101561169d5787850151600019600388901b60f8161c191681555b5050505050600190811b01905550565b6060815260006116c060608301866112c4565b84602084015282810360408401526116d881856112c4565b9695505050505050565b60208082526026908201527f456c2070726f647563746f206e6f20657869737465206f206e6f20657374612060408201526561637469766f60d01b606082015260800190565b634e487b7160e01b600052603260045260246000fd5b6000600182016117505761175061153b565b506001019056fea2646970667358221220473a705c9909bd5d6208bc11657c7a1901d5c8a6ee8a40068c4b6041f5bb771a64736f6c63430008140033",
  "linkReferences": {},
  "deployedLinkReferences": {}
}