{
  "_format": "hh-sol-artifact-1",
  "contractName": "Factura",
  "sourceName": "contracts/Factura.sol",
  "abi": [
    {
      "inputs": [
        {
          "internalType": "address",
          "name": "_empresaContract",
          "type": "address"
        }
      ],
      "stateMutability": "nonpayable",
      "type": "constructor"
    },
    {
      "inputs": [
        {
          "internalType": "address",
          "name": "owner",
          "type": "address"
        }
      ],
      "name": "OwnableInvalidOwner",
      "type": "error"
    },
    {
      "inputs": [
        {
          "internalType": "address",
          "name": "account",
          "type": "address"
        }
      ],
      "name": "OwnableUnauthorizedAccount",
      "type": "error"
    },
    {
      "anonymous": false,
      "inputs": [
        {
          "indexed": true,
          "internalType": "address",
          "name": "empresaAddress",
          "type": "address"
        },
        {
          "indexed": true,
          "internalType": "uint256",
          "name": "numero",
          "type": "uint256"
        },
        {
          "indexed": true,
          "internalType": "address",
          "name": "clienteAddress",
          "type": "address"
        },
        {
          "indexed": false,
          "internalType": "uint256",
          "name": "importeTotal",
          "type": "uint256"
        }
      ],
      "name": "FacturaCreada",
      "type": "event"
    },
    {
      "anonymous": false,
      "inputs": [
        {
          "indexed": true,
          "internalType": "address",
          "name": "empresaAddress",
          "type": "address"
        },
        {
          "indexed": true,
          "internalType": "uint256",
          "name": "numero",
          "type": "uint256"
        },
        {
          "indexed": false,
          "internalType": "uint256",
          "name": "importeTotal",
          "type": "uint256"
        }
      ],
      "name": "FacturaPagada",
      "type": "event"
    },
    {
      "anonymous": false,
      "inputs": [
        {
          "indexed": true,
          "internalType": "address",
          "name": "previousOwner",
          "type": "address"
        },
        {
          "indexed": true,
          "internalType": "address",
          "name": "newOwner",
          "type": "address"
        }
      ],
      "name": "OwnershipTransferred",
      "type": "event"
    },
    {
      "inputs": [
        {
          "internalType": "address",
          "name": "",
          "type": "address"
        }
      ],
      "name": "contadorFacturas",
      "outputs": [
        {
          "internalType": "uint256",
          "name": "",
          "type": "uint256"
        }
      ],
      "stateMutability": "view",
      "type": "function"
    },
    {
      "inputs": [
        {
          "internalType": "address",
          "name": "_empresaAddress",
          "type": "address"
        },
        {
          "internalType": "address",
          "name": "_clienteAddress",
          "type": "address"
        },
        {
          "internalType": "uint256",
          "name": "_importeTotal",
          "type": "uint256"
        }
      ],
      "name": "crearFactura",
      "outputs": [
        {
          "internalType": "uint256",
          "name": "",
          "type": "uint256"
        }
      ],
      "stateMutability": "nonpayable",
      "type": "function"
    },
    {
      "inputs": [],
      "name": "empresaContract",
      "outputs": [
        {
          "internalType": "contract Empresa",
          "name": "",
          "type": "address"
        }
      ],
      "stateMutability": "view",
      "type": "function"
    },
    {
      "inputs": [
        {
          "internalType": "address",
          "name": "_empresaAddress",
          "type": "address"
        },
        {
          "internalType": "uint256",
          "name": "_numero",
          "type": "uint256"
        }
      ],
      "name": "esFacturaPagada",
      "outputs": [
        {
          "internalType": "bool",
          "name": "",
          "type": "bool"
        }
      ],
      "stateMutability": "view",
      "type": "function"
    },
    {
      "inputs": [
        {
          "internalType": "address",
          "name": "",
          "type": "address"
        },
        {
          "internalType": "uint256",
          "name": "",
          "type": "uint256"
        }
      ],
      "name": "facturas",
      "outputs": [
        {
          "internalType": "address",
          "name": "empresaAddress",
          "type": "address"
        },
        {
          "internalType": "uint256",
          "name": "numero",
          "type": "uint256"
        },
        {
          "internalType": "uint256",
          "name": "fecha",
          "type": "uint256"
        },
        {
          "internalType": "address",
          "name": "clienteAddress",
          "type": "address"
        },
        {
          "internalType": "uint256",
          "name": "importeTotal",
          "type": "uint256"
        },
        {
          "internalType": "bool",
          "name": "pagada",
          "type": "bool"
        },
        {
          "internalType": "uint256",
          "name": "fechaCreacion",
          "type": "uint256"
        }
      ],
      "stateMutability": "view",
      "type": "function"
    },
    {
      "inputs": [
        {
          "internalType": "address",
          "name": "",
          "type": "address"
        },
        {
          "internalType": "uint256",
          "name": "",
          "type": "uint256"
        }
      ],
      "name": "facturasPorEmpresa",
      "outputs": [
        {
          "internalType": "uint256",
          "name": "",
          "type": "uint256"
        }
      ],
      "stateMutability": "view",
      "type": "function"
    },
    {
      "inputs": [
        {
          "internalType": "address",
          "name": "_empresaAddress",
          "type": "address"
        },
        {
          "internalType": "uint256",
          "name": "_numero",
          "type": "uint256"
        }
      ],
      "name": "marcarFacturaComoPagada",
      "outputs": [],
      "stateMutability": "nonpayable",
      "type": "function"
    },
    {
      "inputs": [
        {
          "internalType": "address",
          "name": "_empresaAddress",
          "type": "address"
        },
        {
          "internalType": "uint256",
          "name": "_numero",
          "type": "uint256"
        }
      ],
      "name": "obtenerFactura",
      "outputs": [
        {
          "components": [
            {
              "internalType": "address",
              "name": "empresaAddress",
              "type": "address"
            },
            {
              "internalType": "uint256",
              "name": "numero",
              "type": "uint256"
            },
            {
              "internalType": "uint256",
              "name": "fecha",
              "type": "uint256"
            },
            {
              "internalType": "address",
              "name": "clienteAddress",
              "type": "address"
            },
            {
              "internalType": "uint256",
              "name": "importeTotal",
              "type": "uint256"
            },
            {
              "internalType": "bool",
              "name": "pagada",
              "type": "bool"
            },
            {
              "internalType": "uint256",
              "name": "fechaCreacion",
              "type": "uint256"
            }
          ],
          "internalType": "struct Factura.FacturaData",
          "name": "",
          "type": "tuple"
        }
      ],
      "stateMutability": "view",
      "type": "function"
    },
    {
      "inputs": [
        {
          "internalType": "address",
          "name": "_empresaAddress",
          "type": "address"
        },
        {
          "internalType": "address",
          "name": "_clienteAddress",
          "type": "address"
        }
      ],
      "name": "obtenerFacturasPorCliente",
      "outputs": [
        {
          "components": [
            {
              "internalType": "address",
              "name": "empresaAddress",
              "type": "address"
            },
            {
              "internalType": "uint256",
              "name": "numero",
              "type": "uint256"
            },
            {
              "internalType": "uint256",
              "name": "fecha",
              "type": "uint256"
            },
            {
              "internalType": "address",
              "name": "clienteAddress",
              "type": "address"
            },
            {
              "internalType": "uint256",
              "name": "importeTotal",
              "type": "uint256"
            },
            {
              "internalType": "bool",
              "name": "pagada",
              "type": "bool"
            },
            {
              "internalType": "uint256",
              "name": "fechaCreacion",
              "type": "uint256"
            }
          ],
          "internalType": "struct Factura.FacturaData[]",
          "name": "",
          "type": "tuple[]"
        }
      ],
      "stateMutability": "view",
      "type": "function"
    },
    {
      "inputs": [
        {
          "internalType": "address",
          "name": "_empresaAddress",
          "type": "address"
        }
      ],
      "name": "obtenerFacturasPorEmpresa",
      "outputs": [
        {
          "components": [
            {
              "internalType": "address",
              "name": "empresaAddress",
              "type": "address"
            },
            {
              "internalType": "uint256",
              "name": "numero",
              "type": "uint256"
            },
            {
              "internalType": "uint256",
              "name": "fecha",
              "type": "uint256"
            },
            {
              "internalType": "address",
              "name": "clienteAddress",
              "type": "address"
            },
            {
              "internalType": "uint256",
              "name": "importeTotal",
              "type": "uint256"
            },
            {
              "internalType": "bool",
              "name": "pagada",
              "type": "bool"
            },
            {
              "internalType": "uint256",
              "name": "fechaCreacion",
              "type": "uint256"
            }
          ],
          "internalType": "struct Factura.FacturaData[]",
          "name": "",
          "type": "tuple[]"
        }
      ],
      "stateMutability": "view",
      "type": "function"
    },
    {
      "inputs": [
        {
          "internalType": "address",
          "name": "_empresaAddress",
          "type": "address"
        }
      ],
      "name": "obtenerTotalFacturasPagadas",
      "outputs": [
        {
          "internalType": "uint256",
          "name": "",
          "type": "uint256"
        }
      ],
      "stateMutability": "view",
      "type": "function"
    },
    {
      "inputs": [
        {
          "internalType": "address",
          "name": "_empresaAddress",
          "type": "address"
        }
      ],
      "name": "obtenerTotalFacturasPorEmpresa",
      "outputs": [
        {
          "internalType": "uint256",
          "name": "",
          "type": "uint256"
        }
      ],
      "stateMutability": "view",
      "type": "function"
    },
    {
      "inputs": [],
      "name": "owner",
      "outputs": [
        {
          "internalType": "address",
          "name": "",
          "type": "address"
        }
      ],
      "stateMutability": "view",
      "type": "function"
    },
    {
      "inputs": [],
      "name": "renounceOwnership",
      "outputs": [],
      "stateMutability": "nonpayable",
      "type": "function"
    },
    {
      "inputs": [
        {
          "internalType": "address",
          "name": "newOwner",
          "type": "address"
        }
      ],
      "name": "transferOwnership",
      "outputs": [],
      "stateMutability": "nonpayable",
      "type": "function"
    }
  ],
  "bytecode": "0x608060405234801561001057600080fd5b5060405161137938038061137983398101604081905261002f916100d4565b338061005557604051631e4fbdf760e01b81526000600482015260240160405180910390fd5b61005e81610084565b50600480546001600160a01b0319166001600160a01b0392909216919091179055610104565b600080546001600160a01b038381166001600160a01b0319831681178455604051919092169283917f8be0079c531659141344cd1fd0a4f28419497f9722a3daafe3b4186f6b6457e09190a35050565b6000602082840312156100e657600080fd5b81516001600160a01b03811681146100fd57600080fd5b9392505050565b611266806101136000396000f3fe608060405234801561001057600080fd5b50600436106100f55760003560e01c80638da5cb5b11610097578063ccfafe2111610066578063ccfafe21146102c3578063e7fe9c24146102d6578063f2fde38b146102e9578063f7716fa1146102fc57600080fd5b80638da5cb5b14610258578063932ea3bd1461027d57806397dade3314610290578063bcc44d7f146102b057600080fd5b80635b97c222116100d35780635b97c222146101e3578063715018a6146101f65780637558a695146101fe57806383b62e161461023557600080fd5b80630d766ae6146100fa578063237bf798146101235780633da1148114610138575b600080fd5b61010d610108366004611009565b61031c565b60405161011a919061108e565b60405180910390f35b6101366101313660046110dc565b6105ec565b005b61019e6101463660046110dc565b6001602081815260009384526040808520909152918352912080549181015460028201546003830154600484015460058501546006909501546001600160a01b03968716969495939490921692909160ff9091169087565b604080516001600160a01b0398891681526020810197909752860194909452949091166060840152608083015291151560a082015260c081019190915260e00161011a565b61010d6101f1366004611106565b610727565b6101366108d7565b61022761020c366004611106565b6001600160a01b031660009081526003602052604090205490565b60405190815260200161011a565b6102486102433660046110dc565b6108eb565b604051901515815260200161011a565b6000546001600160a01b03165b6040516001600160a01b03909116815260200161011a565b61022761028b3660046110dc565b61095e565b6102a361029e3660046110dc565b61098f565b60405161011a9190611128565b600454610265906001600160a01b031681565b6102276102d1366004611136565b610a59565b6102276102e4366004611106565b610dfb565b6101366102f7366004611106565b610ee1565b61022761030a366004611106565b60036020526000908152604090205481565b6001600160a01b038216600090815260026020908152604080832080548251818502810185019093528083526060949383018282801561037b57602002820191906000526020600020905b815481526020019060010190808311610367575b505050505090506000805b825181101561041e57846001600160a01b031660016000886001600160a01b03166001600160a01b0316815260200190815260200160002060008584815181106103d2576103d2611172565b6020908102919091018101518252810191909152604001600020600301546001600160a01b03160361040c57816104088161119e565b9250505b806104168161119e565b915050610386565b5060008167ffffffffffffffff81111561043a5761043a6111b7565b60405190808252806020026020018201604052801561047357816020015b610460610f9c565b8152602001906001900390816104585790505b5090506000805b84518110156105de57866001600160a01b0316600160008a6001600160a01b03166001600160a01b0316815260200190815260200160002060008784815181106104c6576104c6611172565b6020908102919091018101518252810191909152604001600020600301546001600160a01b0316036105cc576001600160a01b0388166000908152600160205260408120865190919087908490811061052157610521611172565b6020908102919091018101518252818101929092526040908101600020815160e08101835281546001600160a01b0390811682526001830154948201949094526002820154928101929092526003810154909216606082015260048201546080820152600582015460ff16151560a082015260069091015460c082015283518490849081106105b2576105b2611172565b602002602001018190525081806105c89061119e565b9250505b806105d68161119e565b91505061047a565b509093505050505b92915050565b6105f4610f1f565b6001600160a01b0382811660009081526001602090815260408083208584529091529020541661063f5760405162461bcd60e51b8152600401610636906111cd565b60405180910390fd5b6001600160a01b038216600090815260016020908152604080832084845290915290206005015460ff16156106b65760405162461bcd60e51b815260206004820152601960248201527f4c612066616374757261207961206573746120706167616461000000000000006044820152606401610636565b6001600160a01b038216600081815260016020818152604080842086855282529283902060058101805460ff191690931790925560049091015491519182528392917faf1d6d19f12b82bfbe4a744a7e601401b3f282c5dfde2d622d9733c667e29a47910160405180910390a35050565b6001600160a01b038116600090815260026020908152604080832080548251818502810185019093528083526060949383018282801561078657602002820191906000526020600020905b815481526020019060010190808311610772575b505050505090506000815167ffffffffffffffff8111156107a9576107a96111b7565b6040519080825280602002602001820160405280156107e257816020015b6107cf610f9c565b8152602001906001900390816107c75790505b50905060005b82518110156108cf576001600160a01b0385166000908152600160205260408120845190919085908490811061082057610820611172565b6020908102919091018101518252818101929092526040908101600020815160e08101835281546001600160a01b0390811682526001830154948201949094526002820154928101929092526003810154909216606082015260048201546080820152600582015460ff16151560a082015260069091015460c082015282518390839081106108b1576108b1611172565b602002602001018190525080806108c79061119e565b9150506107e8565b509392505050565b6108df610f1f565b6108e96000610f4c565b565b6001600160a01b03828116600090815260016020908152604080832085845290915281205490911661092f5760405162461bcd60e51b8152600401610636906111cd565b506001600160a01b03919091166000908152600160209081526040808320938352929052206005015460ff1690565b6002602052816000526040600020818154811061097a57600080fd5b90600052602060002001600091509150505481565b610997610f9c565b6001600160a01b038381166000908152600160209081526040808320868452909152902054166109d95760405162461bcd60e51b8152600401610636906111cd565b506001600160a01b038083166000908152600160208181526040808420868552825292839020835160e08101855281548616815292810154918301919091526002810154928201929092526003820154909216606083015260048101546080830152600581015460ff16151560a08301526006015460c082015292915050565b6000610a63610f1f565b60048054604051632de295fd60e11b81526001600160a01b0380881693820193909352869290911690635bc52bfa90602401602060405180830381865afa158015610ab2573d6000803e3d6000fd5b505050506040513d601f19601f82011682018060405250810190610ad691906111fb565b610b305760405162461bcd60e51b815260206004820152602560248201527f4c6120656d7072657361206e6f20657869737465206f206e6f20657374612061604482015264637469766160d81b6064820152608401610636565b6001600160a01b038416610b955760405162461bcd60e51b815260206004820152602660248201527f446972656363696f6e20646520636c69656e7465206e6f20707565646520736560448201526572206365726f60d01b6064820152608401610636565b60008311610be55760405162461bcd60e51b815260206004820181905260248201527f456c20696d706f727465206465626520736572206d61796f722061206365726f6044820152606401610636565b6001600160a01b038516600090815260036020526040812054610c0990600161121d565b90508060036000886001600160a01b03166001600160a01b03168152602001908152602001600020819055506040518060e00160405280876001600160a01b03168152602001828152602001428152602001866001600160a01b031681526020018581526020016000151581526020014281525060016000886001600160a01b03166001600160a01b03168152602001908152602001600020600083815260200190815260200160002060008201518160000160006101000a8154816001600160a01b0302191690836001600160a01b03160217905550602082015181600101556040820151816002015560608201518160030160006101000a8154816001600160a01b0302191690836001600160a01b031602179055506080820151816004015560a08201518160050160006101000a81548160ff02191690831515021790555060c0820151816006015590505060026000876001600160a01b03166001600160a01b03168152602001908152602001600020819080600181540180825580915050600190039060005260206000200160009091909190915055846001600160a01b031681876001600160a01b03167f49e244176060c8e5f36c2d40ab20e24fb4be171e4629e3a754f901fb35df0ea287604051610dea91815260200190565b60405180910390a495945050505050565b6001600160a01b038116600090815260026020908152604080832080548251818502810185019093528083528493830182828015610e5857602002820191906000526020600020905b815481526020019060010190808311610e44575b505050505090506000805b82518110156108cf576001600160a01b03851660009081526001602052604081208451909190859084908110610e9b57610e9b611172565b60209081029190910181015182528101919091526040016000206005015460ff1615610ecf5781610ecb8161119e565b9250505b80610ed98161119e565b915050610e63565b610ee9610f1f565b6001600160a01b038116610f1357604051631e4fbdf760e01b815260006004820152602401610636565b610f1c81610f4c565b50565b6000546001600160a01b031633146108e95760405163118cdaa760e01b8152336004820152602401610636565b600080546001600160a01b038381166001600160a01b0319831681178455604051919092169283917f8be0079c531659141344cd1fd0a4f28419497f9722a3daafe3b4186f6b6457e09190a35050565b6040518060e0016040528060006001600160a01b03168152602001600081526020016000815260200160006001600160a01b0316815260200160008152602001600015158152602001600081525090565b80356001600160a01b038116811461100457600080fd5b919050565b6000806040838503121561101c57600080fd5b61102583610fed565b915061103360208401610fed565b90509250929050565b60018060a01b038082511683526020820151602084015260408201516040840152806060830151166060840152506080810151608083015260a0810151151560a083015260c081015160c08301525050565b6020808252825182820181905260009190848201906040850190845b818110156110d0576110bd83855161103c565b9284019260e092909201916001016110aa565b50909695505050505050565b600080604083850312156110ef57600080fd5b6110f883610fed565b946020939093013593505050565b60006020828403121561111857600080fd5b61112182610fed565b9392505050565b60e081016105e6828461103c565b60008060006060848603121561114b57600080fd5b61115484610fed565b925061116260208501610fed565b9150604084013590509250925092565b634e487b7160e01b600052603260045260246000fd5b634e487b7160e01b600052601160045260246000fd5b6000600182016111b0576111b0611188565b5060010190565b634e487b7160e01b600052604160045260246000fd5b6020808252601490820152734c612066616374757261206e6f2065786973746560601b604082015260600190565b60006020828403121561120d57600080fd5b8151801515811461112157600080fd5b808201808211156105e6576105e661118856fea2646970667358221220e9b688a4b853e8dd98d1d7e9c0eb669c1df33dd0515ef07566aaa88d7e2a8f4a64736f6c63430008140033",
  "linkReferences": {},
  "deployedLinkReferences": {}
}