{"contracts/Producto.sol":{"Producto":{"abi":[{"inputs":[{"internalType":"address","name":"_empresaContract","type":"address"}],"stateMutability":"nonpayable","type":"constructor"},{"inputs":[{"internalType":"address","name":"owner","type":"address"}],"name":"OwnableInvalidOwner","type":"error"},{"inputs":[{"internalType":"address","name":"account","type":"address"}],"name":"OwnableUnauthorizedAccount","type":"error"},{"anonymous":false,"inputs":[{"indexed":true,"internalType":"address","name":"previousOwner","type":"address"},{"indexed":true,"internalType":"address","name":"newOwner","type":"address"}],"name":"OwnershipTransferred","type":"event"},{"anonymous":false,"inputs":[{"indexed":true,"internalType":"address","name":"empresaAddress","type":"address"},{"indexed":true,"internalType":"uint256","name":"id","type":"uint256"},{"indexed":false,"internalType":"string","name":"nombre","type":"string"},{"indexed":false,"internalType":"uint256","name":"precio","type":"uint256"},{"indexed":false,"internalType":"string","name":"imagenIPFS","type":"string"}],"name":"ProductoActualizado","type":"event"},{"anonymous":false,"inputs":[{"indexed":true,"internalType":"address","name":"empresaAddress","type":"address"},{"indexed":true,"internalType":"uint256","name":"id","type":"uint256"},{"indexed":false,"internalType":"string","name":"nombre","type":"string"},{"indexed":false,"internalType":"uint256","name":"precio","type":"uint256"},{"indexed":false,"internalType":"string","name":"imagenIPFS","type":"string"}],"name":"ProductoCreado","type":"event"},{"anonymous":false,"inputs":[{"indexed":true,"internalType":"address","name":"empresaAddress","type":"address"},{"indexed":true,"internalType":"uint256","name":"id","type":"uint256"}],"name":"ProductoDesactivado","type":"event"},{"inputs":[{"internalType":"address","name":"_empresaAddress","type":"address"},{"internalType":"uint256","name":"_id","type":"uint256"},{"internalType":"string","name":"_nombre","type":"string"},{"internalType":"uint256","name":"_precio","type":"uint256"},{"internalType":"string","name":"_imagenIPFS","type":"string"}],"name":"actualizarProducto","outputs":[],"stateMutability":"nonpayable","type":"function"},{"inputs":[{"internalType":"address","name":"","type":"address"}],"name":"contadorProductos","outputs":[{"internalType":"uint256","name":"","type":"uint256"}],"stateMutability":"view","type":"function"},{"inputs":[{"internalType":"address","name":"_empresaAddress","type":"address"},{"internalType":"string","name":"_nombre","type":"string"},{"internalType":"uint256","name":"_precio","type":"uint256"},{"internalType":"string","name":"_imagenIPFS","type":"string"}],"name":"crearProducto","outputs":[],"stateMutability":"nonpayable","type":"function"},{"inputs":[{"internalType":"address","name":"_empresaAddress","type":"address"},{"internalType":"uint256","name":"_id","type":"uint256"}],"name":"desactivarProducto","outputs":[],"stateMutability":"nonpayable","type":"function"},{"inputs":[],"name":"empresaContract","outputs":[{"internalType":"contract Empresa","name":"","type":"address"}],"stateMutability":"view","type":"function"},{"inputs":[{"internalType":"address","name":"_empresaAddress","type":"address"},{"internalType":"uint256","name":"_id","type":"uint256"}],"name":"esProductoActivo","outputs":[{"internalType":"bool","name":"","type":"bool"}],"stateMutability":"view","type":"function"},{"inputs":[{"internalType":"address","name":"_empresaAddress","type":"address"},{"internalType":"uint256","name":"_id","type":"uint256"}],"name":"obtenerProducto","outputs":[{"components":[{"internalType":"address","name":"empresaAddress","type":"address"},{"internalType":"uint256","name":"id","type":"uint256"},{"internalType":"string","name":"nombre","type":"string"},{"internalType":"uint256","name":"precio","type":"uint256"},{"internalType":"string","name":"imagenIPFS","type":"string"},{"internalType":"bool","name":"activo","type":"bool"},{"internalType":"uint256","name":"fechaCreacion","type":"uint256"}],"internalType":"struct Producto.ProductoData","name":"","type":"tuple"}],"stateMutability":"view","type":"function"},{"inputs":[{"internalType":"address","name":"_empresaAddress","type":"address"}],"name":"obtenerProductosPorEmpresa","outputs":[{"components":[{"internalType":"address","name":"empresaAddress","type":"address"},{"internalType":"uint256","name":"id","type":"uint256"},{"internalType":"string","name":"nombre","type":"string"},{"internalType":"uint256","name":"precio","type":"uint256"},{"internalType":"string","name":"imagenIPFS","type":"string"},{"internalType":"bool","name":"activo","type":"bool"},{"internalType":"uint256","name":"fechaCreacion","type":"uint256"}],"internalType":"struct Producto.ProductoData[]","name":"","type":"tuple[]"}],"stateMutability":"view","type":"function"},{"inputs":[{"internalType":"address","name":"_empresaAddress","type":"address"}],"name":"obtenerTotalProductosPorEmpresa","outputs":[{"internalType":"uint256","name":"","type":"uint256"}],"stateMutability":"view","type":"function"},{"inputs":[],"name":"owner","outputs":[{"internalType":"address","name":"","type":"address"}],"stateMutability":"view","type":"function"},{"inputs":[{"internalType":"address","name":"","type":"address"},{"internalType":"uint256","name":"","type":"uint256"}],"name":"productos","outputs":[{"internalType":"address","name":"empresaAddress","type":"address"},{"internalType":"uint256","name":"id","type":"uint256"},{"internalType":"string","name":"nombre","type":"string"},{"internalType":"uint256","name":"precio","type":"uint256"},{"internalType":"string","name":"imagenIPFS","type":"string"},{"internalType":"bool","name":"activo","type":"bool"},{"internalType":"uint256","name":"fechaCreacion","type":"uint256"}],"stateMutability":"view","type":"function"},{"inputs":[{"internalType":"address","name":"","type":"address"},{"internalType":"uint256","name":"","type":"uint256"}],"name":"productosPorEmpresa","outputs":[{"internalType":"uint256","name":"","type":"uint256"}],"stateMutability":"view","type":"function"},{"inputs":[],"name":"renounceOwnership","outputs":[],"stateMutability":"nonpayable","type":"function"},{"inputs":[{"internalType":"address","name":"newOwner","type":"address"}],"name":"transferOwnership","outputs":[],"stateMutability":"nonpayable","type":"function"}],"evm":{"bytecode":{"linkReferences":{},"object":"608060405234801561001057600080fd5b50604051620018a3380380620018a3833981016040819052610031916100d6565b338061005757604051631e4fbdf760e01b81526000600482015260240160405180910390fd5b61006081610086565b50600480546001600160a01b0319166001600160a01b0392909216919091179055610106565b600080546001600160a01b038381166001600160a01b0319831681178455604051919092169283917f8be0079c531659141344cd1fd0a4f28419497f9722a3daafe3b4186f6b6457e09190a35050565b6000602082840312156100e857600080fd5b81516001600160a01b03811681146100ff57600080fd5b9392505050565b61178d80620001166000396000f3fe608060405234801561001057600080fd5b50600436106100ea5760003560e01c8063876a404f1161008c578063bb763c5e11610066578063bb763c5e1461020f578063bcc44d7f1461022f578063d5890dda14610242578063f2fde38b1461026257600080fd5b8063876a404f146101b45780638da5cb5b146101c757806398c6e36e146101ec57600080fd5b80632a8c3fd7116100c85780632a8c3fd71461015d5780636b3f7f61146101865780636cc8f09614610199578063715018a6146101ac57600080fd5b80631bf26e9b146100ef57806327e46553146101045780632a58214214610137575b600080fd5b6101026100fd3660046111fa565b610275565b005b610124610112366004611278565b60036020526000908152604090205481565b6040519081526020015b60405180910390f35b61014a61014536600461129a565b61057b565b60405161012e979695949392919061130a565b61012461016b366004611278565b6001600160a01b031660009081526003602052604090205490565b61010261019436600461129a565b6106df565b6101246101a736600461129a565b610787565b6101026107b8565b6101026101c2366004611360565b6107cc565b6000546001600160a01b03165b6040516001600160a01b03909116815260200161012e565b6101ff6101fa36600461129a565b610a42565b604051901515815260200161012e565b61022261021d36600461129a565b610a73565b60405161012e919061145f565b6004546101d4906001600160a01b031681565b610255610250366004611278565b610c50565b60405161012e9190611472565b610102610270366004611278565b611038565b61027d611076565b60048054604051632de295fd60e11b81526001600160a01b0380881693820193909352869290911690635bc52bfa90602401602060405180830381865afa1580156102cc573d6000803e3d6000fd5b505050506040513d601f19601f820116820180604052508101906102f091906114d4565b6103155760405162461bcd60e51b815260040161030c906114f6565b60405180910390fd5b60008451116103665760405162461bcd60e51b815260206004820152601e60248201527f456c206e6f6d627265206e6f20707565646520657374617220766163696f0000604482015260640161030c565b600083116103b65760405162461bcd60e51b815260206004820152601f60248201527f456c2070726563696f206465626520736572206d61796f722061206365726f00604482015260640161030c565b60008251116104075760405162461bcd60e51b815260206004820152601b60248201527f4c6120696d6167656e2049504653206573207265717565726964610000000000604482015260640161030c565b6001600160a01b03851660009081526003602052604081205461042b906001611551565b6001600160a01b038781166000818152600360209081526040808320869055805160e0810182528481528083018781528183018d8152606083018d9052608083018c9052600160a084018190524260c085015296865286855283862089875290945291909320835181546001600160a01b0319169616959095178555519284019290925590519293509160028201906104c490826115ed565b5060608201516003820155608082015160048201906104e390826115ed565b5060a082015160058201805460ff191691151591909117905560c0909101516006909101556001600160a01b038616600081815260026020908152604080832080546001810182559084529190922001839055518291907fed2d552b1de5fafb7f52db6f7373b43913b9cb4d5c3609ec3859c21002d546419061056b908990899089906116ad565b60405180910390a3505050505050565b600160208181526000938452604080852090915291835291208054918101546002820180546001600160a01b03909416939192916105b890611564565b80601f01602080910402602001604051908101604052809291908181526020018280546105e490611564565b80156106315780601f1061060657610100808354040283529160200191610631565b820191906000526020600020905b81548152906001019060200180831161061457829003601f168201915b50505050509080600301549080600401805461064c90611564565b80601f016020809104026020016040519081016040528092919081815260200182805461067890611564565b80156106c55780601f1061069a576101008083540402835291602001916106c5565b820191906000526020600020905b8154815290600101906020018083116106a857829003601f168201915b505050506005830154600690930154919260ff1691905087565b6106e7611076565b6001600160a01b038216600090815260016020908152604080832084845290915290206005015460ff1661072d5760405162461bcd60e51b815260040161030c906116e2565b6001600160a01b0382166000818152600160209081526040808320858452909152808220600501805460ff19169055518392917fdbe21f6169965970ab3071748a27cc699a04bd7c8b58abcd82a763102c76f53f91a35050565b600260205281600052604060002081815481106107a357600080fd5b90600052602060002001600091509150505481565b6107c0611076565b6107ca60006110a3565b565b6107d4611076565b60048054604051632de295fd60e11b81526001600160a01b0380891693820193909352879290911690635bc52bfa90602401602060405180830381865afa158015610823573d6000803e3d6000fd5b505050506040513d601f19601f8201168201806040525081019061084791906114d4565b6108635760405162461bcd60e51b815260040161030c906114f6565b6001600160a01b038616600090815260016020908152604080832088845290915290206005015460ff166108a95760405162461bcd60e51b815260040161030c906116e2565b60008451116108fa5760405162461bcd60e51b815260206004820152601e60248201527f456c206e6f6d627265206e6f20707565646520657374617220766163696f0000604482015260640161030c565b6000831161094a5760405162461bcd60e51b815260206004820152601f60248201527f456c2070726563696f206465626520736572206d61796f722061206365726f00604482015260640161030c565b600082511161099b5760405162461bcd60e51b815260206004820152601b60248201527f4c6120696d6167656e2049504653206573207265717565726964610000000000604482015260640161030c565b6001600160a01b038616600090815260016020908152604080832088845290915290206002016109cb85826115ed565b506001600160a01b0386166000908152600160209081526040808320888452909152902060038101849055600401610a0383826115ed565b5084866001600160a01b03167f759d2b0b669e15d3bcb1bf22ccf31397296eac0ca5759c492617d11641d55c7886868660405161056b939291906116ad565b6001600160a01b038216600090815260016020908152604080832084845290915290206005015460ff165b92915050565b610a7b6110f3565b6001600160a01b038316600090815260016020908152604080832085845290915290206005015460ff16610ac15760405162461bcd60e51b815260040161030c906116e2565b6001600160a01b038084166000908152600160208181526040808420878552825292839020835160e0810185528154909516855291820154908401526002810180549192840191610b1190611564565b80601f0160208091040260200160405190810160405280929190818152602001828054610b3d90611564565b8015610b8a5780601f10610b5f57610100808354040283529160200191610b8a565b820191906000526020600020905b815481529060010190602001808311610b6d57829003601f168201915b5050505050815260200160038201548152602001600482018054610bad90611564565b80601f0160208091040260200160405190810160405280929190818152602001828054610bd990611564565b8015610c265780601f10610bfb57610100808354040283529160200191610c26565b820191906000526020600020905b815481529060010190602001808311610c0957829003601f168201915b5050509183525050600582015460ff16151560208201526006909101546040909101529392505050565b6001600160a01b0381166000908152600260209081526040808320805482518185028101850190935280835260609493830182828015610caf57602002820191906000526020600020905b815481526020019060010190808311610c9b575b505050505090506000815167ffffffffffffffff811115610cd257610cd2611157565b604051908082528060200260200182016040528015610d0b57816020015b610cf86110f3565b815260200190600190039081610cf05790505b5090506000805b8351811015610f81576001600160a01b03861660009081526001602052604081208551909190869084908110610d4a57610d4a611728565b60209081029190910181015182528101919091526040016000206005015460ff1615610f6f576001600160a01b03861660009081526001602052604081208551909190869084908110610d9f57610d9f611728565b602002602001015181526020019081526020016000206040518060e00160405290816000820160009054906101000a90046001600160a01b03166001600160a01b03166001600160a01b0316815260200160018201548152602001600282018054610e0990611564565b80601f0160208091040260200160405190810160405280929190818152602001828054610e3590611564565b8015610e825780601f10610e5757610100808354040283529160200191610e82565b820191906000526020600020905b815481529060010190602001808311610e6557829003601f168201915b5050505050815260200160038201548152602001600482018054610ea590611564565b80601f0160208091040260200160405190810160405280929190818152602001828054610ed190611564565b8015610f1e5780601f10610ef357610100808354040283529160200191610f1e565b820191906000526020600020905b815481529060010190602001808311610f0157829003601f168201915b5050509183525050600582015460ff16151560208201526006909101546040909101528351849084908110610f5557610f55611728565b60200260200101819052508180610f6b9061173e565b9250505b80610f798161173e565b915050610d12565b5060008167ffffffffffffffff811115610f9d57610f9d611157565b604051908082528060200260200182016040528015610fd657816020015b610fc36110f3565b815260200190600190039081610fbb5790505b50905060005b8281101561102e57838181518110610ff657610ff6611728565b602002602001015182828151811061101057611010611728565b602002602001018190525080806110269061173e565b915050610fdc565b5095945050505050565b611040611076565b6001600160a01b03811661106a57604051631e4fbdf760e01b81526000600482015260240161030c565b611073816110a3565b50565b6000546001600160a01b031633146107ca5760405163118cdaa760e01b815233600482015260240161030c565b600080546001600160a01b038381166001600160a01b0319831681178455604051919092169283917f8be0079c531659141344cd1fd0a4f28419497f9722a3daafe3b4186f6b6457e09190a35050565b6040518060e0016040528060006001600160a01b0316815260200160008152602001606081526020016000815260200160608152602001600015158152602001600081525090565b80356001600160a01b038116811461115257600080fd5b919050565b634e487b7160e01b600052604160045260246000fd5b600082601f83011261117e57600080fd5b813567ffffffffffffffff8082111561119957611199611157565b604051601f8301601f19908116603f011681019082821181831017156111c1576111c1611157565b816040528381528660208588010111156111da57600080fd5b836020870160208301376000602085830101528094505050505092915050565b6000806000806080858703121561121057600080fd5b6112198561113b565b9350602085013567ffffffffffffffff8082111561123657600080fd5b6112428883890161116d565b945060408701359350606087013591508082111561125f57600080fd5b5061126c8782880161116d565b91505092959194509250565b60006020828403121561128a57600080fd5b6112938261113b565b9392505050565b600080604083850312156112ad57600080fd5b6112b68361113b565b946020939093013593505050565b6000815180845260005b818110156112ea576020818501810151868301820152016112ce565b506000602082860101526020601f19601f83011685010191505092915050565b60018060a01b038816815286602082015260e06040820152600061133160e08301886112c4565b866060840152828103608084015261134981876112c4565b94151560a0840152505060c0015295945050505050565b600080600080600060a0868803121561137857600080fd5b6113818661113b565b945060208601359350604086013567ffffffffffffffff808211156113a557600080fd5b6113b189838a0161116d565b94506060880135935060808801359150808211156113ce57600080fd5b506113db8882890161116d565b9150509295509295909350565b60018060a01b038151168252602081015160208301526000604082015160e0604085015261141960e08501826112c4565b9050606083015160608501526080830151848203608086015261143c82826112c4565b91505060a0830151151560a085015260c083015160c08501528091505092915050565b60208152600061129360208301846113e8565b6000602080830181845280855180835260408601915060408160051b870101925083870160005b828110156114c757603f198886030184526114b58583516113e8565b94509285019290850190600101611499565b5092979650505050505050565b6000602082840312156114e657600080fd5b8151801515811461129357600080fd5b60208082526025908201527f4c6120656d7072657361206e6f20657869737465206f206e6f20657374612061604082015264637469766160d81b606082015260800190565b634e487b7160e01b600052601160045260246000fd5b80820180821115610a6d57610a6d61153b565b600181811c9082168061157857607f821691505b60208210810361159857634e487b7160e01b600052602260045260246000fd5b50919050565b601f8211156115e857600081815260208120601f850160051c810160208610156115c55750805b601f850160051c820191505b818110156115e4578281556001016115d1565b5050505b505050565b815167ffffffffffffffff81111561160757611607611157565b61161b816116158454611564565b8461159e565b602080601f83116001811461165057600084156116385750858301515b600019600386901b1c1916600185901b1785556115e4565b600085815260208120601f198616915b8281101561167f57888601518255948401946001909101908401611660565b508582101561169d5787850151600019600388901b60f8161c191681555b5050505050600190811b01905550565b6060815260006116c060608301866112c4565b84602084015282810360408401526116d881856112c4565b9695505050505050565b60208082526026908201527f456c2070726f647563746f206e6f20657869737465206f206e6f20657374612060408201526561637469766f60d01b606082015260800190565b634e487b7160e01b600052603260045260246000fd5b6000600182016117505761175061153b565b506001019056fea2646970667358221220473a705c9909bd5d6208bc11657c7a1901d5c8a6ee8a40068c4b6041f5bb771a64736f6c63430008140033","opcodes":"PUSH1 0x80 PUSH1 0x40 MSTORE CALLVALUE DUP1 ISZERO PUSH2 0x10 JUMPI PUSH1 0x0 DUP1 REVERT JUMPDEST POP PUSH1 0x40 MLOAD PUSH3 0x18A3 CODESIZE SUB DUP1 PUSH3 0x18A3 DUP4 CODECOPY DUP2 ADD PUSH1 0x40 DUP2 SWAP1 MSTORE PUSH2 0x31 SWAP2 PUSH2 0xD6 JUMP JUMPDEST CALLER DUP1 PUSH2 0x57 JUMPI PUSH1 0x40 MLOAD PUSH4 0x1E4FBDF7 PUSH1 0xE0 SHL DUP2 MSTORE PUSH1 0x0 PUSH1 0x4 DUP3 ADD MSTORE PUSH1 0x24 ADD PUSH1 0x40 MLOAD DUP1 SWAP2 SUB SWAP1 REVERT JUMPDEST PUSH2 0x60 DUP2 PUSH2 0x86 JUMP JUMPDEST POP PUSH1 0x4 DUP1 SLOAD PUSH1 0x1 PUSH1 0x1 PUSH1 0xA0 SHL SUB NOT AND PUSH1 0x1 PUSH1 0x1 PUSH1 0xA0 SHL SUB SWAP3 SWAP1 SWAP3 AND SWAP2 SWAP1 SWAP2 OR SWAP1 SSTORE PUSH2 0x106 JUMP JUMPDEST PUSH1 0x0 DUP1 SLOAD PUSH1 0x1 PUSH1 0x1 PUSH1 0xA0 SHL SUB DUP4 DUP2 AND PUSH1 0x1 PUSH1 0x1 PUSH1 0xA0 SHL SUB NOT DUP4 AND DUP2 OR DUP5 SSTORE PUSH1 0x40 MLOAD SWAP2 SWAP1 SWAP3 AND SWAP3 DUP4 SWAP2 PUSH32 0x8BE0079C531659141344CD1FD0A4F28419497F9722A3DAAFE3B4186F6B6457E0 SWAP2 SWAP1 LOG3 POP POP JUMP JUMPDEST PUSH1 0x0 PUSH1 0x20 DUP3 DUP5 SUB SLT ISZERO PUSH2 0xE8 JUMPI PUSH1 0x0 DUP1 REVERT JUMPDEST DUP2 MLOAD PUSH1 0x1 PUSH1 0x1 PUSH1 0xA0 SHL SUB DUP2 AND DUP2 EQ PUSH2 0xFF JUMPI PUSH1 0x0 DUP1 REVERT JUMPDEST SWAP4 SWAP3 POP POP POP JUMP JUMPDEST PUSH2 0x178D DUP1 PUSH3 0x116 PUSH1 0x0 CODECOPY PUSH1 0x0 RETURN INVALID PUSH1 0x80 PUSH1 0x40 MSTORE CALLVALUE DUP1 ISZERO PUSH2 0x10 JUMPI PUSH1 0x0 DUP1 REVERT JUMPDEST POP PUSH1 0x4 CALLDATASIZE LT PUSH2 0xEA JUMPI PUSH1 0x0 CALLDATALOAD PUSH1 0xE0 SHR DUP1 PUSH4 0x876A404F GT PUSH2 0x8C JUMPI DUP1 PUSH4 0xBB763C5E GT PUSH2 0x66 JUMPI DUP1 PUSH4 0xBB763C5E EQ PUSH2 0x20F JUMPI DUP1 PUSH4 0xBCC44D7F EQ PUSH2 0x22F JUMPI DUP1 PUSH4 0xD5890DDA EQ PUSH2 0x242 JUMPI DUP1 PUSH4 0xF2FDE38B EQ PUSH2 0x262 JUMPI PUSH1 0x0 DUP1 REVERT JUMPDEST DUP1 PUSH4 0x876A404F EQ PUSH2 0x1B4 JUMPI DUP1 PUSH4 0x8DA5CB5B EQ PUSH2 0x1C7 JUMPI DUP1 PUSH4 0x98C6E36E EQ PUSH2 0x1EC JUMPI PUSH1 0x0 DUP1 REVERT JUMPDEST DUP1 PUSH4 0x2A8C3FD7 GT PUSH2 0xC8 JUMPI DUP1 PUSH4 0x2A8C3FD7 EQ PUSH2 0x15D JUMPI DUP1 PUSH4 0x6B3F7F61 EQ PUSH2 0x186 JUMPI DUP1 PUSH4 0x6CC8F096 EQ PUSH2 0x199 JUMPI DUP1 PUSH4 0x715018A6 EQ PUSH2 0x1AC JUMPI PUSH1 0x0 DUP1 REVERT JUMPDEST DUP1 PUSH4 0x1BF26E9B EQ PUSH2 0xEF JUMPI DUP1 PUSH4 0x27E46553 EQ PUSH2 0x104 JUMPI DUP1 PUSH4 0x2A582142 EQ PUSH2 0x137 JUMPI JUMPDEST PUSH1 0x0 DUP1 REVERT JUMPDEST PUSH2 0x102 PUSH2 0xFD CALLDATASIZE PUSH1 0x4 PUSH2 0x11FA JUMP JUMPDEST PUSH2 0x275 JUMP JUMPDEST STOP JUMPDEST PUSH2 0x124 PUSH2 0x112 CALLDATASIZE PUSH1 0x4 PUSH2 0x1278 JUMP JUMPDEST PUSH1 0x3 PUSH1 0x20 MSTORE PUSH1 0x0 SWAP1 DUP2 MSTORE PUSH1 0x40 SWAP1 KECCAK256 SLOAD DUP2 JUMP JUMPDEST PUSH1 0x40 MLOAD SWAP1 DUP2 MSTORE PUSH1 0x20 ADD JUMPDEST PUSH1 0x40 MLOAD DUP1 SWAP2 SUB SWAP1 RETURN JUMPDEST PUSH2 0x14A PUSH2 0x145 CALLDATASIZE PUSH1 0x4 PUSH2 0x129A JUMP JUMPDEST PUSH2 0x57B JUMP JUMPDEST PUSH1 0x40 MLOAD PUSH2 0x12E SWAP8 SWAP7 SWAP6 SWAP5 SWAP4 SWAP3 SWAP2 SWAP1 PUSH2 0x130A JUMP JUMPDEST PUSH2 0x124 PUSH2 0x16B CALLDATASIZE PUSH1 0x4 PUSH2 0x1278 JUMP JUMPDEST PUSH1 0x1 PUSH1 0x1 PUSH1 0xA0 SHL SUB AND PUSH1 0x0 SWAP1 DUP2 MSTORE PUSH1 0x3 PUSH1 0x20 MSTORE PUSH1 0x40 SWAP1 KECCAK256 SLOAD SWAP1 JUMP JUMPDEST PUSH2 0x102 PUSH2 0x194 CALLDATASIZE PUSH1 0x4 PUSH2 0x129A JUMP JUMPDEST PUSH2 0x6DF JUMP JUMPDEST PUSH2 0x124 PUSH2 0x1A7 CALLDATASIZE PUSH1 0x4 PUSH2 0x129A JUMP JUMPDEST PUSH2 0x787 JUMP JUMPDEST PUSH2 0x102 PUSH2 0x7B8 JUMP JUMPDEST PUSH2 0x102 PUSH2 0x1C2 CALLDATASIZE PUSH1 0x4 PUSH2 0x1360 JUMP JUMPDEST PUSH2 0x7CC JUMP JUMPDEST PUSH1 0x0 SLOAD PUSH1 0x1 PUSH1 0x1 PUSH1 0xA0 SHL SUB AND JUMPDEST PUSH1 0x40 MLOAD PUSH1 0x1 PUSH1 0x1 PUSH1 0xA0 SHL SUB SWAP1 SWAP2 AND DUP2 MSTORE PUSH1 0x20 ADD PUSH2 0x12E JUMP JUMPDEST PUSH2 0x1FF PUSH2 0x1FA CALLDATASIZE PUSH1 0x4 PUSH2 0x129A JUMP JUMPDEST PUSH2 0xA42 JUMP JUMPDEST PUSH1 0x40 MLOAD SWAP1 ISZERO ISZERO DUP2 MSTORE PUSH1 0x20 ADD PUSH2 0x12E JUMP JUMPDEST PUSH2 0x222 PUSH2 0x21D CALLDATASIZE PUSH1 0x4 PUSH2 0x129A JUMP JUMPDEST PUSH2 0xA73 JUMP JUMPDEST PUSH1 0x40 MLOAD PUSH2 0x12E SWAP2 SWAP1 PUSH2 0x145F JUMP JUMPDEST PUSH1 0x4 SLOAD PUSH2 0x1D4 SWAP1 PUSH1 0x1 PUSH1 0x1 PUSH1 0xA0 SHL SUB AND DUP2 JUMP JUMPDEST PUSH2 0x255 PUSH2 0x250 CALLDATASIZE PUSH1 0x4 PUSH2 0x1278 JUMP JUMPDEST PUSH2 0xC50 JUMP JUMPDEST PUSH1 0x40 MLOAD PUSH2 0x12E SWAP2 SWAP1 PUSH2 0x1472 JUMP JUMPDEST PUSH2 0x102 PUSH2 0x270 CALLDATASIZE PUSH1 0x4 PUSH2 0x1278 JUMP JUMPDEST PUSH2 0x1038 JUMP JUMPDEST PUSH2 0x27D PUSH2 0x1076 JUMP JUMPDEST PUSH1 0x4 DUP1 SLOAD PUSH1 0x40 MLOAD PUSH4 0x2DE295FD PUSH1 0xE1 SHL DUP2 MSTORE PUSH1 0x1 PUSH1 0x1 PUSH1 0xA0 SHL SUB DUP1 DUP9 AND SWAP4 DUP3 ADD SWAP4 SWAP1 SWAP4 MSTORE DUP7 SWAP3 SWAP1 SWAP2 AND SWAP1 PUSH4 0x5BC52BFA SWAP1 PUSH1 0x24 ADD PUSH1 0x20 PUSH1 0x40 MLOAD DUP1 DUP4 SUB DUP2 DUP7 GAS STATICCALL ISZERO DUP1 ISZERO PUSH2 0x2CC JUMPI RETURNDATASIZE PUSH1 0x0 DUP1 RETURNDATACOPY RETURNDATASIZE PUSH1 0x0 REVERT JUMPDEST POP POP POP POP PUSH1 0x40 MLOAD RETURNDATASIZE PUSH1 0x1F NOT PUSH1 0x1F DUP3 ADD AND DUP3 ADD DUP1 PUSH1 0x40 MSTORE POP DUP2 ADD SWAP1 PUSH2 0x2F0 SWAP2 SWAP1 PUSH2 0x14D4 JUMP JUMPDEST PUSH2 0x315 JUMPI PUSH1 0x40 MLOAD PUSH3 0x461BCD PUSH1 0xE5 SHL DUP2 MSTORE PUSH1 0x4 ADD PUSH2 0x30C SWAP1 PUSH2 0x14F6 JUMP JUMPDEST PUSH1 0x40 MLOAD DUP1 SWAP2 SUB SWAP1 REVERT JUMPDEST PUSH1 0x0 DUP5 MLOAD GT PUSH2 0x366 JUMPI PUSH1 0x40 MLOAD PUSH3 0x461BCD PUSH1 0xE5 SHL DUP2 MSTORE PUSH1 0x20 PUSH1 0x4 DUP3 ADD MSTORE PUSH1 0x1E PUSH1 0x24 DUP3 ADD MSTORE PUSH32 0x456C206E6F6D627265206E6F20707565646520657374617220766163696F0000 PUSH1 0x44 DUP3 ADD MSTORE PUSH1 0x64 ADD PUSH2 0x30C JUMP JUMPDEST PUSH1 0x0 DUP4 GT PUSH2 0x3B6 JUMPI PUSH1 0x40 MLOAD PUSH3 0x461BCD PUSH1 0xE5 SHL DUP2 MSTORE PUSH1 0x20 PUSH1 0x4 DUP3 ADD MSTORE PUSH1 0x1F PUSH1 0x24 DUP3 ADD MSTORE PUSH32 0x456C2070726563696F206465626520736572206D61796F722061206365726F00 PUSH1 0x44 DUP3 ADD MSTORE PUSH1 0x64 ADD PUSH2 0x30C JUMP JUMPDEST PUSH1 0x0 DUP3 MLOAD GT PUSH2 0x407 JUMPI PUSH1 0x40 MLOAD PUSH3 0x461BCD PUSH1 0xE5 SHL DUP2 MSTORE PUSH1 0x20 PUSH1 0x4 DUP3 ADD MSTORE PUSH1 0x1B PUSH1 0x24 DUP3 ADD MSTORE PUSH32 0x4C6120696D6167656E2049504653206573207265717565726964610000000000 PUSH1 0x44 DUP3 ADD MSTORE PUSH1 0x64 ADD PUSH2 0x30C JUMP JUMPDEST PUSH1 0x1 PUSH1 0x1 PUSH1 0xA0 SHL SUB DUP6 AND PUSH1 0x0 SWAP1 DUP2 MSTORE PUSH1 0x3 PUSH1 0x20 MSTORE PUSH1 0x40 DUP2 KECCAK256 SLOAD PUSH2 0x42B SWAP1 PUSH1 0x1 PUSH2 0x1551 JUMP JUMPDEST PUSH1 0x1 PUSH1 0x1 PUSH1 0xA0 SHL SUB DUP8 DUP2 AND PUSH1 0x0 DUP2 DUP2 MSTORE PUSH1 0x3 PUSH1 0x20 SWAP1 DUP2 MSTORE PUSH1 0x40 DUP1 DUP4 KECCAK256 DUP7 SWAP1 SSTORE DUP1 MLOAD PUSH1 0xE0 DUP2 ADD DUP3 MSTORE DUP5 DUP2 MSTORE DUP1 DUP4 ADD DUP8 DUP2 MSTORE DUP2 DUP4 ADD DUP14 DUP2 MSTORE PUSH1 0x60 DUP4 ADD DUP14 SWAP1 MSTORE PUSH1 0x80 DUP4 ADD DUP13 SWAP1 MSTORE PUSH1 0x1 PUSH1 0xA0 DUP5 ADD DUP2 SWAP1 MSTORE TIMESTAMP PUSH1 0xC0 DUP6 ADD MSTORE SWAP7 DUP7 MSTORE DUP7 DUP6 MSTORE DUP4 DUP7 KECCAK256 DUP10 DUP8 MSTORE SWAP1 SWAP5 MSTORE SWAP2 SWAP1 SWAP4 KECCAK256 DUP4 MLOAD DUP2 SLOAD PUSH1 0x1 PUSH1 0x1 PUSH1 0xA0 SHL SUB NOT AND SWAP7 AND SWAP6 SWAP1 SWAP6 OR DUP6 SSTORE MLOAD SWAP3 DUP5 ADD SWAP3 SWAP1 SWAP3 SSTORE SWAP1 MLOAD SWAP3 SWAP4 POP SWAP2 PUSH1 0x2 DUP3 ADD SWAP1 PUSH2 0x4C4 SWAP1 DUP3 PUSH2 0x15ED JUMP JUMPDEST POP PUSH1 0x60 DUP3 ADD MLOAD PUSH1 0x3 DUP3 ADD SSTORE PUSH1 0x80 DUP3 ADD MLOAD PUSH1 0x4 DUP3 ADD SWAP1 PUSH2 0x4E3 SWAP1 DUP3 PUSH2 0x15ED JUMP JUMPDEST POP PUSH1 0xA0 DUP3 ADD MLOAD PUSH1 0x5 DUP3 ADD DUP1 SLOAD PUSH1 0xFF NOT AND SWAP2 ISZERO ISZERO SWAP2 SWAP1 SWAP2 OR SWAP1 SSTORE PUSH1 0xC0 SWAP1 SWAP2 ADD MLOAD PUSH1 0x6 SWAP1 SWAP2 ADD SSTORE PUSH1 0x1 PUSH1 0x1 PUSH1 0xA0 SHL SUB DUP7 AND PUSH1 0x0 DUP2 DUP2 MSTORE PUSH1 0x2 PUSH1 0x20 SWAP1 DUP2 MSTORE PUSH1 0x40 DUP1 DUP4 KECCAK256 DUP1 SLOAD PUSH1 0x1 DUP2 ADD DUP3 SSTORE SWAP1 DUP5 MSTORE SWAP2 SWAP1 SWAP3 KECCAK256 ADD DUP4 SWAP1 SSTORE MLOAD DUP3 SWAP2 SWAP1 PUSH32 0xED2D552B1DE5FAFB7F52DB6F7373B43913B9CB4D5C3609EC3859C21002D54641 SWAP1 PUSH2 0x56B SWAP1 DUP10 SWAP1 DUP10 SWAP1 DUP10 SWAP1 PUSH2 0x16AD JUMP JUMPDEST PUSH1 0x40 MLOAD DUP1 SWAP2 SUB SWAP1 LOG3 POP POP POP POP POP POP JUMP JUMPDEST PUSH1 0x1 PUSH1 0x20 DUP2 DUP2 MSTORE PUSH1 0x0 SWAP4 DUP5 MSTORE PUSH1 0x40 DUP1 DUP6 KECCAK256 SWAP1 SWAP2 MSTORE SWAP2 DUP4 MSTORE SWAP2 KECCAK256 DUP1 SLOAD SWAP2 DUP2 ADD SLOAD PUSH1 0x2 DUP3 ADD DUP1 SLOAD PUSH1 0x1 PUSH1 0x1 PUSH1 0xA0 SHL SUB SWAP1 SWAP5 AND SWAP4 SWAP2 SWAP3 SWAP2 PUSH2 0x5B8 SWAP1 PUSH2 0x1564 JUMP JUMPDEST DUP1 PUSH1 0x1F ADD PUSH1 0x20 DUP1 SWAP2 DIV MUL PUSH1 0x20 ADD PUSH1 0x40 MLOAD SWAP1 DUP2 ADD PUSH1 0x40 MSTORE DUP1 SWAP3 SWAP2 SWAP1 DUP2 DUP2 MSTORE PUSH1 0x20 ADD DUP3 DUP1 SLOAD PUSH2 0x5E4 SWAP1 PUSH2 0x1564 JUMP JUMPDEST DUP1 ISZERO PUSH2 0x631 JUMPI DUP1 PUSH1 0x1F LT PUSH2 0x606 JUMPI PUSH2 0x100 DUP1 DUP4 SLOAD DIV MUL DUP4 MSTORE SWAP2 PUSH1 0x20 ADD SWAP2 PUSH2 0x631 JUMP JUMPDEST DUP3 ADD SWAP2 SWAP1 PUSH1 0x0 MSTORE PUSH1 0x20 PUSH1 0x0 KECCAK256 SWAP1 JUMPDEST DUP2 SLOAD DUP2 MSTORE SWAP1 PUSH1 0x1 ADD SWAP1 PUSH1 0x20 ADD DUP1 DUP4 GT PUSH2 0x614 JUMPI DUP3 SWAP1 SUB PUSH1 0x1F AND DUP3 ADD SWAP2 JUMPDEST POP POP POP POP POP SWAP1 DUP1 PUSH1 0x3 ADD SLOAD SWAP1 DUP1 PUSH1 0x4 ADD DUP1 SLOAD PUSH2 0x64C SWAP1 PUSH2 0x1564 JUMP JUMPDEST DUP1 PUSH1 0x1F ADD PUSH1 0x20 DUP1 SWAP2 DIV MUL PUSH1 0x20 ADD PUSH1 0x40 MLOAD SWAP1 DUP2 ADD PUSH1 0x40 MSTORE DUP1 SWAP3 SWAP2 SWAP1 DUP2 DUP2 MSTORE PUSH1 0x20 ADD DUP3 DUP1 SLOAD PUSH2 0x678 SWAP1 PUSH2 0x1564 JUMP JUMPDEST DUP1 ISZERO PUSH2 0x6C5 JUMPI DUP1 PUSH1 0x1F LT PUSH2 0x69A JUMPI PUSH2 0x100 DUP1 DUP4 SLOAD DIV MUL DUP4 MSTORE SWAP2 PUSH1 0x20 ADD SWAP2 PUSH2 0x6C5 JUMP JUMPDEST DUP3 ADD SWAP2 SWAP1 PUSH1 0x0 MSTORE PUSH1 0x20 PUSH1 0x0 KECCAK256 SWAP1 JUMPDEST DUP2 SLOAD DUP2 MSTORE SWAP1 PUSH1 0x1 ADD SWAP1 PUSH1 0x20 ADD DUP1 DUP4 GT PUSH2 0x6A8 JUMPI DUP3 SWAP1 SUB PUSH1 0x1F AND DUP3 ADD SWAP2 JUMPDEST POP POP POP POP PUSH1 0x5 DUP4 ADD SLOAD PUSH1 0x6 SWAP1 SWAP4 ADD SLOAD SWAP2 SWAP3 PUSH1 0xFF AND SWAP2 SWAP1 POP DUP8 JUMP JUMPDEST PUSH2 0x6E7 PUSH2 0x1076 JUMP JUMPDEST PUSH1 0x1 PUSH1 0x1 PUSH1 0xA0 SHL SUB DUP3 AND PUSH1 0x0 SWAP1 DUP2 MSTORE PUSH1 0x1 PUSH1 0x20 SWAP1 DUP2 MSTORE PUSH1 0x40 DUP1 DUP4 KECCAK256 DUP5 DUP5 MSTORE SWAP1 SWAP2 MSTORE SWAP1 KECCAK256 PUSH1 0x5 ADD SLOAD PUSH1 0xFF AND PUSH2 0x72D JUMPI PUSH1 0x40 MLOAD PUSH3 0x461BCD PUSH1 0xE5 SHL DUP2 MSTORE PUSH1 0x4 ADD PUSH2 0x30C SWAP1 PUSH2 0x16E2 JUMP JUMPDEST PUSH1 0x1 PUSH1 0x1 PUSH1 0xA0 SHL SUB DUP3 AND PUSH1 0x0 DUP2 DUP2 MSTORE PUSH1 0x1 PUSH1 0x20 SWAP1 DUP2 MSTORE PUSH1 0x40 DUP1 DUP4 KECCAK256 DUP6 DUP5 MSTORE SWAP1 SWAP2 MSTORE DUP1 DUP3 KECCAK256 PUSH1 0x5 ADD DUP1 SLOAD PUSH1 0xFF NOT AND SWAP1 SSTORE MLOAD DUP4 SWAP3 SWAP2 PUSH32 0xDBE21F6169965970AB3071748A27CC699A04BD7C8B58ABCD82A763102C76F53F SWAP2 LOG3 POP POP JUMP JUMPDEST PUSH1 0x2 PUSH1 0x20 MSTORE DUP2 PUSH1 0x0 MSTORE PUSH1 0x40 PUSH1 0x0 KECCAK256 DUP2 DUP2 SLOAD DUP2 LT PUSH2 0x7A3 JUMPI PUSH1 0x0 DUP1 REVERT JUMPDEST SWAP1 PUSH1 0x0 MSTORE PUSH1 0x20 PUSH1 0x0 KECCAK256 ADD PUSH1 0x0 SWAP2 POP SWAP2 POP POP SLOAD DUP2 JUMP JUMPDEST PUSH2 0x7C0 PUSH2 0x1076 JUMP JUMPDEST PUSH2 0x7CA PUSH1 0x0 PUSH2 0x10A3 JUMP JUMPDEST JUMP JUMPDEST PUSH2 0x7D4 PUSH2 0x1076 JUMP JUMPDEST PUSH1 0x4 DUP1 SLOAD PUSH1 0x40 MLOAD PUSH4 0x2DE295FD PUSH1 0xE1 SHL DUP2 MSTORE PUSH1 0x1 PUSH1 0x1 PUSH1 0xA0 SHL SUB DUP1 DUP10 AND SWAP4 DUP3 ADD SWAP4 SWAP1 SWAP4 MSTORE DUP8 SWAP3 SWAP1 SWAP2 AND SWAP1 PUSH4 0x5BC52BFA SWAP1 PUSH1 0x24 ADD PUSH1 0x20 PUSH1 0x40 MLOAD DUP1 DUP4 SUB DUP2 DUP7 GAS STATICCALL ISZERO DUP1 ISZERO PUSH2 0x823 JUMPI RETURNDATASIZE PUSH1 0x0 DUP1 RETURNDATACOPY RETURNDATASIZE PUSH1 0x0 REVERT JUMPDEST POP POP POP POP PUSH1 0x40 MLOAD RETURNDATASIZE PUSH1 0x1F NOT PUSH1 0x1F DUP3 ADD AND DUP3 ADD DUP1 PUSH1 0x40 MSTORE POP DUP2 ADD SWAP1 PUSH2 0x847 SWAP2 SWAP1 PUSH2 0x14D4 JUMP JUMPDEST PUSH2 0x863 JUMPI PUSH1 0x40 MLOAD PUSH3 0x461BCD PUSH1 0xE5 SHL DUP2 MSTORE PUSH1 0x4 ADD PUSH2 0x30C SWAP1 PUSH2 0x14F6 JUMP JUMPDEST PUSH1 0x1 PUSH1 0x1 PUSH1 0xA0 SHL SUB DUP7 AND PUSH1 0x0 SWAP1 DUP2 MSTORE PUSH1 0x1 PUSH1 0x20 SWAP1 DUP2 MSTORE PUSH1 0x40 DUP1 DUP4 KECCAK256 DUP9 DUP5 MSTORE SWAP1 SWAP2 MSTORE SWAP1 KECCAK256 PUSH1 0x5 ADD SLOAD PUSH1 0xFF AND PUSH2 0x8A9 JUMPI PUSH1 0x40 MLOAD PUSH3 0x461BCD PUSH1 0xE5 SHL DUP2 MSTORE PUSH1 0x4 ADD PUSH2 0x30C SWAP1 PUSH2 0x16E2 JUMP JUMPDEST PUSH1 0x0 DUP5 MLOAD GT PUSH2 0x8FA JUMPI PUSH1 0x40 MLOAD PUSH3 0x461BCD PUSH1 0xE5 SHL DUP2 MSTORE PUSH1 0x20 PUSH1 0x4 DUP3 ADD MSTORE PUSH1 0x1E PUSH1 0x24 DUP3 ADD MSTORE PUSH32 0x456C206E6F6D627265206E6F20707565646520657374617220766163696F0000 PUSH1 0x44 DUP3 ADD MSTORE PUSH1 0x64 ADD PUSH2 0x30C JUMP JUMPDEST PUSH1 0x0 DUP4 GT PUSH2 0x94A JUMPI PUSH1 0x40 MLOAD PUSH3 0x461BCD PUSH1 0xE5 SHL DUP2 MSTORE PUSH1 0x20 PUSH1 0x4 DUP3 ADD MSTORE PUSH1 0x1F PUSH1 0x24 DUP3 ADD MSTORE PUSH32 0x456C2070726563696F206465626520736572206D61796F722061206365726F00 PUSH1 0x44 DUP3 ADD MSTORE PUSH1 0x64 ADD PUSH2 0x30C JUMP JUMPDEST PUSH1 0x0 DUP3 MLOAD GT PUSH2 0x99B JUMPI PUSH1 0x40 MLOAD PUSH3 0x461BCD PUSH1 0xE5 SHL DUP2 MSTORE PUSH1 0x20 PUSH1 0x4 DUP3 ADD MSTORE PUSH1 0x1B PUSH1 0x24 DUP3 ADD MSTORE PUSH32 0x4C6120696D6167656E2049504653206573207265717565726964610000000000 PUSH1 0x44 DUP3 ADD MSTORE PUSH1 0x64 ADD PUSH2 0x30C JUMP JUMPDEST PUSH1 0x1 PUSH1 0x1 PUSH1 0xA0 SHL SUB DUP7 AND PUSH1 0x0 SWAP1 DUP2 MSTORE PUSH1 0x1 PUSH1 0x20 SWAP1 DUP2 MSTORE PUSH1 0x40 DUP1 DUP4 KECCAK256 DUP9 DUP5 MSTORE SWAP1 SWAP2 MSTORE SWAP1 KECCAK256 PUSH1 0x2 ADD PUSH2 0x9CB DUP6 DUP3 PUSH2 0x15ED JUMP JUMPDEST POP PUSH1 0x1 PUSH1 0x1 PUSH1 0xA0 SHL SUB DUP7 AND PUSH1 0x0 SWAP1 DUP2 MSTORE PUSH1 0x1 PUSH1 0x20 SWAP1 DUP2 MSTORE PUSH1 0x40 DUP1 DUP4 KECCAK256 DUP9 DUP5 MSTORE SWAP1 SWAP2 MSTORE SWAP1 KECCAK256 PUSH1 0x3 DUP2 ADD DUP5 SWAP1 SSTORE PUSH1 0x4 ADD PUSH2 0xA03 DUP4 DUP3 PUSH2 0x15ED JUMP JUMPDEST POP DUP5 DUP7 PUSH1 0x1 PUSH1 0x1 PUSH1 0xA0 SHL SUB AND PUSH32 0x759D2B0B669E15D3BCB1BF22CCF31397296EAC0CA5759C492617D11641D55C78 DUP7 DUP7 DUP7 PUSH1 0x40 MLOAD PUSH2 0x56B SWAP4 SWAP3 SWAP2 SWAP1 PUSH2 0x16AD JUMP JUMPDEST PUSH1 0x1 PUSH1 0x1 PUSH1 0xA0 SHL SUB DUP3 AND PUSH1 0x0 SWAP1 DUP2 MSTORE PUSH1 0x1 PUSH1 0x20 SWAP1 DUP2 MSTORE PUSH1 0x40 DUP1 DUP4 KECCAK256 DUP5 DUP5 MSTORE SWAP1 SWAP2 MSTORE SWAP1 KECCAK256 PUSH1 0x5 ADD SLOAD PUSH1 0xFF AND JUMPDEST SWAP3 SWAP2 POP POP JUMP JUMPDEST PUSH2 0xA7B PUSH2 0x10F3 JUMP JUMPDEST PUSH1 0x1 PUSH1 0x1 PUSH1 0xA0 SHL SUB DUP4 AND PUSH1 0x0 SWAP1 DUP2 MSTORE PUSH1 0x1 PUSH1 0x20 SWAP1 DUP2 MSTORE PUSH1 0x40 DUP1 DUP4 KECCAK256 DUP6 DUP5 MSTORE SWAP1 SWAP2 MSTORE SWAP1 KECCAK256 PUSH1 0x5 ADD SLOAD PUSH1 0xFF AND PUSH2 0xAC1 JUMPI PUSH1 0x40 MLOAD PUSH3 0x461BCD PUSH1 0xE5 SHL DUP2 MSTORE PUSH1 0x4 ADD PUSH2 0x30C SWAP1 PUSH2 0x16E2 JUMP JUMPDEST PUSH1 0x1 PUSH1 0x1 PUSH1 0xA0 SHL SUB DUP1 DUP5 AND PUSH1 0x0 SWAP1 DUP2 MSTORE PUSH1 0x1 PUSH1 0x20 DUP2 DUP2 MSTORE PUSH1 0x40 DUP1 DUP5 KECCAK256 DUP8 DUP6 MSTORE DUP3 MSTORE SWAP3 DUP4 SWAP1 KECCAK256 DUP4 MLOAD PUSH1 0xE0 DUP2 ADD DUP6 MSTORE DUP2 SLOAD SWAP1 SWAP6 AND DUP6 MSTORE SWAP2 DUP3 ADD SLOAD SWAP1 DUP5 ADD MSTORE PUSH1 0x2 DUP2 ADD DUP1 SLOAD SWAP2 SWAP3 DUP5 ADD SWAP2 PUSH2 0xB11 SWAP1 PUSH2 0x1564 JUMP JUMPDEST DUP1 PUSH1 0x1F ADD PUSH1 0x20 DUP1 SWAP2 DIV MUL PUSH1 0x20 ADD PUSH1 0x40 MLOAD SWAP1 DUP2 ADD PUSH1 0x40 MSTORE DUP1 SWAP3 SWAP2 SWAP1 DUP2 DUP2 MSTORE PUSH1 0x20 ADD DUP3 DUP1 SLOAD PUSH2 0xB3D SWAP1 PUSH2 0x1564 JUMP JUMPDEST DUP1 ISZERO PUSH2 0xB8A JUMPI DUP1 PUSH1 0x1F LT PUSH2 0xB5F JUMPI PUSH2 0x100 DUP1 DUP4 SLOAD DIV MUL DUP4 MSTORE SWAP2 PUSH1 0x20 ADD SWAP2 PUSH2 0xB8A JUMP JUMPDEST DUP3 ADD SWAP2 SWAP1 PUSH1 0x0 MSTORE PUSH1 0x20 PUSH1 0x0 KECCAK256 SWAP1 JUMPDEST DUP2 SLOAD DUP2 MSTORE SWAP1 PUSH1 0x1 ADD SWAP1 PUSH1 0x20 ADD DUP1 DUP4 GT PUSH2 0xB6D JUMPI DUP3 SWAP1 SUB PUSH1 0x1F AND DUP3 ADD SWAP2 JUMPDEST POP POP POP POP POP DUP2 MSTORE PUSH1 0x20 ADD PUSH1 0x3 DUP3 ADD SLOAD DUP2 MSTORE PUSH1 0x20 ADD PUSH1 0x4 DUP3 ADD DUP1 SLOAD PUSH2 0xBAD SWAP1 PUSH2 0x1564 JUMP JUMPDEST DUP1 PUSH1 0x1F ADD PUSH1 0x20 DUP1 SWAP2 DIV MUL PUSH1 0x20 ADD PUSH1 0x40 MLOAD SWAP1 DUP2 ADD PUSH1 0x40 MSTORE DUP1 SWAP3 SWAP2 SWAP1 DUP2 DUP2 MSTORE PUSH1 0x20 ADD DUP3 DUP1 SLOAD PUSH2 0xBD9 SWAP1 PUSH2 0x1564 JUMP JUMPDEST DUP1 ISZERO PUSH2 0xC26 JUMPI DUP1 PUSH1 0x1F LT PUSH2 0xBFB JUMPI PUSH2 0x100 DUP1 DUP4 SLOAD DIV MUL DUP4 MSTORE SWAP2 PUSH1 0x20 ADD SWAP2 PUSH2 0xC26 JUMP JUMPDEST DUP3 ADD SWAP2 SWAP1 PUSH1 0x0 MSTORE PUSH1 0x20 PUSH1 0x0 KECCAK256 SWAP1 JUMPDEST DUP2 SLOAD DUP2 MSTORE SWAP1 PUSH1 0x1 ADD SWAP1 PUSH1 0x20 ADD DUP1 DUP4 GT PUSH2 0xC09 JUMPI DUP3 SWAP1 SUB PUSH1 0x1F AND DUP3 ADD SWAP2 JUMPDEST POP POP POP SWAP2 DUP4 MSTORE POP POP PUSH1 0x5 DUP3 ADD SLOAD PUSH1 0xFF AND ISZERO ISZERO PUSH1 0x20 DUP3 ADD MSTORE PUSH1 0x6 SWAP1 SWAP2 ADD SLOAD PUSH1 0x40 SWAP1 SWAP2 ADD MSTORE SWAP4 SWAP3 POP POP POP JUMP JUMPDEST PUSH1 0x1 PUSH1 0x1 PUSH1 0xA0 SHL SUB DUP2 AND PUSH1 0x0 SWAP1 DUP2 MSTORE PUSH1 0x2 PUSH1 0x20 SWAP1 DUP2 MSTORE PUSH1 0x40 DUP1 DUP4 KECCAK256 DUP1 SLOAD DUP3 MLOAD DUP2 DUP6 MUL DUP2 ADD DUP6 ADD SWAP1 SWAP4 MSTORE DUP1 DUP4 MSTORE PUSH1 0x60 SWAP5 SWAP4 DUP4 ADD DUP3 DUP3 DUP1 ISZERO PUSH2 0xCAF JUMPI PUSH1 0x20 MUL DUP3 ADD SWAP2 SWAP1 PUSH1 0x0 MSTORE PUSH1 0x20 PUSH1 0x0 KECCAK256 SWAP1 JUMPDEST DUP2 SLOAD DUP2 MSTORE PUSH1 0x20 ADD SWAP1 PUSH1 0x1 ADD SWAP1 DUP1 DUP4 GT PUSH2 0xC9B JUMPI JUMPDEST POP POP POP POP POP SWAP1 POP PUSH1 0x0 DUP2 MLOAD PUSH8 0xFFFFFFFFFFFFFFFF DUP2 GT ISZERO PUSH2 0xCD2 JUMPI PUSH2 0xCD2 PUSH2 0x1157 JUMP JUMPDEST PUSH1 0x40 MLOAD SWAP1 DUP1 DUP3 MSTORE DUP1 PUSH1 0x20 MUL PUSH1 0x20 ADD DUP3 ADD PUSH1 0x40 MSTORE DUP1 ISZERO PUSH2 0xD0B JUMPI DUP2 PUSH1 0x20 ADD JUMPDEST PUSH2 0xCF8 PUSH2 0x10F3 JUMP JUMPDEST DUP2 MSTORE PUSH1 0x20 ADD SWAP1 PUSH1 0x1 SWAP1 SUB SWAP1 DUP2 PUSH2 0xCF0 JUMPI SWAP1 POP JUMPDEST POP SWAP1 POP PUSH1 0x0 DUP1 JUMPDEST DUP4 MLOAD DUP2 LT ISZERO PUSH2 0xF81 JUMPI PUSH1 0x1 PUSH1 0x1 PUSH1 0xA0 SHL SUB DUP7 AND PUSH1 0x0 SWAP1 DUP2 MSTORE PUSH1 0x1 PUSH1 0x20 MSTORE PUSH1 0x40 DUP2 KECCAK256 DUP6 MLOAD SWAP1 SWAP2 SWAP1 DUP7 SWAP1 DUP5 SWAP1 DUP2 LT PUSH2 0xD4A JUMPI PUSH2 0xD4A PUSH2 0x1728 JUMP JUMPDEST PUSH1 0x20 SWAP1 DUP2 MUL SWAP2 SWAP1 SWAP2 ADD DUP2 ADD MLOAD DUP3 MSTORE DUP2 ADD SWAP2 SWAP1 SWAP2 MSTORE PUSH1 0x40 ADD PUSH1 0x0 KECCAK256 PUSH1 0x5 ADD SLOAD PUSH1 0xFF AND ISZERO PUSH2 0xF6F JUMPI PUSH1 0x1 PUSH1 0x1 PUSH1 0xA0 SHL SUB DUP7 AND PUSH1 0x0 SWAP1 DUP2 MSTORE PUSH1 0x1 PUSH1 0x20 MSTORE PUSH1 0x40 DUP2 KECCAK256 DUP6 MLOAD SWAP1 SWAP2 SWAP1 DUP7 SWAP1 DUP5 SWAP1 DUP2 LT PUSH2 0xD9F JUMPI PUSH2 0xD9F PUSH2 0x1728 JUMP JUMPDEST PUSH1 0x20 MUL PUSH1 0x20 ADD ADD MLOAD DUP2 MSTORE PUSH1 0x20 ADD SWAP1 DUP2 MSTORE PUSH1 0x20 ADD PUSH1 0x0 KECCAK256 PUSH1 0x40 MLOAD DUP1 PUSH1 0xE0 ADD PUSH1 0x40 MSTORE SWAP1 DUP2 PUSH1 0x0 DUP3 ADD PUSH1 0x0 SWAP1 SLOAD SWAP1 PUSH2 0x100 EXP SWAP1 DIV PUSH1 0x1 PUSH1 0x1 PUSH1 0xA0 SHL SUB AND PUSH1 0x1 PUSH1 0x1 PUSH1 0xA0 SHL SUB AND PUSH1 0x1 PUSH1 0x1 PUSH1 0xA0 SHL SUB AND DUP2 MSTORE PUSH1 0x20 ADD PUSH1 0x1 DUP3 ADD SLOAD DUP2 MSTORE PUSH1 0x20 ADD PUSH1 0x2 DUP3 ADD DUP1 SLOAD PUSH2 0xE09 SWAP1 PUSH2 0x1564 JUMP JUMPDEST DUP1 PUSH1 0x1F ADD PUSH1 0x20 DUP1 SWAP2 DIV MUL PUSH1 0x20 ADD PUSH1 0x40 MLOAD SWAP1 DUP2 ADD PUSH1 0x40 MSTORE DUP1 SWAP3 SWAP2 SWAP1 DUP2 DUP2 MSTORE PUSH1 0x20 ADD DUP3 DUP1 SLOAD PUSH2 0xE35 SWAP1 PUSH2 0x1564 JUMP JUMPDEST DUP1 ISZERO PUSH2 0xE82 JUMPI DUP1 PUSH1 0x1F LT PUSH2 0xE57 JUMPI PUSH2 0x100 DUP1 DUP4 SLOAD DIV MUL DUP4 MSTORE SWAP2 PUSH1 0x20 ADD SWAP2 PUSH2 0xE82 JUMP JUMPDEST DUP3 ADD SWAP2 SWAP1 PUSH1 0x0 MSTORE PUSH1 0x20 PUSH1 0x0 KECCAK256 SWAP1 JUMPDEST DUP2 SLOAD DUP2 MSTORE SWAP1 PUSH1 0x1 ADD SWAP1 PUSH1 0x20 ADD DUP1 DUP4 GT PUSH2 0xE65 JUMPI DUP3 SWAP1 SUB PUSH1 0x1F AND DUP3 ADD SWAP2 JUMPDEST POP POP POP POP POP DUP2 MSTORE PUSH1 0x20 ADD PUSH1 0x3 DUP3 ADD SLOAD DUP2 MSTORE PUSH1 0x20 ADD PUSH1 0x4 DUP3 ADD DUP1 SLOAD PUSH2 0xEA5 SWAP1 PUSH2 0x1564 JUMP JUMPDEST DUP1 PUSH1 0x1F ADD PUSH1 0x20 DUP1 SWAP2 DIV MUL PUSH1 0x20 ADD PUSH1 0x40 MLOAD SWAP1 DUP2 ADD PUSH1 0x40 MSTORE DUP1 SWAP3 SWAP2 SWAP1 DUP2 DUP2 MSTORE PUSH1 0x20 ADD DUP3 DUP1 SLOAD PUSH2 0xED1 SWAP1 PUSH2 0x1564 JUMP JUMPDEST DUP1 ISZERO PUSH2 0xF1E JUMPI DUP1 PUSH1 0x1F LT PUSH2 0xEF3 JUMPI PUSH2 0x100 DUP1 DUP4 SLOAD DIV MUL DUP4 MSTORE SWAP2 PUSH1 0x20 ADD SWAP2 PUSH2 0xF1E JUMP JUMPDEST DUP3 ADD SWAP2 SWAP1 PUSH1 0x0 MSTORE PUSH1 0x20 PUSH1 0x0 KECCAK256 SWAP1 JUMPDEST DUP2 SLOAD DUP2 MSTORE SWAP1 PUSH1 0x1 ADD SWAP1 PUSH1 0x20 ADD DUP1 DUP4 GT PUSH2 0xF01 JUMPI DUP3 SWAP1 SUB PUSH1 0x1F AND DUP3 ADD SWAP2 JUMPDEST POP POP POP SWAP2 DUP4 MSTORE POP POP PUSH1 0x5 DUP3 ADD SLOAD PUSH1 0xFF AND ISZERO ISZERO PUSH1 0x20 DUP3 ADD MSTORE PUSH1 0x6 SWAP1 SWAP2 ADD SLOAD PUSH1 0x40 SWAP1 SWAP2 ADD MSTORE DUP4 MLOAD DUP5 SWAP1 DUP5 SWAP1 DUP2 LT PUSH2 0xF55 JUMPI PUSH2 0xF55 PUSH2 0x1728 JUMP JUMPDEST PUSH1 0x20 MUL PUSH1 0x20 ADD ADD DUP2 SWAP1 MSTORE POP DUP2 DUP1 PUSH2 0xF6B SWAP1 PUSH2 0x173E JUMP JUMPDEST SWAP3 POP POP JUMPDEST DUP1 PUSH2 0xF79 DUP2 PUSH2 0x173E JUMP JUMPDEST SWAP2 POP POP PUSH2 0xD12 JUMP JUMPDEST POP PUSH1 0x0 DUP2 PUSH8 0xFFFFFFFFFFFFFFFF DUP2 GT ISZERO PUSH2 0xF9D JUMPI PUSH2 0xF9D PUSH2 0x1157 JUMP JUMPDEST PUSH1 0x40 MLOAD SWAP1 DUP1 DUP3 MSTORE DUP1 PUSH1 0x20 MUL PUSH1 0x20 ADD DUP3 ADD PUSH1 0x40 MSTORE DUP1 ISZERO PUSH2 0xFD6 JUMPI DUP2 PUSH1 0x20 ADD JUMPDEST PUSH2 0xFC3 PUSH2 0x10F3 JUMP JUMPDEST DUP2 MSTORE PUSH1 0x20 ADD SWAP1 PUSH1 0x1 SWAP1 SUB SWAP1 DUP2 PUSH2 0xFBB JUMPI SWAP1 POP JUMPDEST POP SWAP1 POP PUSH1 0x0 JUMPDEST DUP3 DUP2 LT ISZERO PUSH2 0x102E JUMPI DUP4 DUP2 DUP2 MLOAD DUP2 LT PUSH2 0xFF6 JUMPI PUSH2 0xFF6 PUSH2 0x1728 JUMP JUMPDEST PUSH1 0x20 MUL PUSH1 0x20 ADD ADD MLOAD DUP3 DUP3 DUP2 MLOAD DUP2 LT PUSH2 0x1010 JUMPI PUSH2 0x1010 PUSH2 0x1728 JUMP JUMPDEST PUSH1 0x20 MUL PUSH1 0x20 ADD ADD DUP2 SWAP1 MSTORE POP DUP1 DUP1 PUSH2 0x1026 SWAP1 PUSH2 0x173E JUMP JUMPDEST SWAP2 POP POP PUSH2 0xFDC JUMP JUMPDEST POP SWAP6 SWAP5 POP POP POP POP POP JUMP JUMPDEST PUSH2 0x1040 PUSH2 0x1076 JUMP JUMPDEST PUSH1 0x1 PUSH1 0x1 PUSH1 0xA0 SHL SUB DUP2 AND PUSH2 0x106A JUMPI PUSH1 0x40 MLOAD PUSH4 0x1E4FBDF7 PUSH1 0xE0 SHL DUP2 MSTORE PUSH1 0x0 PUSH1 0x4 DUP3 ADD MSTORE PUSH1 0x24 ADD PUSH2 0x30C JUMP JUMPDEST PUSH2 0x1073 DUP2 PUSH2 0x10A3 JUMP JUMPDEST POP JUMP JUMPDEST PUSH1 0x0 SLOAD PUSH1 0x1 PUSH1 0x1 PUSH1 0xA0 SHL SUB AND CALLER EQ PUSH2 0x7CA JUMPI PUSH1 0x40 MLOAD PUSH4 0x118CDAA7 PUSH1 0xE0 SHL DUP2 MSTORE CALLER PUSH1 0x4 DUP3 ADD MSTORE PUSH1 0x24 ADD PUSH2 0x30C JUMP JUMPDEST PUSH1 0x0 DUP1 SLOAD PUSH1 0x1 PUSH1 0x1 PUSH1 0xA0 SHL SUB DUP4 DUP2 AND PUSH1 0x1 PUSH1 0x1 PUSH1 0xA0 SHL SUB NOT DUP4 AND DUP2 OR DUP5 SSTORE PUSH1 0x40 MLOAD SWAP2 SWAP1 SWAP3 AND SWAP3 DUP4 SWAP2 PUSH32 0x8BE0079C531659141344CD1FD0A4F28419497F9722A3DAAFE3B4186F6B6457E0 SWAP2 SWAP1 LOG3 POP POP JUMP JUMPDEST PUSH1 0x40 MLOAD DUP1 PUSH1 0xE0 ADD PUSH1 0x40 MSTORE DUP1 PUSH1 0x0 PUSH1 0x1 PUSH1 0x1 PUSH1 0xA0 SHL SUB AND DUP2 MSTORE PUSH1 0x20 ADD PUSH1 0x0 DUP2 MSTORE PUSH1 0x20 ADD PUSH1 0x60 DUP2 MSTORE PUSH1 0x20 ADD PUSH1 0x0 DUP2 MSTORE PUSH1 0x20 ADD PUSH1 0x60 DUP2 MSTORE PUSH1 0x20 ADD PUSH1 0x0 ISZERO ISZERO DUP2 MSTORE PUSH1 0x20 ADD PUSH1 0x0 DUP2 MSTORE POP SWAP1 JUMP JUMPDEST DUP1 CALLDATALOAD PUSH1 0x1 PUSH1 0x1 PUSH1 0xA0 SHL SUB DUP2 AND DUP2 EQ PUSH2 0x1152 JUMPI PUSH1 0x0 DUP1 REVERT JUMPDEST SWAP2 SWAP1 POP JUMP JUMPDEST PUSH4 0x4E487B71 PUSH1 0xE0 SHL PUSH1 0x0 MSTORE PUSH1 0x41 PUSH1 0x4 MSTORE PUSH1 0x24 PUSH1 0x0 REVERT JUMPDEST PUSH1 0x0 DUP3 PUSH1 0x1F DUP4 ADD SLT PUSH2 0x117E JUMPI PUSH1 0x0 DUP1 REVERT JUMPDEST DUP2 CALLDATALOAD PUSH8 0xFFFFFFFFFFFFFFFF DUP1 DUP3 GT ISZERO PUSH2 0x1199 JUMPI PUSH2 0x1199 PUSH2 0x1157 JUMP JUMPDEST PUSH1 0x40 MLOAD PUSH1 0x1F DUP4 ADD PUSH1 0x1F NOT SWAP1 DUP2 AND PUSH1 0x3F ADD AND DUP2 ADD SWAP1 DUP3 DUP3 GT DUP2 DUP4 LT OR ISZERO PUSH2 0x11C1 JUMPI PUSH2 0x11C1 PUSH2 0x1157 JUMP JUMPDEST DUP2 PUSH1 0x40 MSTORE DUP4 DUP2 MSTORE DUP7 PUSH1 0x20 DUP6 DUP9 ADD ADD GT ISZERO PUSH2 0x11DA JUMPI PUSH1 0x0 DUP1 REVERT JUMPDEST DUP4 PUSH1 0x20 DUP8 ADD PUSH1 0x20 DUP4 ADD CALLDATACOPY PUSH1 0x0 PUSH1 0x20 DUP6 DUP4 ADD ADD MSTORE DUP1 SWAP5 POP POP POP POP POP SWAP3 SWAP2 POP POP JUMP JUMPDEST PUSH1 0x0 DUP1 PUSH1 0x0 DUP1 PUSH1 0x80 DUP6 DUP8 SUB SLT ISZERO PUSH2 0x1210 JUMPI PUSH1 0x0 DUP1 REVERT JUMPDEST PUSH2 0x1219 DUP6 PUSH2 0x113B JUMP JUMPDEST SWAP4 POP PUSH1 0x20 DUP6 ADD CALLDATALOAD PUSH8 0xFFFFFFFFFFFFFFFF DUP1 DUP3 GT ISZERO PUSH2 0x1236 JUMPI PUSH1 0x0 DUP1 REVERT JUMPDEST PUSH2 0x1242 DUP9 DUP4 DUP10 ADD PUSH2 0x116D JUMP JUMPDEST SWAP5 POP PUSH1 0x40 DUP8 ADD CALLDATALOAD SWAP4 POP PUSH1 0x60 DUP8 ADD CALLDATALOAD SWAP2 POP DUP1 DUP3 GT ISZERO PUSH2 0x125F JUMPI PUSH1 0x0 DUP1 REVERT JUMPDEST POP PUSH2 0x126C DUP8 DUP3 DUP9 ADD PUSH2 0x116D JUMP JUMPDEST SWAP2 POP POP SWAP3 SWAP6 SWAP2 SWAP5 POP SWAP3 POP JUMP JUMPDEST PUSH1 0x0 PUSH1 0x20 DUP3 DUP5 SUB SLT ISZERO PUSH2 0x128A JUMPI PUSH1 0x0 DUP1 REVERT JUMPDEST PUSH2 0x1293 DUP3 PUSH2 0x113B JUMP JUMPDEST SWAP4 SWAP3 POP POP POP JUMP JUMPDEST PUSH1 0x0 DUP1 PUSH1 0x40 DUP4 DUP6 SUB SLT ISZERO PUSH2 0x12AD JUMPI PUSH1 0x0 DUP1 REVERT JUMPDEST PUSH2 0x12B6 DUP4 PUSH2 0x113B JUMP JUMPDEST SWAP5 PUSH1 0x20 SWAP4 SWAP1 SWAP4 ADD CALLDATALOAD SWAP4 POP POP POP JUMP JUMPDEST PUSH1 0x0 DUP2 MLOAD DUP1 DUP5 MSTORE PUSH1 0x0 JUMPDEST DUP2 DUP2 LT ISZERO PUSH2 0x12EA JUMPI PUSH1 0x20 DUP2 DUP6 ADD DUP2 ADD MLOAD DUP7 DUP4 ADD DUP3 ADD MSTORE ADD PUSH2 0x12CE JUMP JUMPDEST POP PUSH1 0x0 PUSH1 0x20 DUP3 DUP7 ADD ADD MSTORE PUSH1 0x20 PUSH1 0x1F NOT PUSH1 0x1F DUP4 ADD AND DUP6 ADD ADD SWAP2 POP POP SWAP3 SWAP2 POP POP JUMP JUMPDEST PUSH1 0x1 DUP1 PUSH1 0xA0 SHL SUB DUP9 AND DUP2 MSTORE DUP7 PUSH1 0x20 DUP3 ADD MSTORE PUSH1 0xE0 PUSH1 0x40 DUP3 ADD MSTORE PUSH1 0x0 PUSH2 0x1331 PUSH1 0xE0 DUP4 ADD DUP9 PUSH2 0x12C4 JUMP JUMPDEST DUP7 PUSH1 0x60 DUP5 ADD MSTORE DUP3 DUP2 SUB PUSH1 0x80 DUP5 ADD MSTORE PUSH2 0x1349 DUP2 DUP8 PUSH2 0x12C4 JUMP JUMPDEST SWAP5 ISZERO ISZERO PUSH1 0xA0 DUP5 ADD MSTORE POP POP PUSH1 0xC0 ADD MSTORE SWAP6 SWAP5 POP POP POP POP POP JUMP JUMPDEST PUSH1 0x0 DUP1 PUSH1 0x0 DUP1 PUSH1 0x0 PUSH1 0xA0 DUP7 DUP9 SUB SLT ISZERO PUSH2 0x1378 JUMPI PUSH1 0x0 DUP1 REVERT JUMPDEST PUSH2 0x1381 DUP7 PUSH2 0x113B JUMP JUMPDEST SWAP5 POP PUSH1 0x20 DUP7 ADD CALLDATALOAD SWAP4 POP PUSH1 0x40 DUP7 ADD CALLDATALOAD PUSH8 0xFFFFFFFFFFFFFFFF DUP1 DUP3 GT ISZERO PUSH2 0x13A5 JUMPI PUSH1 0x0 DUP1 REVERT JUMPDEST PUSH2 0x13B1 DUP10 DUP4 DUP11 ADD PUSH2 0x116D JUMP JUMPDEST SWAP5 POP PUSH1 0x60 DUP9 ADD CALLDATALOAD SWAP4 POP PUSH1 0x80 DUP9 ADD CALLDATALOAD SWAP2 POP DUP1 DUP3 GT ISZERO PUSH2 0x13CE JUMPI PUSH1 0x0 DUP1 REVERT JUMPDEST POP PUSH2 0x13DB DUP9 DUP3 DUP10 ADD PUSH2 0x116D JUMP JUMPDEST SWAP2 POP POP SWAP3 SWAP6 POP SWAP3 SWAP6 SWAP1 SWAP4 POP JUMP JUMPDEST PUSH1 0x1 DUP1 PUSH1 0xA0 SHL SUB DUP2 MLOAD AND DUP3 MSTORE PUSH1 0x20 DUP2 ADD MLOAD PUSH1 0x20 DUP4 ADD MSTORE PUSH1 0x0 PUSH1 0x40 DUP3 ADD MLOAD PUSH1 0xE0 PUSH1 0x40 DUP6 ADD MSTORE PUSH2 0x1419 PUSH1 0xE0 DUP6 ADD DUP3 PUSH2 0x12C4 JUMP JUMPDEST SWAP1 POP PUSH1 0x60 DUP4 ADD MLOAD PUSH1 0x60 DUP6 ADD MSTORE PUSH1 0x80 DUP4 ADD MLOAD DUP5 DUP3 SUB PUSH1 0x80 DUP7 ADD MSTORE PUSH2 0x143C DUP3 DUP3 PUSH2 0x12C4 JUMP JUMPDEST SWAP2 POP POP PUSH1 0xA0 DUP4 ADD MLOAD ISZERO ISZERO PUSH1 0xA0 DUP6 ADD MSTORE PUSH1 0xC0 DUP4 ADD MLOAD PUSH1 0xC0 DUP6 ADD MSTORE DUP1 SWAP2 POP POP SWAP3 SWAP2 POP POP JUMP JUMPDEST PUSH1 0x20 DUP2 MSTORE PUSH1 0x0 PUSH2 0x1293 PUSH1 0x20 DUP4 ADD DUP5 PUSH2 0x13E8 JUMP JUMPDEST PUSH1 0x0 PUSH1 0x20 DUP1 DUP4 ADD DUP2 DUP5 MSTORE DUP1 DUP6 MLOAD DUP1 DUP4 MSTORE PUSH1 0x40 DUP7 ADD SWAP2 POP PUSH1 0x40 DUP2 PUSH1 0x5 SHL DUP8 ADD ADD SWAP3 POP DUP4 DUP8 ADD PUSH1 0x0 JUMPDEST DUP3 DUP2 LT ISZERO PUSH2 0x14C7 JUMPI PUSH1 0x3F NOT DUP9 DUP7 SUB ADD DUP5 MSTORE PUSH2 0x14B5 DUP6 DUP4 MLOAD PUSH2 0x13E8 JUMP JUMPDEST SWAP5 POP SWAP3 DUP6 ADD SWAP3 SWAP1 DUP6 ADD SWAP1 PUSH1 0x1 ADD PUSH2 0x1499 JUMP JUMPDEST POP SWAP3 SWAP8 SWAP7 POP POP POP POP POP POP POP JUMP JUMPDEST PUSH1 0x0 PUSH1 0x20 DUP3 DUP5 SUB SLT ISZERO PUSH2 0x14E6 JUMPI PUSH1 0x0 DUP1 REVERT JUMPDEST DUP2 MLOAD DUP1 ISZERO ISZERO DUP2 EQ PUSH2 0x1293 JUMPI PUSH1 0x0 DUP1 REVERT JUMPDEST PUSH1 0x20 DUP1 DUP3 MSTORE PUSH1 0x25 SWAP1 DUP3 ADD MSTORE PUSH32 0x4C6120656D7072657361206E6F20657869737465206F206E6F20657374612061 PUSH1 0x40 DUP3 ADD MSTORE PUSH5 0x6374697661 PUSH1 0xD8 SHL PUSH1 0x60 DUP3 ADD MSTORE PUSH1 0x80 ADD SWAP1 JUMP JUMPDEST PUSH4 0x4E487B71 PUSH1 0xE0 SHL PUSH1 0x0 MSTORE PUSH1 0x11 PUSH1 0x4 MSTORE PUSH1 0x24 PUSH1 0x0 REVERT JUMPDEST DUP1 DUP3 ADD DUP1 DUP3 GT ISZERO PUSH2 0xA6D JUMPI PUSH2 0xA6D PUSH2 0x153B JUMP JUMPDEST PUSH1 0x1 DUP2 DUP2 SHR SWAP1 DUP3 AND DUP1 PUSH2 0x1578 JUMPI PUSH1 0x7F DUP3 AND SWAP2 POP JUMPDEST PUSH1 0x20 DUP3 LT DUP2 SUB PUSH2 0x1598 JUMPI PUSH4 0x4E487B71 PUSH1 0xE0 SHL PUSH1 0x0 MSTORE PUSH1 0x22 PUSH1 0x4 MSTORE PUSH1 0x24 PUSH1 0x0 REVERT JUMPDEST POP SWAP2 SWAP1 POP JUMP JUMPDEST PUSH1 0x1F DUP3 GT ISZERO PUSH2 0x15E8 JUMPI PUSH1 0x0 DUP2 DUP2 MSTORE PUSH1 0x20 DUP2 KECCAK256 PUSH1 0x1F DUP6 ADD PUSH1 0x5 SHR DUP2 ADD PUSH1 0x20 DUP7 LT ISZERO PUSH2 0x15C5 JUMPI POP DUP1 JUMPDEST PUSH1 0x1F DUP6 ADD PUSH1 0x5 SHR DUP3 ADD SWAP2 POP JUMPDEST DUP2 DUP2 LT ISZERO PUSH2 0x15E4 JUMPI DUP3 DUP2 SSTORE PUSH1 0x1 ADD PUSH2 0x15D1 JUMP JUMPDEST POP POP POP JUMPDEST POP POP POP JUMP JUMPDEST DUP2 MLOAD PUSH8 0xFFFFFFFFFFFFFFFF DUP2 GT ISZERO PUSH2 0x1607 JUMPI PUSH2 0x1607 PUSH2 0x1157 JUMP JUMPDEST PUSH2 0x161B DUP2 PUSH2 0x1615 DUP5 SLOAD PUSH2 0x1564 JUMP JUMPDEST DUP5 PUSH2 0x159E JUMP JUMPDEST PUSH1 0x20 DUP1 PUSH1 0x1F DUP4 GT PUSH1 0x1 DUP2 EQ PUSH2 0x1650 JUMPI PUSH1 0x0 DUP5 ISZERO PUSH2 0x1638 JUMPI POP DUP6 DUP4 ADD MLOAD JUMPDEST PUSH1 0x0 NOT PUSH1 0x3 DUP7 SWAP1 SHL SHR NOT AND PUSH1 0x1 DUP6 SWAP1 SHL OR DUP6 SSTORE PUSH2 0x15E4 JUMP JUMPDEST PUSH1 0x0 DUP6 DUP2 MSTORE PUSH1 0x20 DUP2 KECCAK256 PUSH1 0x1F NOT DUP7 AND SWAP2 JUMPDEST DUP3 DUP2 LT ISZERO PUSH2 0x167F JUMPI DUP9 DUP7 ADD MLOAD DUP3 SSTORE SWAP5 DUP5 ADD SWAP5 PUSH1 0x1 SWAP1 SWAP2 ADD SWAP1 DUP5 ADD PUSH2 0x1660 JUMP JUMPDEST POP DUP6 DUP3 LT ISZERO PUSH2 0x169D JUMPI DUP8 DUP6 ADD MLOAD PUSH1 0x0 NOT PUSH1 0x3 DUP9 SWAP1 SHL PUSH1 0xF8 AND SHR NOT AND DUP2 SSTORE JUMPDEST POP POP POP POP POP PUSH1 0x1 SWAP1 DUP2 SHL ADD SWAP1 SSTORE POP JUMP JUMPDEST PUSH1 0x60 DUP2 MSTORE PUSH1 0x0 PUSH2 0x16C0 PUSH1 0x60 DUP4 ADD DUP7 PUSH2 0x12C4 JUMP JUMPDEST DUP5 PUSH1 0x20 DUP5 ADD MSTORE DUP3 DUP2 SUB PUSH1 0x40 DUP5 ADD MSTORE PUSH2 0x16D8 DUP2 DUP6 PUSH2 0x12C4 JUMP JUMPDEST SWAP7 SWAP6 POP POP POP POP POP POP JUMP JUMPDEST PUSH1 0x20 DUP1 DUP3 MSTORE PUSH1 0x26 SWAP1 DUP3 ADD MSTORE PUSH32 0x456C2070726F647563746F206E6F20657869737465206F206E6F206573746120 PUSH1 0x40 DUP3 ADD MSTORE PUSH6 0x61637469766F PUSH1 0xD0 SHL PUSH1 0x60 DUP3 ADD MSTORE PUSH1 0x80 ADD SWAP1 JUMP JUMPDEST PUSH4 0x4E487B71 PUSH1 0xE0 SHL PUSH1 0x0 MSTORE PUSH1 0x32 PUSH1 0x4 MSTORE PUSH1 0x24 PUSH1 0x0 REVERT JUMPDEST PUSH1 0x0 PUSH1 0x1 DUP3 ADD PUSH2 0x1750 JUMPI PUSH2 0x1750 PUSH2 0x153B JUMP JUMPDEST POP PUSH1 0x1 ADD SWAP1 JUMP INVALID LOG2 PUSH5 0x6970667358 0x22 SLT KECCAK256 SELFBALANCE GASPRICE PUSH17 0x5C9909BD5D6208BC11657C7A1901D5C8A6 0xEE DUP11 BLOCKHASH MOD DUP13 0x4B PUSH1 0x41 CREATE2 0xBB PUSH24 0x1A64736F6C63430008140033000000000000000000000000 "},"methodIdentifiers":{"actualizarProducto(address,uint256,string,uint256,string)":"876a404f","contadorProductos(address)":"27e46553","crearProducto(address,string,uint256,string)":"1bf26e9b","desactivarProducto(address,uint256)":"6b3f7f61","empresaContract()":"bcc44d7f","esProductoActivo(address,uint256)":"98c6e36e","obtenerProducto(address,uint256)":"bb763c5e","obtenerProductosPorEmpresa(address)":"d5890dda","obtenerTotalProductosPorEmpresa(address)":"2a8c3fd7","owner()":"8da5cb5b","productos(address,uint256)":"2a582142","productosPorEmpresa(address,uint256)":"6cc8f096","renounceOwnership()":"715018a6","transferOwnership(address)":"f2fde38b"}}}}}