{
  "_format": "hh-sol-artifact-1",
  "contractName": "EuroToken",
  "sourceName": "contracts/EuroToken.sol",
  "abi": [
    {
      "inputs": [],
      "stateMutability": "nonpayable",
      "type": "constructor"
    },
    {
      "inputs": [
        {
          "internalType": "address",
          "name": "spender",
          "type": "address"
        },
        {
          "internalType": "uint256",
          "name": "allowance",
          "type": "uint256"
        },
        {
          "internalType": "uint256",
          "name": "needed",
          "type": "uint256"
        }
      ],
      "name": "ERC20InsufficientAllowance",
      "type": "error"
    },
    {
      "inputs": [
        {
          "internalType": "address",
          "name": "sender",
          "type": "address"
        },
        {
          "internalType": "uint256",
          "name": "balance",
          "type": "uint256"
        },
        {
          "internalType": "uint256",
          "name": "needed",
          "type": "uint256"
        }
      ],
      "name": "ERC20InsufficientBalance",
      "type": "error"
    },
    {
      "inputs": [
        {
          "internalType": "address",
          "name": "approver",
          "type": "address"
        }
      ],
      "name": "ERC20InvalidApprover",
      "type": "error"
    },
    {
      "inputs": [
        {
          "internalType": "address",
          "name": "receiver",
          "type": "address"
        }
      ],
      "name": "ERC20InvalidReceiver",
      "type": "error"
    },
    {
      "inputs": [
        {
          "internalType": "address",
          "name": "sender",
          "type": "address"
        }
      ],
      "name": "ERC20InvalidSender",
      "type": "error"
    },
    {
      "inputs": [
        {
          "internalType": "address",
          "name": "spender",
          "type": "address"
        }
      ],
      "name": "ERC20InvalidSpender",
      "type": "error"
    },
    {
      "inputs": [],
      "name": "EnforcedPause",
      "type": "error"
    },
    {
      "inputs": [],
      "name": "ExpectedPause",
      "type": "error"
    },
    {
      "inputs": [
        {
          "internalType": "address",
          "name": "owner",
          "type": "address"
        }
      ],
      "name": "OwnableInvalidOwner",
      "type": "error"
    },
    {
      "inputs": [
        {
          "internalType": "address",
          "name": "account",
          "type": "address"
        }
      ],
      "name": "OwnableUnauthorizedAccount",
      "type": "error"
    },
    {
      "anonymous": false,
      "inputs": [
        {
          "indexed": true,
          "internalType": "address",
          "name": "owner",
          "type": "address"
        },
        {
          "indexed": true,
          "internalType": "address",
          "name": "spender",
          "type": "address"
        },
        {
          "indexed": false,
          "internalType": "uint256",
          "name": "value",
          "type": "uint256"
        }
      ],
      "name": "Approval",
      "type": "event"
    },
    {
      "anonymous": false,
      "inputs": [
        {
          "indexed": false,
          "internalType": "uint256",
          "name": "newEntryFee",
          "type": "uint256"
        },
        {
          "indexed": false,
          "internalType": "uint256",
          "name": "newExitFee",
          "type": "uint256"
        }
      ],
      "name": "FeesUpdated",
      "type": "event"
    },
    {
      "anonymous": false,
      "inputs": [
        {
          "indexed": true,
          "internalType": "address",
          "name": "previousOwner",
          "type": "address"
        },
        {
          "indexed": true,
          "internalType": "address",
          "name": "newOwner",
          "type": "address"
        }
      ],
      "name": "OwnershipTransferred",
      "type": "event"
    },
    {
      "anonymous": false,
      "inputs": [
        {
          "indexed": false,
          "internalType": "address",
          "name": "account",
          "type": "address"
        }
      ],
      "name": "Paused",
      "type": "event"
    },
    {
      "anonymous": false,
      "inputs": [
        {
          "indexed": true,
          "internalType": "address",
          "name": "buyer",
          "type": "address"
        },
        {
          "indexed": false,
          "internalType": "uint256",
          "name": "euroAmount",
          "type": "uint256"
        },
        {
          "indexed": false,
          "internalType": "uint256",
          "name": "tokenAmount",
          "type": "uint256"
        },
        {
          "indexed": false,
          "internalType": "uint256",
          "name": "fee",
          "type": "uint256"
        }
      ],
      "name": "TokensPurchased",
      "type": "event"
    },
    {
      "anonymous": false,
      "inputs": [
        {
          "indexed": true,
          "internalType": "address",
          "name": "seller",
          "type": "address"
        },
        {
          "indexed": false,
          "internalType": "uint256",
          "name": "tokenAmount",
          "type": "uint256"
        },
        {
          "indexed": false,
          "internalType": "uint256",
          "name": "euroAmount",
          "type": "uint256"
        },
        {
          "indexed": false,
          "internalType": "uint256",
          "name": "fee",
          "type": "uint256"
        }
      ],
      "name": "TokensWithdrawn",
      "type": "event"
    },
    {
      "anonymous": false,
      "inputs": [
        {
          "indexed": true,
          "internalType": "address",
          "name": "from",
          "type": "address"
        },
        {
          "indexed": true,
          "internalType": "address",
          "name": "to",
          "type": "address"
        },
        {
          "indexed": false,
          "internalType": "uint256",
          "name": "value",
          "type": "uint256"
        }
      ],
      "name": "Transfer",
      "type": "event"
    },
    {
      "anonymous": false,
      "inputs": [
        {
          "indexed": false,
          "internalType": "address",
          "name": "account",
          "type": "address"
        }
      ],
      "name": "Unpaused",
      "type": "event"
    },
    {
      "inputs": [
        {
          "internalType": "address",
          "name": "owner",
          "type": "address"
        },
        {
          "internalType": "address",
          "name": "spender",
          "type": "address"
        }
      ],
      "name": "allowance",
      "outputs": [
        {
          "internalType": "uint256",
          "name": "",
          "type": "uint256"
        }
      ],
      "stateMutability": "view",
      "type": "function"
    },
    {
      "inputs": [
        {
          "internalType": "address",
          "name": "spender",
          "type": "address"
        },
        {
          "internalType": "uint256",
          "name": "value",
          "type": "uint256"
        }
      ],
      "name": "approve",
      "outputs": [
        {
          "internalType": "bool",
          "name": "",
          "type": "bool"
        }
      ],
      "stateMutability": "nonpayable",
      "type": "function"
    },
    {
      "inputs": [
        {
          "internalType": "address",
          "name": "account",
          "type": "address"
        }
      ],
      "name": "balanceOf",
      "outputs": [
        {
          "internalType": "uint256",
          "name": "",
          "type": "uint256"
        }
      ],
      "stateMutability": "view",
      "type": "function"
    },
    {
      "inputs": [],
      "name": "decimals",
      "outputs": [
        {
          "internalType": "uint8",
          "name": "",
          "type": "uint8"
        }
      ],
      "stateMutability": "view",
      "type": "function"
    },
    {
      "inputs": [],
      "name": "entryFee",
      "outputs": [
        {
          "internalType": "uint256",
          "name": "",
          "type": "uint256"
        }
      ],
      "stateMutability": "view",
      "type": "function"
    },
    {
      "inputs": [],
      "name": "exitFee",
      "outputs": [
        {
          "internalType": "uint256",
          "name": "",
          "type": "uint256"
        }
      ],
      "stateMutability": "view",
      "type": "function"
    },
    {
      "inputs": [],
      "name": "name",
      "outputs": [
        {
          "internalType": "string",
          "name": "",
          "type": "string"
        }
      ],
      "stateMutability": "view",
      "type": "function"
    },
    {
      "inputs": [],
      "name": "owner",
      "outputs": [
        {
          "internalType": "address",
          "name": "",
          "type": "address"
        }
      ],
      "stateMutability": "view",
      "type": "function"
    },
    {
      "inputs": [],
      "name": "pause",
      "outputs": [],
      "stateMutability": "nonpayable",
      "type": "function"
    },
    {
      "inputs": [],
      "name": "paused",
      "outputs": [
        {
          "internalType": "bool",
          "name": "",
          "type": "bool"
        }
      ],
      "stateMutability": "view",
      "type": "function"
    },
    {
      "inputs": [],
      "name": "paymentContract",
      "outputs": [
        {
          "internalType": "address",
          "name": "",
          "type": "address"
        }
      ],
      "stateMutability": "view",
      "type": "function"
    },
    {
      "inputs": [
        {
          "internalType": "address",
          "name": "buyer",
          "type": "address"
        },
        {
          "internalType": "uint256",
          "name": "euroAmount",
          "type": "uint256"
        }
      ],
      "name": "purchaseTokens",
      "outputs": [],
      "stateMutability": "nonpayable",
      "type": "function"
    },
    {
      "inputs": [],
      "name": "renounceOwnership",
      "outputs": [],
      "stateMutability": "nonpayable",
      "type": "function"
    },
    {
      "inputs": [
        {
          "internalType": "address",
          "name": "_paymentContract",
          "type": "address"
        }
      ],
      "name": "setPaymentContract",
      "outputs": [],
      "stateMutability": "nonpayable",
      "type": "function"
    },
    {
      "inputs": [],
      "name": "symbol",
      "outputs": [
        {
          "internalType": "string",
          "name": "",
          "type": "string"
        }
      ],
      "stateMutability": "view",
      "type": "function"
    },
    {
      "inputs": [],
      "name": "totalSupply",
      "outputs": [
        {
          "internalType": "uint256",
          "name": "",
          "type": "uint256"
        }
      ],
      "stateMutability": "view",
      "type": "function"
    },
    {
      "inputs": [
        {
          "internalType": "address",
          "name": "to",
          "type": "address"
        },
        {
          "internalType": "uint256",
          "name": "value",
          "type": "uint256"
        }
      ],
      "name": "transfer",
      "outputs": [
        {
          "internalType": "bool",
          "name": "",
          "type": "bool"
        }
      ],
      "stateMutability": "nonpayable",
      "type": "function"
    },
    {
      "inputs": [
        {
          "internalType": "address",
          "name": "from",
          "type": "address"
        },
        {
          "internalType": "address",
          "name": "to",
          "type": "address"
        },
        {
          "internalType": "uint256",
          "name": "value",
          "type": "uint256"
        }
      ],
      "name": "transferFrom",
      "outputs": [
        {
          "internalType": "bool",
          "name": "",
          "type": "bool"
        }
      ],
      "stateMutability": "nonpayable",
      "type": "function"
    },
    {
      "inputs": [
        {
          "internalType": "address",
          "name": "newOwner",
          "type": "address"
        }
      ],
      "name": "transferOwnership",
      "outputs": [],
      "stateMutability": "nonpayable",
      "type": "function"
    },
    {
      "inputs": [],
      "name": "unpause",
      "outputs": [],
      "stateMutability": "nonpayable",
      "type": "function"
    },
    {
      "inputs": [
        {
          "internalType": "uint256",
          "name": "_entryFee",
          "type": "uint256"
        },
        {
          "internalType": "uint256",
          "name": "_exitFee",
          "type": "uint256"
        }
      ],
      "name": "updateFees",
      "outputs": [],
      "stateMutability": "nonpayable",
      "type": "function"
    },
    {
      "inputs": [
        {
          "internalType": "address",
          "name": "seller",
          "type": "address"
        },
        {
          "internalType": "uint256",
          "name": "tokenAmount",
          "type": "uint256"
        }
      ],
      "name": "withdrawTokens",
      "outputs": [],
      "stateMutability": "nonpayable",
      "type": "function"
    }
  ],
  "bytecode": "0x608060405260fa60065560fa6007553480156200001b57600080fd5b50336040518060400160405280600a81526020016922bab937902a37b5b2b760b11b815250604051806040016040528060048152602001634555524f60e01b81525081600390816200006e9190620001b8565b5060046200007d8282620001b8565b5050506001600160a01b038116620000af57604051631e4fbdf760e01b81526000600482015260240160405180910390fd5b620000ba81620000c1565b5062000284565b600580546001600160a01b038381166001600160a01b0319831681179093556040519116919082907f8be0079c531659141344cd1fd0a4f28419497f9722a3daafe3b4186f6b6457e090600090a35050565b634e487b7160e01b600052604160045260246000fd5b600181811c908216806200013e57607f821691505b6020821081036200015f57634e487b7160e01b600052602260045260246000fd5b50919050565b601f821115620001b357600081815260208120601f850160051c810160208610156200018e5750805b601f850160051c820191505b81811015620001af578281556001016200019a565b5050505b505050565b81516001600160401b03811115620001d457620001d462000113565b620001ec81620001e5845462000129565b8462000165565b602080601f8311600181146200022457600084156200020b5750858301515b600019600386901b1c1916600185901b178555620001af565b600085815260208120601f198616915b82811015620002555788860151825594840194600190910190840162000234565b5085821015620002745787850151600019600388901b60f8161c191681555b5050505050600190811b01905550565b610ef080620002946000396000f3fe608060405234801561001057600080fd5b50600436106101425760003560e01c80636db79437116100b85780638da5cb5b1161007c5780638da5cb5b1461027357806395d89b41146102985780639c91dd56146102a0578063a9059cbb146102b3578063dd62ed3e146102c6578063f2fde38b146102ff57600080fd5b80636db794371461021457806370a0823114610227578063715018a6146102505780638456cb59146102585780638abb20cc1461026057600080fd5b806322ea22311161010a57806322ea2231146101bc57806323b872dd146101cf578063313ce567146101e25780633f4ba83a146101f15780635c975abb146101f95780636284ae411461020b57600080fd5b806306b091f91461014757806306fdde031461015c578063072ea61c1461017a578063095ea7b31461019157806318160ddd146101b4575b600080fd5b61015a610155366004610c8d565b610312565b005b61016461043a565b6040516101719190610cb7565b60405180910390f35b61018360065481565b604051908152602001610171565b6101a461019f366004610c8d565b6104cc565b6040519015158152602001610171565b600254610183565b61015a6101ca366004610c8d565b6104e6565b6101a46101dd366004610d05565b610598565b60405160128152602001610171565b61015a6105bc565b600554600160a01b900460ff166101a4565b61018360075481565b61015a610222366004610d41565b6105ce565b610183610235366004610d63565b6001600160a01b031660009081526020819052604090205490565b61015a6106ec565b61015a6106fe565b61015a61026e366004610d63565b61070e565b6005546001600160a01b03165b6040516001600160a01b039091168152602001610171565b610164610738565b600854610280906001600160a01b031681565b6101a46102c1366004610c8d565b610747565b6101836102d4366004610d85565b6001600160a01b03918216600090815260016020908152604080832093909416825291909152205490565b61015a61030d366004610d63565b610755565b6008546001600160a01b031633146103455760405162461bcd60e51b815260040161033c90610db8565b60405180910390fd5b61034d610793565b8061036d836001600160a01b031660009081526020819052604090205490565b10156103b05760405162461bcd60e51b815260206004820152601260248201527153616c646f20696e737566696369656e746560701b604482015260640161033c565b6000612710600754836103c39190610e21565b6103cd9190610e38565b905060006103db8284610e5a565b90506103e784846107be565b60408051848152602081018390529081018390526001600160a01b038516907fb3ad69dc1d2c6b1f5f5b0927ffd8ee8f1437a156253c8f6dccc75e6f8e4fd38b906060015b60405180910390a250505050565b60606003805461044990610e6d565b80601f016020809104026020016040519081016040528092919081815260200182805461047590610e6d565b80156104c25780601f10610497576101008083540402835291602001916104c2565b820191906000526020600020905b8154815290600101906020018083116104a557829003601f168201915b5050505050905090565b6000336104da8185856107f8565b60019150505b92915050565b6008546001600160a01b031633146105105760405162461bcd60e51b815260040161033c90610db8565b610518610793565b60006127106006548361052b9190610e21565b6105359190610e38565b905060006105438284610e5a565b905061054f848261080a565b60408051848152602081018390529081018390526001600160a01b038516907f0d1a0d5e3d583a0e92588799dd06e50fd78c07daf05f0cc06d7b848b1ca445f19060600161042c565b6000336105a6858285610840565b6105b18585856108bf565b506001949350505050565b6105c461091e565b6105cc61094b565b565b6105d661091e565b6103e882111561063e5760405162461bcd60e51b815260206004820152602d60248201527f436f6d6973696f6e20646520656e7472616461206e6f2070756564652073657260448201526c206d61796f7220616c2031302560981b606482015260840161033c565b6103e88111156106a55760405162461bcd60e51b815260206004820152602c60248201527f436f6d6973696f6e2064652073616c696461206e6f207075656465207365722060448201526b6d61796f7220616c2031302560a01b606482015260840161033c565b6006829055600781905560408051838152602081018390527f5c6323bf1c2d7aaea2c091a4751c1c87af7f2864650c336507a77d0557af37a1910160405180910390a15050565b6106f461091e565b6105cc60006109a0565b61070661091e565b6105cc6109f2565b61071661091e565b600880546001600160a01b0319166001600160a01b0392909216919091179055565b60606004805461044990610e6d565b6000336104da8185856108bf565b61075d61091e565b6001600160a01b03811661078757604051631e4fbdf760e01b81526000600482015260240161033c565b610790816109a0565b50565b600554600160a01b900460ff16156105cc5760405163d93c066560e01b815260040160405180910390fd5b6001600160a01b0382166107e857604051634b637e8f60e11b81526000600482015260240161033c565b6107f482600083610a35565b5050565b6108058383836001610a48565b505050565b6001600160a01b0382166108345760405163ec442f0560e01b81526000600482015260240161033c565b6107f460008383610a35565b6001600160a01b038381166000908152600160209081526040808320938616835292905220546000198110156108b957818110156108aa57604051637dc7a0d960e11b81526001600160a01b0384166004820152602481018290526044810183905260640161033c565b6108b984848484036000610a48565b50505050565b6001600160a01b0383166108e957604051634b637e8f60e11b81526000600482015260240161033c565b6001600160a01b0382166109135760405163ec442f0560e01b81526000600482015260240161033c565b610805838383610a35565b6005546001600160a01b031633146105cc5760405163118cdaa760e01b815233600482015260240161033c565b610953610b1d565b6005805460ff60a01b191690557f5db9ee0a495bf2e6ff9c91a7834c1ba4fdd244a5e8aa4e537bd38aeae4b073aa335b6040516001600160a01b03909116815260200160405180910390a1565b600580546001600160a01b038381166001600160a01b0319831681179093556040519116919082907f8be0079c531659141344cd1fd0a4f28419497f9722a3daafe3b4186f6b6457e090600090a35050565b6109fa610793565b6005805460ff60a01b1916600160a01b1790557f62e78cea01bee320cd4e420270b5ea74000d11b0c9f74754ebdbfc544b05a2586109833390565b610a3d610793565b610805838383610b47565b6001600160a01b038416610a725760405163e602df0560e01b81526000600482015260240161033c565b6001600160a01b038316610a9c57604051634a1406b160e11b81526000600482015260240161033c565b6001600160a01b03808516600090815260016020908152604080832093871683529290522082905580156108b957826001600160a01b0316846001600160a01b03167f8c5be1e5ebec7d5bd14f71427d1e84f3dd0314c0f7b2291e5b200ac8c7c3b92584604051610b0f91815260200190565b60405180910390a350505050565b600554600160a01b900460ff166105cc57604051638dfc202b60e01b815260040160405180910390fd5b6001600160a01b038316610b72578060026000828254610b679190610ea7565b90915550610be49050565b6001600160a01b03831660009081526020819052604090205481811015610bc55760405163391434e360e21b81526001600160a01b0385166004820152602481018290526044810183905260640161033c565b6001600160a01b03841660009081526020819052604090209082900390555b6001600160a01b038216610c0057600280548290039055610c1f565b6001600160a01b03821660009081526020819052604090208054820190555b816001600160a01b0316836001600160a01b03167fddf252ad1be2c89b69c2b068fc378daa952ba7f163c4a11628f55a4df523b3ef83604051610c6491815260200190565b60405180910390a3505050565b80356001600160a01b0381168114610c8857600080fd5b919050565b60008060408385031215610ca057600080fd5b610ca983610c71565b946020939093013593505050565b600060208083528351808285015260005b81811015610ce457858101830151858201604001528201610cc8565b506000604082860101526040601f19601f8301168501019250505092915050565b600080600060608486031215610d1a57600080fd5b610d2384610c71565b9250610d3160208501610c71565b9150604084013590509250925092565b60008060408385031215610d5457600080fd5b50508035926020909101359150565b600060208284031215610d7557600080fd5b610d7e82610c71565b9392505050565b60008060408385031215610d9857600080fd5b610da183610c71565b9150610daf60208401610c71565b90509250929050565b60208082526033908201527f536f6c6f20656c20636f6e747261746f206465207061676f7320707565646520604082015272363630b6b0b91032b9ba3090333ab731b4b7b760691b606082015260800190565b634e487b7160e01b600052601160045260246000fd5b80820281158282048414176104e0576104e0610e0b565b600082610e5557634e487b7160e01b600052601260045260246000fd5b500490565b818103818111156104e0576104e0610e0b565b600181811c90821680610e8157607f821691505b602082108103610ea157634e487b7160e01b600052602260045260246000fd5b50919050565b808201808211156104e0576104e0610e0b56fea2646970667358221220f14179b292241091a4625d760196f5d5f0472849045ab5124d700fe3d730634d64736f6c63430008140033",
  "linkReferences": {},
  "deployedLinkReferences": {}
}