{
  "_format": "hh-sol-artifact-1",
  "contractName": "EcommerceSystem",
  "sourceName": "contracts/EcommerceSystem.sol",
  "abi": [
    {
      "inputs": [],
      "stateMutability": "nonpayable",
      "type": "constructor"
    },
    {
      "inputs": [
        {
          "internalType": "address",
          "name": "owner",
          "type": "address"
        }
      ],
      "name": "OwnableInvalidOwner",
      "type": "error"
    },
    {
      "inputs": [
        {
          "internalType": "address",
          "name": "account",
          "type": "address"
        }
      ],
      "name": "OwnableUnauthorizedAccount",
      "type": "error"
    },
    {
      "inputs": [],
      "name": "ReentrancyGuardReentrantCall",
      "type": "error"
    },
    {
      "anonymous": false,
      "inputs": [
        {
          "indexed": true,
          "internalType": "address",
          "name": "cliente",
          "type": "address"
        },
        {
          "indexed": true,
          "internalType": "address",
          "name": "empresa",
          "type": "address"
        },
        {
          "indexed": false,
          "internalType": "uint256",
          "name": "numeroFactura",
          "type": "uint256"
        },
        {
          "indexed": false,
          "internalType": "uint256",
          "name": "total",
          "type": "uint256"
        }
      ],
      "name": "CompraRealizada",
      "type": "event"
    },
    {
      "anonymous": false,
      "inputs": [
        {
          "indexed": true,
          "internalType": "address",
          "name": "previousOwner",
          "type": "address"
        },
        {
          "indexed": true,
          "internalType": "address",
          "name": "newOwner",
          "type": "address"
        }
      ],
      "name": "OwnershipTransferred",
      "type": "event"
    },
    {
      "anonymous": false,
      "inputs": [
        {
          "indexed": true,
          "internalType": "address",
          "name": "from",
          "type": "address"
        },
        {
          "indexed": true,
          "internalType": "address",
          "name": "to",
          "type": "address"
        },
        {
          "indexed": false,
          "internalType": "uint256",
          "name": "amount",
          "type": "uint256"
        }
      ],
      "name": "TokensTransferidos",
      "type": "event"
    },
    {
      "inputs": [
        {
          "internalType": "uint256",
          "name": "_amount",
          "type": "uint256"
        }
      ],
      "name": "aprobarTokens",
      "outputs": [],
      "stateMutability": "nonpayable",
      "type": "function"
    },
    {
      "inputs": [],
      "name": "clienteContract",
      "outputs": [
        {
          "internalType": "contract Cliente",
          "name": "",
          "type": "address"
        }
      ],
      "stateMutability": "view",
      "type": "function"
    },
    {
      "inputs": [
        {
          "internalType": "address",
          "name": "_euroToken",
          "type": "address"
        },
        {
          "internalType": "address",
          "name": "_empresaContract",
          "type": "address"
        },
        {
          "internalType": "address",
          "name": "_productoContract",
          "type": "address"
        },
        {
          "internalType": "address",
          "name": "_clienteContract",
          "type": "address"
        },
        {
          "internalType": "address",
          "name": "_facturaContract",
          "type": "address"
        }
      ],
      "name": "configurarContratos",
      "outputs": [],
      "stateMutability": "nonpayable",
      "type": "function"
    },
    {
      "inputs": [],
      "name": "empresaContract",
      "outputs": [
        {
          "internalType": "contract Empresa",
          "name": "",
          "type": "address"
        }
      ],
      "stateMutability": "view",
      "type": "function"
    },
    {
      "inputs": [],
      "name": "euroToken",
      "outputs": [
        {
          "internalType": "contract EuroToken",
          "name": "",
          "type": "address"
        }
      ],
      "stateMutability": "view",
      "type": "function"
    },
    {
      "inputs": [],
      "name": "facturaContract",
      "outputs": [
        {
          "internalType": "contract Factura",
          "name": "",
          "type": "address"
        }
      ],
      "stateMutability": "view",
      "type": "function"
    },
    {
      "inputs": [
        {
          "internalType": "address",
          "name": "_usuario",
          "type": "address"
        }
      ],
      "name": "obtenerBalanceTokens",
      "outputs": [
        {
          "internalType": "uint256",
          "name": "",
          "type": "uint256"
        }
      ],
      "stateMutability": "view",
      "type": "function"
    },
    {
      "inputs": [
        {
          "internalType": "address",
          "name": "_empresaAddress",
          "type": "address"
        },
        {
          "internalType": "address",
          "name": "_clienteAddress",
          "type": "address"
        }
      ],
      "name": "obtenerHistorialCompras",
      "outputs": [
        {
          "components": [
            {
              "internalType": "address",
              "name": "empresaAddress",
              "type": "address"
            },
            {
              "internalType": "uint256",
              "name": "numero",
              "type": "uint256"
            },
            {
              "internalType": "uint256",
              "name": "fecha",
              "type": "uint256"
            },
            {
              "internalType": "address",
              "name": "clienteAddress",
              "type": "address"
            },
            {
              "internalType": "uint256",
              "name": "importeTotal",
              "type": "uint256"
            },
            {
              "internalType": "bool",
              "name": "pagada",
              "type": "bool"
            },
            {
              "internalType": "uint256",
              "name": "fechaCreacion",
              "type": "uint256"
            }
          ],
          "internalType": "struct Factura.FacturaData[]",
          "name": "",
          "type": "tuple[]"
        }
      ],
      "stateMutability": "view",
      "type": "function"
    },
    {
      "inputs": [
        {
          "internalType": "address",
          "name": "_empresaAddress",
          "type": "address"
        }
      ],
      "name": "obtenerInfoEmpresa",
      "outputs": [
        {
          "components": [
            {
              "internalType": "address",
              "name": "empresaAddress",
              "type": "address"
            },
            {
              "internalType": "string",
              "name": "nombre",
              "type": "string"
            },
            {
              "internalType": "bool",
              "name": "activa",
              "type": "bool"
            },
            {
              "internalType": "uint256",
              "name": "fechaCreacion",
              "type": "uint256"
            }
          ],
          "internalType": "struct Empresa.EmpresaData",
          "name": "",
          "type": "tuple"
        }
      ],
      "stateMutability": "view",
      "type": "function"
    },
    {
      "inputs": [
        {
          "internalType": "address",
          "name": "_empresaAddress",
          "type": "address"
        },
        {
          "internalType": "uint256",
          "name": "_productoId",
          "type": "uint256"
        }
      ],
      "name": "obtenerInfoProducto",
      "outputs": [
        {
          "internalType": "address",
          "name": "empresaAddress",
          "type": "address"
        },
        {
          "internalType": "uint256",
          "name": "id",
          "type": "uint256"
        },
        {
          "internalType": "string",
          "name": "nombre",
          "type": "string"
        },
        {
          "internalType": "uint256",
          "name": "precio",
          "type": "uint256"
        },
        {
          "internalType": "string",
          "name": "imagenIPFS",
          "type": "string"
        },
        {
          "internalType": "bool",
          "name": "activo",
          "type": "bool"
        },
        {
          "internalType": "uint256",
          "name": "fechaCreacion",
          "type": "uint256"
        }
      ],
      "stateMutability": "view",
      "type": "function"
    },
    {
      "inputs": [
        {
          "internalType": "address",
          "name": "_empresaAddress",
          "type": "address"
        }
      ],
      "name": "obtenerProductosEmpresa",
      "outputs": [
        {
          "components": [
            {
              "internalType": "address",
              "name": "empresaAddress",
              "type": "address"
            },
            {
              "internalType": "uint256",
              "name": "id",
              "type": "uint256"
            },
            {
              "internalType": "string",
              "name": "nombre",
              "type": "string"
            },
            {
              "internalType": "uint256",
              "name": "precio",
              "type": "uint256"
            },
            {
              "internalType": "string",
              "name": "imagenIPFS",
              "type": "string"
            },
            {
              "internalType": "bool",
              "name": "activo",
              "type": "bool"
            },
            {
              "internalType": "uint256",
              "name": "fechaCreacion",
              "type": "uint256"
            }
          ],
          "internalType": "struct Producto.ProductoData[]",
          "name": "",
          "type": "tuple[]"
        }
      ],
      "stateMutability": "view",
      "type": "function"
    },
    {
      "inputs": [
        {
          "internalType": "address",
          "name": "_empresaAddress",
          "type": "address"
        },
        {
          "internalType": "address",
          "name": "_clienteAddress",
          "type": "address"
        }
      ],
      "name": "obtenerTotalComprasCliente",
      "outputs": [
        {
          "internalType": "uint256",
          "name": "",
          "type": "uint256"
        }
      ],
      "stateMutability": "view",
      "type": "function"
    },
    {
      "inputs": [],
      "name": "owner",
      "outputs": [
        {
          "internalType": "address",
          "name": "",
          "type": "address"
        }
      ],
      "stateMutability": "view",
      "type": "function"
    },
    {
      "inputs": [
        {
          "internalType": "address",
          "name": "_empresaAddress",
          "type": "address"
        },
        {
          "components": [
            {
              "internalType": "address",
              "name": "empresaAddress",
              "type": "address"
            },
            {
              "internalType": "uint256",
              "name": "productoId",
              "type": "uint256"
            },
            {
              "internalType": "uint256",
              "name": "cantidad",
              "type": "uint256"
            },
            {
              "internalType": "uint256",
              "name": "precio",
              "type": "uint256"
            }
          ],
          "internalType": "struct EcommerceSystem.CartItem[]",
          "name": "_items",
          "type": "tuple[]"
        }
      ],
      "name": "procesarCompra",
      "outputs": [],
      "stateMutability": "nonpayable",
      "type": "function"
    },
    {
      "inputs": [],
      "name": "productoContract",
      "outputs": [
        {
          "internalType": "contract Producto",
          "name": "",
          "type": "address"
        }
      ],
      "stateMutability": "view",
      "type": "function"
    },
    {
      "inputs": [],
      "name": "renounceOwnership",
      "outputs": [],
      "stateMutability": "nonpayable",
      "type": "function"
    },
    {
      "inputs": [
        {
          "internalType": "uint256",
          "name": "_amount",
          "type": "uint256"
        }
      ],
      "name": "retirarTokens",
      "outputs": [],
      "stateMutability": "nonpayable",
      "type": "function"
    },
    {
      "inputs": [
        {
          "internalType": "address",
          "name": "newOwner",
          "type": "address"
        }
      ],
      "name": "transferOwnership",
      "outputs": [],
      "stateMutability": "nonpayable",
      "type": "function"
    }
  ],
  "bytecode": "0x608060405234801561001057600080fd5b50338061003757604051631e4fbdf760e01b81526000600482015260240160405180910390fd5b6100408161004a565b506001805561009a565b600080546001600160a01b038381166001600160a01b0319831681178455604051919092169283917f8be0079c531659141344cd1fd0a4f28419497f9722a3daafe3b4186f6b6457e09190a35050565b611b5a806100a96000396000f3fe608060405234801561001057600080fd5b50600436106101155760003560e01c80637699c8ee116100a2578063aab4735911610071578063aab4735914610258578063bcc44d7f1461026b578063bed706b41461027e578063cfb3496f14610291578063f2fde38b146102b757600080fd5b80637699c8ee146102015780637c2bc9d6146102145780638da5cb5b1461022757806397ed504e1461023857600080fd5b80633ea1d20a116100e95780633ea1d20a146101a05780634c9c64b0146101c05780634f585800146101d35780636df5bf99146101e6578063715018a6146101f957600080fd5b8062689b801461011a57806316367f951461014057806329e9eaa4146101605780632dfb39fd14610175575b600080fd5b61012d6101283660046110d1565b6102ca565b6040519081526020015b60405180910390f35b61015361014e3660046110d1565b61034a565b604051610137919061110a565b61017361016e36600461119c565b6103c5565b005b600254610188906001600160a01b031681565b6040516001600160a01b039091168152602001610137565b6101b36101ae3660046111b5565b61052f565b6040516101379190611229565b600454610188906001600160a01b031681565b6101736101e13660046112f1565b61062e565b61012d6101f43660046111b5565b610695565b610173610704565b600654610188906001600160a01b031681565b61017361022236600461119c565b610718565b6000546001600160a01b0316610188565b61024b6102463660046111b5565b61074f565b6040516101379190611362565b610173610266366004611469565b6107f7565b600354610188906001600160a01b031681565b600554610188906001600160a01b031681565b6102a461029f366004611556565b610ea0565b6040516101379796959493929190611582565b6101736102c53660046111b5565b610fd7565b600554604051630b06df9b60e21b81526001600160a01b03848116600483015283811660248301526000921690632c1b7e6c90604401602060405180830381865afa15801561031d573d6000803e3d6000fd5b505050506040513d601f19601f8201168201806040525081019061034191906115d8565b90505b92915050565b6006546040516306bb357360e11b81526001600160a01b03848116600483015283811660248301526060921690630d766ae690604401600060405180830381865afa15801561039d573d6000803e3d6000fd5b505050506040513d6000823e601f3d908101601f191682016040526103419190810190611611565b6103cd611015565b6002546040516370a0823160e01b815230600482015282916001600160a01b0316906370a0823190602401602060405180830381865afa158015610415573d6000803e3d6000fd5b505050506040513d601f19601f8201168201806040525081019061043991906115d8565b10156104965760405162461bcd60e51b815260206004820152602160248201527f53616c646f20696e737566696369656e746520656e20656c20636f6e747261746044820152606f60f81b60648201526084015b60405180910390fd5b6002546001600160a01b031663a9059cbb6104b96000546001600160a01b031690565b6040516001600160e01b031960e084901b1681526001600160a01b039091166004820152602481018490526044015b6020604051808303816000875af1158015610507573d6000803e3d6000fd5b505050506040513d601f19601f8201168201806040525081019061052b9190611710565b5050565b600354604051632de295fd60e11b81526001600160a01b0383811660048301526060921690635bc52bfa90602401602060405180830381865afa15801561057a573d6000803e3d6000fd5b505050506040513d601f19601f8201168201806040525081019061059e9190611710565b6105ba5760405162461bcd60e51b815260040161048d9061172b565b60048054604051636ac486ed60e11b81526001600160a01b038581169382019390935291169063d5890dda90602401600060405180830381865afa158015610606573d6000803e3d6000fd5b505050506040513d6000823e601f3d908101601f1916820160405261034491908101906117dc565b610636611015565b600280546001600160a01b03199081166001600160a01b03978816179091556003805482169587169590951790945560048054851693861693909317909255600580548416918516919091179055600680549092169216919091179055565b6002546040516370a0823160e01b81526001600160a01b03838116600483015260009216906370a0823190602401602060405180830381865afa1580156106e0573d6000803e3d6000fd5b505050506040513d601f19601f8201168201806040525081019061034491906115d8565b61070c611015565b6107166000611042565b565b60025460405163095ea7b360e01b8152306004820152602481018390526001600160a01b039091169063095ea7b3906044016104e8565b610785604051806080016040528060006001600160a01b0316815260200160608152602001600015158152602001600081525090565b600354604051637678dcb560e11b81526001600160a01b0384811660048301529091169063ecf1b96a90602401600060405180830381865afa1580156107cf573d6000803e3d6000fd5b505050506040513d6000823e601f3d908101601f19168201604052610344919081019061192f565b6107ff611092565b600354604051632de295fd60e11b81526001600160a01b03848116600483015290911690635bc52bfa90602401602060405180830381865afa158015610849573d6000803e3d6000fd5b505050506040513d601f19601f8201168201806040525081019061086d9190611710565b6108895760405162461bcd60e51b815260040161048d9061172b565b60008151116108da5760405162461bcd60e51b815260206004820152601f60248201527f456c206361727269746f206e6f20707565646520657374617220766163696f00604482015260640161048d565b6000805b8251811015610bbd5760008382815181106108fb576108fb6119cd565b60200260200101519050846001600160a01b031681600001516001600160a01b0316146109805760405162461bcd60e51b815260206004820152602d60248201527f546f646f73206c6f73206974656d7320646562656e20736572206465206c612060448201526c6d69736d6120656d707265736160981b606482015260840161048d565b600480546020830151604051634c6371b760e11b81526001600160a01b038981169482019490945260248101919091529116906398c6e36e90604401602060405180830381865afa1580156109d9573d6000803e3d6000fd5b505050506040513d601f19601f820116820180604052508101906109fd9190611710565b610a195760405162461bcd60e51b815260040161048d906119e3565b6000816040015111610a775760405162461bcd60e51b815260206004820152602160248201527f4c612063616e7469646164206465626520736572206d61796f722061206365726044820152606f60f81b606482015260840161048d565b60048054602083015160405163152c10a160e11b81526000936001600160a01b0390931692632a58214292610ac2928b92016001600160a01b03929092168252602082015260400190565b600060405180830381865afa158015610adf573d6000803e3d6000fd5b505050506040513d6000823e601f3d908101601f19168201604052610b079190810190611a26565b505050935050505080826060015114610b885760405162461bcd60e51b815260206004820152603960248201527f456c2070726563696f2064656c206974656d206e6f20636f696e63696465206360448201527f6f6e20656c2070726563696f2064656c2070726f647563746f00000000000000606482015260840161048d565b81604001518260600151610b9c9190611ae1565b610ba69085611af8565b935050508080610bb590611b0b565b9150506108de565b506002546040516370a0823160e01b815233600482015282916001600160a01b0316906370a0823190602401602060405180830381865afa158015610c06573d6000803e3d6000fd5b505050506040513d601f19601f82011682018060405250810190610c2a91906115d8565b1015610c825760405162461bcd60e51b815260206004820152602160248201527f53616c646f20696e737566696369656e746520646520746f6b656e73204555526044820152604f60f81b606482015260840161048d565b6002546040516323b872dd60e01b8152336004820152306024820152604481018390526001600160a01b03909116906323b872dd906064016020604051808303816000875af1158015610cd9573d6000803e3d6000fd5b505050506040513d601f19601f82011682018060405250810190610cfd9190611710565b5060065460405163ccfafe2160e01b81526001600160a01b03858116600483015233602483015260448201849052600092169063ccfafe21906064016020604051808303816000875af1158015610d58573d6000803e3d6000fd5b505050506040513d601f19601f82011682018060405250810190610d7c91906115d8565b60065460405163046f7ef360e31b81526001600160a01b0387811660048301526024820184905292935091169063237bf79890604401600060405180830381600087803b158015610dcc57600080fd5b505af1158015610de0573d6000803e3d6000fd5b5050600554604051622149b560e51b81526001600160a01b03888116600483015233602483015260448201879052909116925063042936a09150606401600060405180830381600087803b158015610e3757600080fd5b505af1158015610e4b573d6000803e3d6000fd5b505060408051848152602081018690526001600160a01b03881693503392507f7c19ea7db8201015b323358dcc10ac97731deed38770f05e790d0eca3bfd031a910160405180910390a3505061052b60018055565b60048054604051634c6371b760e11b81526001600160a01b03858116938201939093526024810184905260009283926060928492849284928392909116906398c6e36e90604401602060405180830381865afa158015610f04573d6000803e3d6000fd5b505050506040513d601f19601f82011682018060405250810190610f289190611710565b610f445760405162461bcd60e51b815260040161048d906119e3565b6004805460405163152c10a160e11b81526001600160a01b038c811693820193909352602481018b9052911690632a58214290604401600060405180830381865afa158015610f97573d6000803e3d6000fd5b505050506040513d6000823e601f3d908101601f19168201604052610fbf9190810190611a26565b959f949e50929c50909a509850965090945092505050565b610fdf611015565b6001600160a01b03811661100957604051631e4fbdf760e01b81526000600482015260240161048d565b61101281611042565b50565b6000546001600160a01b031633146107165760405163118cdaa760e01b815233600482015260240161048d565b600080546001600160a01b038381166001600160a01b0319831681178455604051919092169283917f8be0079c531659141344cd1fd0a4f28419497f9722a3daafe3b4186f6b6457e09190a35050565b6002600154036110b557604051633ee5aeb560e01b815260040160405180910390fd5b6002600155565b6001600160a01b038116811461101257600080fd5b600080604083850312156110e457600080fd5b82356110ef816110bc565b915060208301356110ff816110bc565b809150509250929050565b602080825282518282018190526000919060409081850190868401855b8281101561118f57815180516001600160a01b03908116865287820151888701528682015187870152606080830151909116908601526080808201519086015260a08082015115159086015260c0908101519085015260e09093019290850190600101611127565b5091979650505050505050565b6000602082840312156111ae57600080fd5b5035919050565b6000602082840312156111c757600080fd5b81356111d2816110bc565b9392505050565b60005b838110156111f45781810151838201526020016111dc565b50506000910152565b600081518084526112158160208601602086016111d9565b601f01601f19169290920160200192915050565b60006020808301818452808551808352604092508286019150828160051b87010184880160005b838110156112e357888303603f19018552815180516001600160a01b0316845287810151888501528681015160e088860181905290611291828701826111fd565b9150506060808301518187015250608080830151868303828801526112b683826111fd565b60a08581015115159089015260c09485015194909701939093525050509386019390860190600101611250565b509098975050505050505050565b600080600080600060a0868803121561130957600080fd5b8535611314816110bc565b94506020860135611324816110bc565b93506040860135611334816110bc565b92506060860135611344816110bc565b91506080860135611354816110bc565b809150509295509295909350565b602080825282516001600160a01b0316828201528201516080604083015260009061139060a08401826111fd565b9050604084015115156060840152606084015160808401528091505092915050565b634e487b7160e01b600052604160045260246000fd5b6040516080810167ffffffffffffffff811182821017156113eb576113eb6113b2565b60405290565b60405160e0810167ffffffffffffffff811182821017156113eb576113eb6113b2565b604051601f8201601f1916810167ffffffffffffffff8111828210171561143d5761143d6113b2565b604052919050565b600067ffffffffffffffff82111561145f5761145f6113b2565b5060051b60200190565b600080604080848603121561147d57600080fd5b8335611488816110bc565b925060208481013567ffffffffffffffff8111156114a557600080fd5b8501601f810187136114b657600080fd5b80356114c96114c482611445565b611414565b81815260079190911b820183019083810190898311156114e857600080fd5b928401925b82841015611546576080848b0312156115065760008081fd5b61150e6113c8565b8435611519816110bc565b815284860135868201528685013587820152606080860135908201528252608090930192908401906114ed565b8096505050505050509250929050565b6000806040838503121561156957600080fd5b8235611574816110bc565b946020939093013593505050565b60018060a01b038816815286602082015260e0604082015260006115a960e08301886111fd565b86606084015282810360808401526115c181876111fd565b94151560a0840152505060c0015295945050505050565b6000602082840312156115ea57600080fd5b5051919050565b80516115fc816110bc565b919050565b805180151581146115fc57600080fd5b6000602080838503121561162457600080fd5b825167ffffffffffffffff81111561163b57600080fd5b8301601f8101851361164c57600080fd5b805161165a6114c482611445565b81815260e0918202830184019184820191908884111561167957600080fd5b938501935b838510156117045780858a0312156116965760008081fd5b61169e6113f1565b85516116a9816110bc565b81528587015187820152604080870151908201526060808701516116cc816110bc565b908201526080868101519082015260a06116e7818801611601565b9082015260c086810151908201528352938401939185019161167e565b50979650505050505050565b60006020828403121561172257600080fd5b61034182611601565b60208082526025908201527f4c6120656d7072657361206e6f20657869737465206f206e6f20657374612061604082015264637469766160d81b606082015260800190565b600082601f83011261178157600080fd5b815167ffffffffffffffff81111561179b5761179b6113b2565b6117ae601f8201601f1916602001611414565b8181528460208386010111156117c357600080fd5b6117d48260208301602087016111d9565b949350505050565b600060208083850312156117ef57600080fd5b825167ffffffffffffffff8082111561180757600080fd5b818501915085601f83011261181b57600080fd5b81516118296114c482611445565b81815260059190911b8301840190848101908883111561184857600080fd5b8585015b838110156119225780518581111561186357600080fd5b860160e0818c03601f1901121561187a5760008081fd5b6118826113f1565b61188d8983016115f1565b81526040808301518a830152606080840151898111156118ad5760008081fd5b6118bb8f8d83880101611770565b83850152506080915081840151818401525060a080840151898111156118e15760008081fd5b6118ef8f8d83880101611770565b838501525060c09150611903828501611601565b9083015260e0929092015191810191909152835291860191860161184c565b5098975050505050505050565b60006020828403121561194157600080fd5b815167ffffffffffffffff8082111561195957600080fd5b908301906080828603121561196d57600080fd5b6119756113c8565b8251611980816110bc565b815260208301518281111561199457600080fd5b6119a087828601611770565b6020830152506119b260408401611601565b60408201526060830151606082015280935050505092915050565b634e487b7160e01b600052603260045260246000fd5b60208082526023908201527f50726f647563746f206e6f20657869737465206f206e6f20657374612061637460408201526269766f60e81b606082015260800190565b600080600080600080600060e0888a031215611a4157600080fd5b8751611a4c816110bc565b602089015160408a0151919850965067ffffffffffffffff80821115611a7157600080fd5b611a7d8b838c01611770565b965060608a0151955060808a0151915080821115611a9a57600080fd5b50611aa78a828b01611770565b935050611ab660a08901611601565b915060c0880151905092959891949750929550565b634e487b7160e01b600052601160045260246000fd5b808202811582820484141761034457610344611acb565b8082018082111561034457610344611acb565b600060018201611b1d57611b1d611acb565b506001019056fea2646970667358221220c3c095d12f414514d86d0d2032ee9b0a01a755cb82f14523d8586d3eba43d9ff64736f6c63430008140033",
  "linkReferences": {},
  "deployedLinkReferences": {}
}