{
  "_format": "hh-sol-artifact-1",
  "contractName": "Empresa",
  "sourceName": "contracts/Empresa.sol",
  "abi": [
    {
      "inputs": [],
      "stateMutability": "nonpayable",
      "type": "constructor"
    },
    {
      "inputs": [
        {
          "internalType": "address",
          "name": "owner",
          "type": "address"
        }
      ],
      "name": "OwnableInvalidOwner",
      "type": "error"
    },
    {
      "inputs": [
        {
          "internalType": "address",
          "name": "account",
          "type": "address"
        }
      ],
      "name": "OwnableUnauthorizedAccount",
      "type": "error"
    },
    {
      "anonymous": false,
      "inputs": [
        {
          "indexed": true,
          "internalType": "address",
          "name": "empresaAddress",
          "type": "address"
        },
        {
          "indexed": false,
          "internalType": "string",
          "name": "nuevoNombre",
          "type": "string"
        }
      ],
      "name": "EmpresaActualizada",
      "type": "event"
    },
    {
      "anonymous": false,
      "inputs": [
        {
          "indexed": true,
          "internalType": "address",
          "name": "empresaAddress",
          "type": "address"
        }
      ],
      "name": "EmpresaDesactivada",
      "type": "event"
    },
    {
      "anonymous": false,
      "inputs": [
        {
          "indexed": true,
          "internalType": "address",
          "name": "empresaAddress",
          "type": "address"
        },
        {
          "indexed": false,
          "internalType": "string",
          "name": "nombre",
          "type": "string"
        }
      ],
      "name": "EmpresaRegistrada",
      "type": "event"
    },
    {
      "anonymous": false,
      "inputs": [
        {
          "indexed": true,
          "internalType": "address",
          "name": "previousOwner",
          "type": "address"
        },
        {
          "indexed": true,
          "internalType": "address",
          "name": "newOwner",
          "type": "address"
        }
      ],
      "name": "OwnershipTransferred",
      "type": "event"
    },
    {
      "inputs": [
        {
          "internalType": "address",
          "name": "_empresaAddress",
          "type": "address"
        },
        {
          "internalType": "string",
          "name": "_nuevoNombre",
          "type": "string"
        }
      ],
      "name": "actualizarEmpresa",
      "outputs": [],
      "stateMutability": "nonpayable",
      "type": "function"
    },
    {
      "inputs": [
        {
          "internalType": "address",
          "name": "_empresaAddress",
          "type": "address"
        }
      ],
      "name": "desactivarEmpresa",
      "outputs": [],
      "stateMutability": "nonpayable",
      "type": "function"
    },
    {
      "inputs": [
        {
          "internalType": "uint256",
          "name": "",
          "type": "uint256"
        }
      ],
      "name": "direccionesEmpresas",
      "outputs": [
        {
          "internalType": "address",
          "name": "",
          "type": "address"
        }
      ],
      "stateMutability": "view",
      "type": "function"
    },
    {
      "inputs": [
        {
          "internalType": "address",
          "name": "",
          "type": "address"
        }
      ],
      "name": "empresas",
      "outputs": [
        {
          "internalType": "address",
          "name": "empresaAddress",
          "type": "address"
        },
        {
          "internalType": "string",
          "name": "nombre",
          "type": "string"
        },
        {
          "internalType": "bool",
          "name": "activa",
          "type": "bool"
        },
        {
          "internalType": "uint256",
          "name": "fechaCreacion",
          "type": "uint256"
        }
      ],
      "stateMutability": "view",
      "type": "function"
    },
    {
      "inputs": [
        {
          "internalType": "address",
          "name": "_empresaAddress",
          "type": "address"
        }
      ],
      "name": "esEmpresaActiva",
      "outputs": [
        {
          "internalType": "bool",
          "name": "",
          "type": "bool"
        }
      ],
      "stateMutability": "view",
      "type": "function"
    },
    {
      "inputs": [
        {
          "internalType": "address",
          "name": "_empresaAddress",
          "type": "address"
        }
      ],
      "name": "obtenerEmpresa",
      "outputs": [
        {
          "components": [
            {
              "internalType": "address",
              "name": "empresaAddress",
              "type": "address"
            },
            {
              "internalType": "string",
              "name": "nombre",
              "type": "string"
            },
            {
              "internalType": "bool",
              "name": "activa",
              "type": "bool"
            },
            {
              "internalType": "uint256",
              "name": "fechaCreacion",
              "type": "uint256"
            }
          ],
          "internalType": "struct Empresa.EmpresaData",
          "name": "",
          "type": "tuple"
        }
      ],
      "stateMutability": "view",
      "type": "function"
    },
    {
      "inputs": [],
      "name": "obtenerTodasLasEmpresas",
      "outputs": [
        {
          "internalType": "address[]",
          "name": "",
          "type": "address[]"
        }
      ],
      "stateMutability": "view",
      "type": "function"
    },
    {
      "inputs": [],
      "name": "obtenerTotalEmpresas",
      "outputs": [
        {
          "internalType": "uint256",
          "name": "",
          "type": "uint256"
        }
      ],
      "stateMutability": "view",
      "type": "function"
    },
    {
      "inputs": [],
      "name": "owner",
      "outputs": [
        {
          "internalType": "address",
          "name": "",
          "type": "address"
        }
      ],
      "stateMutability": "view",
      "type": "function"
    },
    {
      "inputs": [
        {
          "internalType": "address",
          "name": "_empresaAddress",
          "type": "address"
        },
        {
          "internalType": "string",
          "name": "_nombre",
          "type": "string"
        }
      ],
      "name": "registrarEmpresa",
      "outputs": [],
      "stateMutability": "nonpayable",
      "type": "function"
    },
    {
      "inputs": [],
      "name": "renounceOwnership",
      "outputs": [],
      "stateMutability": "nonpayable",
      "type": "function"
    },
    {
      "inputs": [
        {
          "internalType": "address",
          "name": "newOwner",
          "type": "address"
        }
      ],
      "name": "transferOwnership",
      "outputs": [],
      "stateMutability": "nonpayable",
      "type": "function"
    }
  ],
  "bytecode": "0x608060405234801561001057600080fd5b50338061003757604051631e4fbdf760e01b81526000600482015260240160405180910390fd5b61004081610046565b50610096565b600080546001600160a01b038381166001600160a01b0319831681178455604051919092169283917f8be0079c531659141344cd1fd0a4f28419497f9722a3daafe3b4186f6b6457e09190a35050565b610d5b806100a56000396000f3fe608060405234801561001057600080fd5b50600436106100b45760003560e01c80638da5cb5b116100715780638da5cb5b146101815780638dd350b114610192578063c5a8ae10146101a3578063d6f20ea4146101b6578063ecf1b96a146101c9578063f2fde38b146101e957600080fd5b806353b6aba6146100b957806356191c72146100d75780635bc52bfa146101025780635daf3bde146101415780635f8b635514610156578063715018a614610179575b600080fd5b6100c16101fc565b6040516100ce919061093b565b60405180910390f35b6100ea6100e5366004610988565b61025e565b6040516001600160a01b0390911681526020016100ce565b6101316101103660046109bd565b6001600160a01b031660009081526001602052604090206002015460ff1690565b60405190151581526020016100ce565b61015461014f3660046109bd565b610288565b005b6101696101643660046109bd565b610320565b6040516100ce9493929190610a25565b6101546103e0565b6000546001600160a01b03166100ea565b6002546040519081526020016100ce565b6101546101b1366004610a72565b6103f4565b6101546101c4366004610a72565b610637565b6101dc6101d73660046109bd565b61072b565b6040516100ce9190610b34565b6101546101f73660046109bd565b610880565b6060600280548060200260200160405190810160405280929190818152602001828054801561025457602002820191906000526020600020905b81546001600160a01b03168152600190910190602001808311610236575b5050505050905090565b6002818154811061026e57600080fd5b6000918252602090912001546001600160a01b0316905081565b6102906108be565b6001600160a01b03811660009081526001602052604090206002015460ff166102d45760405162461bcd60e51b81526004016102cb90610b84565b60405180910390fd5b6001600160a01b038116600081815260016020526040808220600201805460ff19169055517f04ae18982f9cecacdb064e1ad373cb0540d054d607b04588fce34e05f7f4052f9190a250565b6001602081905260009182526040909120805491810180546001600160a01b039093169261034d90610bc9565b80601f016020809104026020016040519081016040528092919081815260200182805461037990610bc9565b80156103c65780601f1061039b576101008083540402835291602001916103c6565b820191906000526020600020905b8154815290600101906020018083116103a957829003601f168201915b505050506002830154600390930154919260ff1691905084565b6103e86108be565b6103f260006108eb565b565b6103fc6108be565b6001600160a01b0382166104615760405162461bcd60e51b815260206004820152602660248201527f446972656363696f6e20646520656d7072657361206e6f20707565646520736560448201526572206365726f60d01b60648201526084016102cb565b60008151116104b25760405162461bcd60e51b815260206004820152601e60248201527f456c206e6f6d627265206e6f20707565646520657374617220766163696f000060448201526064016102cb565b6001600160a01b03821660009081526001602052604090206002015460ff161561051e5760405162461bcd60e51b815260206004820152601d60248201527f4c6120656d70726573612079612065737461207265676973747261646100000060448201526064016102cb565b604080516080810182526001600160a01b038481168083526020808401868152600185870181905242606087015260009384529182905294909120835181546001600160a01b0319169316929092178255925191929091908201906105839082610c52565b506040828101516002838101805460ff19169215159290921790915560609093015160039092019190915581546001810183556000929092527f405787fa12a823e0f2b7631cc41b3ba8828b3321ca811111fa75cd3aa3bb5ace90910180546001600160a01b0319166001600160a01b03851690811790915590517fe24b8cd3eaf778b81de549b5eb912ba11ebd4a102f507685f58b9a42caa16ddd9061062b908490610d12565b60405180910390a25050565b61063f6108be565b6001600160a01b03821660009081526001602052604090206002015460ff1661067a5760405162461bcd60e51b81526004016102cb90610b84565b60008151116106cb5760405162461bcd60e51b815260206004820152601e60248201527f456c206e6f6d627265206e6f20707565646520657374617220766163696f000060448201526064016102cb565b6001600160a01b0382166000908152600160208190526040909120016106f18282610c52565b50816001600160a01b03167f6a4dc632dbd1671d89991c3833a1b00541afc9b61b2d5f0e3a2808a072462f358260405161062b9190610d12565b610761604051806080016040528060006001600160a01b0316815260200160608152602001600015158152602001600081525090565b6001600160a01b03821660009081526001602052604090206002015460ff1661079c5760405162461bcd60e51b81526004016102cb90610b84565b6001600160a01b03808316600090815260016020818152604092839020835160808101909452805490941683529083018054929392918401916107de90610bc9565b80601f016020809104026020016040519081016040528092919081815260200182805461080a90610bc9565b80156108575780601f1061082c57610100808354040283529160200191610857565b820191906000526020600020905b81548152906001019060200180831161083a57829003601f168201915b5050509183525050600282015460ff161515602082015260039091015460409091015292915050565b6108886108be565b6001600160a01b0381166108b257604051631e4fbdf760e01b8152600060048201526024016102cb565b6108bb816108eb565b50565b6000546001600160a01b031633146103f25760405163118cdaa760e01b81523360048201526024016102cb565b600080546001600160a01b038381166001600160a01b0319831681178455604051919092169283917f8be0079c531659141344cd1fd0a4f28419497f9722a3daafe3b4186f6b6457e09190a35050565b6020808252825182820181905260009190848201906040850190845b8181101561097c5783516001600160a01b031683529284019291840191600101610957565b50909695505050505050565b60006020828403121561099a57600080fd5b5035919050565b80356001600160a01b03811681146109b857600080fd5b919050565b6000602082840312156109cf57600080fd5b6109d8826109a1565b9392505050565b6000815180845260005b81811015610a05576020818501810151868301820152016109e9565b506000602082860101526020601f19601f83011685010191505092915050565b6001600160a01b0385168152608060208201819052600090610a49908301866109df565b9315156040830152506060015292915050565b634e487b7160e01b600052604160045260246000fd5b60008060408385031215610a8557600080fd5b610a8e836109a1565b9150602083013567ffffffffffffffff80821115610aab57600080fd5b818501915085601f830112610abf57600080fd5b813581811115610ad157610ad1610a5c565b604051601f8201601f19908116603f01168101908382118183101715610af957610af9610a5c565b81604052828152886020848701011115610b1257600080fd5b8260208601602083013760006020848301015280955050505050509250929050565b602080825282516001600160a01b03168282015282015160806040830152600090610b6260a08401826109df565b9050604084015115156060840152606084015160808401528091505092915050565b60208082526025908201527f4c6120656d7072657361206e6f20657869737465206f206e6f20657374612061604082015264637469766160d81b606082015260800190565b600181811c90821680610bdd57607f821691505b602082108103610bfd57634e487b7160e01b600052602260045260246000fd5b50919050565b601f821115610c4d57600081815260208120601f850160051c81016020861015610c2a5750805b601f850160051c820191505b81811015610c4957828155600101610c36565b5050505b505050565b815167ffffffffffffffff811115610c6c57610c6c610a5c565b610c8081610c7a8454610bc9565b84610c03565b602080601f831160018114610cb55760008415610c9d5750858301515b600019600386901b1c1916600185901b178555610c49565b600085815260208120601f198616915b82811015610ce457888601518255948401946001909101908401610cc5565b5085821015610d025787850151600019600388901b60f8161c191681555b5050505050600190811b01905550565b6020815260006109d860208301846109df56fea2646970667358221220fecc3e020ef0a4b889a2eb4d316f9646b4a1e293cec749f94827e55e1f42d9ab64736f6c63430008140033",
  "linkReferences": {},
  "deployedLinkReferences": {}
}